{
  "contractName": "EtherDrive",
  "abi": [
    {
      "constant": false,
      "inputs": [],
      "name": "renounceOwnership",
      "outputs": [],
      "payable": false,
      "stateMutability": "nonpayable",
      "type": "function"
    },
    {
      "constant": true,
      "inputs": [],
      "name": "owner",
      "outputs": [
        {
          "name": "",
          "type": "address"
        }
      ],
      "payable": false,
      "stateMutability": "view",
      "type": "function"
    },
    {
      "constant": true,
      "inputs": [],
      "name": "isOwner",
      "outputs": [
        {
          "name": "",
          "type": "bool"
        }
      ],
      "payable": false,
      "stateMutability": "view",
      "type": "function"
    },
    {
      "constant": false,
      "inputs": [
        {
          "name": "newOwner",
          "type": "address"
        }
      ],
      "name": "transferOwnership",
      "outputs": [],
      "payable": false,
      "stateMutability": "nonpayable",
      "type": "function"
    },
    {
      "constant": true,
      "inputs": [
        {
          "name": "",
          "type": "uint256"
        }
      ],
      "name": "players",
      "outputs": [
        {
          "name": "account",
          "type": "address"
        },
        {
          "name": "spinOne",
          "type": "uint256"
        },
        {
          "name": "spinTwo",
          "type": "uint256"
        },
        {
          "name": "spinThree",
          "type": "uint256"
        },
        {
          "name": "spinCount",
          "type": "uint256"
        },
        {
          "name": "roundCount",
          "type": "uint256"
        },
        {
          "name": "roundScore",
          "type": "uint256"
        },
        {
          "name": "roundGoal",
          "type": "uint256"
        },
        {
          "name": "owed",
          "type": "uint256"
        },
        {
          "name": "paid",
          "type": "bool"
        }
      ],
      "payable": false,
      "stateMutability": "view",
      "type": "function"
    },
    {
      "anonymous": false,
      "inputs": [
        {
          "indexed": false,
          "name": "userId",
          "type": "uint256"
        }
      ],
      "name": "NewPlayer",
      "type": "event"
    },
    {
      "anonymous": false,
      "inputs": [
        {
          "indexed": true,
          "name": "previousOwner",
          "type": "address"
        },
        {
          "indexed": true,
          "name": "newOwner",
          "type": "address"
        }
      ],
      "name": "OwnershipTransferred",
      "type": "event"
    },
    {
      "constant": false,
      "inputs": [
        {
          "name": "_amount",
          "type": "uint256"
        }
      ],
      "name": "deposit",
      "outputs": [],
      "payable": true,
      "stateMutability": "payable",
      "type": "function"
    },
    {
      "constant": true,
      "inputs": [],
      "name": "testConnection",
      "outputs": [
        {
          "name": "",
          "type": "uint256"
        }
      ],
      "payable": false,
      "stateMutability": "pure",
      "type": "function"
    },
    {
      "constant": false,
      "inputs": [],
      "name": "payToPlay",
      "outputs": [],
      "payable": true,
      "stateMutability": "payable",
      "type": "function"
    },
    {
      "constant": true,
      "inputs": [],
      "name": "getCreditedAmount",
      "outputs": [
        {
          "name": "",
          "type": "uint256"
        }
      ],
      "payable": false,
      "stateMutability": "view",
      "type": "function"
    },
    {
      "constant": true,
      "inputs": [
        {
          "name": "_account",
          "type": "address"
        }
      ],
      "name": "isAccountActivated",
      "outputs": [
        {
          "name": "",
          "type": "bool"
        }
      ],
      "payable": false,
      "stateMutability": "view",
      "type": "function"
    },
    {
      "constant": true,
      "inputs": [],
      "name": "getPlayerId",
      "outputs": [
        {
          "name": "",
          "type": "uint256"
        }
      ],
      "payable": false,
      "stateMutability": "view",
      "type": "function"
    },
    {
      "constant": true,
      "inputs": [],
      "name": "getPriceToPlay",
      "outputs": [
        {
          "name": "",
          "type": "uint256"
        }
      ],
      "payable": false,
      "stateMutability": "view",
      "type": "function"
    },
    {
      "constant": true,
      "inputs": [],
      "name": "getRoundCount",
      "outputs": [
        {
          "name": "",
          "type": "uint256"
        }
      ],
      "payable": false,
      "stateMutability": "view",
      "type": "function"
    },
    {
      "constant": true,
      "inputs": [
        {
          "name": "_userId",
          "type": "uint256"
        }
      ],
      "name": "getRoundCount",
      "outputs": [
        {
          "name": "",
          "type": "uint256"
        }
      ],
      "payable": false,
      "stateMutability": "view",
      "type": "function"
    },
    {
      "constant": true,
      "inputs": [],
      "name": "getRoundScore",
      "outputs": [
        {
          "name": "",
          "type": "uint256"
        }
      ],
      "payable": false,
      "stateMutability": "view",
      "type": "function"
    },
    {
      "constant": true,
      "inputs": [],
      "name": "getSpinCount",
      "outputs": [
        {
          "name": "",
          "type": "uint256"
        }
      ],
      "payable": false,
      "stateMutability": "view",
      "type": "function"
    },
    {
      "constant": true,
      "inputs": [],
      "name": "getRoundGoal",
      "outputs": [
        {
          "name": "",
          "type": "uint256"
        }
      ],
      "payable": false,
      "stateMutability": "view",
      "type": "function"
    },
    {
      "constant": true,
      "inputs": [],
      "name": "getSpinOne",
      "outputs": [
        {
          "name": "",
          "type": "uint256"
        }
      ],
      "payable": false,
      "stateMutability": "view",
      "type": "function"
    },
    {
      "constant": true,
      "inputs": [],
      "name": "getSpinTwo",
      "outputs": [
        {
          "name": "",
          "type": "uint256"
        }
      ],
      "payable": false,
      "stateMutability": "view",
      "type": "function"
    },
    {
      "constant": true,
      "inputs": [],
      "name": "getSpinThree",
      "outputs": [
        {
          "name": "",
          "type": "uint256"
        }
      ],
      "payable": false,
      "stateMutability": "view",
      "type": "function"
    }
  ],
  "bytecode": "0x6080604052600a600155336000806101000a81548173ffffffffffffffffffffffffffffffffffffffff021916908373ffffffffffffffffffffffffffffffffffffffff1602179055506000809054906101000a900473ffffffffffffffffffffffffffffffffffffffff1673ffffffffffffffffffffffffffffffffffffffff16600073ffffffffffffffffffffffffffffffffffffffff167f8be0079c531659141344cd1fd0a4f28419497f9722a3daafe3b4186f6b6457e060405160405180910390a3610ceb806100d46000396000f3fe608060405260043610610112576000357c0100000000000000000000000000000000000000000000000000000000900463ffffffff16806319748ed0146101175780633412a15c146101425780633e5edbd31461016d5780634dafdfae146101775780636de7da78146101a2578063715018a6146101cd5780637c1ebbb6146101e45780638da5cb5b1461020f5780638f32d59b14610266578063ac43666014610295578063b04c6425146102c0578063b12decb0146102eb578063b439bd031461033a578063b6b55f2514610365578063d4e8b4d114610393578063f2fde38b146103be578063f33b62b51461040f578063f44c67361461043a578063f71d96cb146104a3578063f80f270114610561575b600080fd5b34801561012357600080fd5b5061012c61058c565b6040518082815260200191505060405180910390f35b34801561014e57600080fd5b506101576105f8565b6040518082815260200191505060405180910390f35b610175610601565b005b34801561018357600080fd5b5061018c610613565b6040518082815260200191505060405180910390f35b3480156101ae57600080fd5b506101b761067f565b6040518082815260200191505060405180910390f35b3480156101d957600080fd5b506101e26106eb565b005b3480156101f057600080fd5b506101f96107bd565b6040518082815260200191505060405180910390f35b34801561021b57600080fd5b506102246107c7565b604051808273ffffffffffffffffffffffffffffffffffffffff1673ffffffffffffffffffffffffffffffffffffffff16815260200191505060405180910390f35b34801561027257600080fd5b5061027b6107f0565b604051808215151515815260200191505060405180910390f35b3480156102a157600080fd5b506102aa610847565b6040518082815260200191505060405180910390f35b3480156102cc57600080fd5b506102d561088e565b6040518082815260200191505060405180910390f35b3480156102f757600080fd5b506103246004803603602081101561030e57600080fd5b81019080803590602001909291905050506108fa565b6040518082815260200191505060405180910390f35b34801561034657600080fd5b5061034f610924565b6040518082815260200191505060405180910390f35b6103916004803603602081101561037b57600080fd5b8101908080359060200190929190505050610990565b005b34801561039f57600080fd5b506103a86109a1565b6040518082815260200191505060405180910390f35b3480156103ca57600080fd5b5061040d600480360360208110156103e157600080fd5b81019080803573ffffffffffffffffffffffffffffffffffffffff169060200190929190505050610a0d565b005b34801561041b57600080fd5b50610424610a2c565b6040518082815260200191505060405180910390f35b34801561044657600080fd5b506104896004803603602081101561045d57600080fd5b81019080803573ffffffffffffffffffffffffffffffffffffffff169060200190929190505050610a98565b604051808215151515815260200191505060405180910390f35b3480156104af57600080fd5b506104dc600480360360208110156104c657600080fd5b8101908080359060200190929190505050610aee565b604051808b73ffffffffffffffffffffffffffffffffffffffff1673ffffffffffffffffffffffffffffffffffffffff1681526020018a8152602001898152602001888152602001878152602001868152602001858152602001848152602001838152602001821515151581526020019a505050505050505050505060405180910390f35b34801561056d57600080fd5b50610576610b7e565b6040518082815260200191505060405180910390f35b600080600760003373ffffffffffffffffffffffffffffffffffffffff1673ffffffffffffffffffffffffffffffffffffffff1681526020019081526020016000205490506002818154811015156105e057fe5b90600052602060002090600a02016006015491505090565b60006064905090565b6001543414151561061157600080fd5b565b600080600760003373ffffffffffffffffffffffffffffffffffffffff1673ffffffffffffffffffffffffffffffffffffffff16815260200190815260200160002054905060028181548110151561066757fe5b90600052602060002090600a02016004015491505090565b600080600760003373ffffffffffffffffffffffffffffffffffffffff1673ffffffffffffffffffffffffffffffffffffffff1681526020019081526020016000205490506002818154811015156106d357fe5b90600052602060002090600a02016005015491505090565b6106f36107f0565b15156106fe57600080fd5b600073ffffffffffffffffffffffffffffffffffffffff166000809054906101000a900473ffffffffffffffffffffffffffffffffffffffff1673ffffffffffffffffffffffffffffffffffffffff167f8be0079c531659141344cd1fd0a4f28419497f9722a3daafe3b4186f6b6457e060405160405180910390a360008060006101000a81548173ffffffffffffffffffffffffffffffffffffffff021916908373ffffffffffffffffffffffffffffffffffffffff160217905550565b6000600154905090565b60008060009054906101000a900473ffffffffffffffffffffffffffffffffffffffff16905090565b60008060009054906101000a900473ffffffffffffffffffffffffffffffffffffffff1673ffffffffffffffffffffffffffffffffffffffff163373ffffffffffffffffffffffffffffffffffffffff1614905090565b6000600760003373ffffffffffffffffffffffffffffffffffffffff1673ffffffffffffffffffffffffffffffffffffffff16815260200190815260200160002054905090565b600080600760003373ffffffffffffffffffffffffffffffffffffffff1673ffffffffffffffffffffffffffffffffffffffff1681526020019081526020016000205490506002818154811015156108e257fe5b90600052602060002090600a02016007015491505090565b600060028281548110151561090b57fe5b90600052602060002090600a0201600501549050919050565b600080600760003373ffffffffffffffffffffffffffffffffffffffff1673ffffffffffffffffffffffffffffffffffffffff16815260200190815260200160002054905060028181548110151561097857fe5b90600052602060002090600a02016003015491505090565b803414151561099e57600080fd5b50565b600080600760003373ffffffffffffffffffffffffffffffffffffffff1673ffffffffffffffffffffffffffffffffffffffff1681526020019081526020016000205490506002818154811015156109f557fe5b90600052602060002090600a02016002015491505090565b610a156107f0565b1515610a2057600080fd5b610a2981610bc5565b50565b600080600760003373ffffffffffffffffffffffffffffffffffffffff1673ffffffffffffffffffffffffffffffffffffffff168152602001908152602001600020549050600281815481101515610a8057fe5b90600052602060002090600a02016001015491505090565b6000600560008373ffffffffffffffffffffffffffffffffffffffff1673ffffffffffffffffffffffffffffffffffffffff16815260200190815260200160002060009054906101000a900460ff169050919050565b600281815481101515610afd57fe5b90600052602060002090600a02016000915090508060000160009054906101000a900473ffffffffffffffffffffffffffffffffffffffff16908060010154908060020154908060030154908060040154908060050154908060060154908060070154908060080154908060090160009054906101000a900460ff1690508a565b6000600460003373ffffffffffffffffffffffffffffffffffffffff1673ffffffffffffffffffffffffffffffffffffffff16815260200190815260200160002054905090565b600073ffffffffffffffffffffffffffffffffffffffff168173ffffffffffffffffffffffffffffffffffffffff1614151515610c0157600080fd5b8073ffffffffffffffffffffffffffffffffffffffff166000809054906101000a900473ffffffffffffffffffffffffffffffffffffffff1673ffffffffffffffffffffffffffffffffffffffff167f8be0079c531659141344cd1fd0a4f28419497f9722a3daafe3b4186f6b6457e060405160405180910390a3806000806101000a81548173ffffffffffffffffffffffffffffffffffffffff021916908373ffffffffffffffffffffffffffffffffffffffff1602179055505056fea165627a7a72305820400d24a4b1bb911d7c053fcade6bb1455c9b6e70a3c8dd8f0eb676f6959ba05a0029",
  "source": "pragma solidity ^0.5.0;\n\nimport \"./Ownable.sol\";\nimport \"./SafeMath.sol\";\n\ncontract EtherDrive is Ownable{\n\n  event NewPlayer(uint userId);\n\n  struct Player {\n    address account;\n    uint spinOne;\n    uint spinTwo;\n    uint spinThree;\n    uint spinCount;\n    uint roundCount;\n    uint roundScore;\n    uint roundGoal;\n    uint owed;\n    bool paid;\n  }\n\n\n    uint priceToPlay = 10;\n\n\n  Player[] public players;\n\n   mapping(address => uint) balanceOf;\n   mapping(address => uint) addressToCreditBalance;\n   mapping(address => bool) activated;\n   mapping(uint => address) idToPlayer;\n   mapping(address => uint) addressToId;\n\n\n   modifier onlyPlayer(uint _userId) {\n    require(msg.sender == idToPlayer[_userId]);\n    _;\n  }\n\n\n//   function testCreatePlayer(address _userAccount) public {\n//     uint userId = players.push(Player(_userAccount,  0, 0, false)) ;\n//     emit NewPlayer(userId);\n//   }\n\n    function deposit(uint256 _amount) payable public {\n        require(msg.value == _amount);\n    }\n// /* Only owner of contract can withdraw */\n//     function withdraw() external onlyOwner {\n//     address _owner = owner();\n//     _owner.transfer(address(this).balance);\n//   }\n\n/* Need to customize this to changing priceToPlay, roundGoals and roundRewards */\n  /* function setLevelUpFee(uint _fee) external onlyOwner {\n      levelUpFee = _fee;\n    } */\n\n     function testConnection () public pure returns (uint){\n        return 100;\n         }\n\n    function payToPlay () public payable {\n        require (msg.value == priceToPlay);\n         }\n\n    function getCreditedAmount() public view returns (uint){\n        return addressToCreditBalance[msg.sender];\n    }\n\n    function getRoundCount(uint _userId) public view returns (uint) {\n        return players[_userId].roundCount;\n    }\n\n    function isAccountActivated(address _account) public view returns (bool){\n        return (activated[_account]);\n    }\n\n    function getPlayerId() public view returns (uint) {\n        return addressToId[msg.sender];\n    }\n\n    function getPriceToPlay() public view returns (uint) {\n        return priceToPlay;\n    }\n\n    function getRoundCount() public view returns (uint) {\n        uint _userId = addressToId[msg.sender];\n       return players[_userId].roundCount;\n    }\n\n    function getRoundScore() public view returns (uint) {\n        uint _userId = addressToId[msg.sender];\n       return players[_userId].roundScore;\n    }\n\n    function getSpinCount() public view returns (uint) {\n        uint _userId = addressToId[msg.sender];\n       return players[_userId].spinCount;\n    }\n\n    function getRoundGoal() public view returns (uint) {\n        uint _userId = addressToId[msg.sender];\n       return players[_userId].roundGoal;\n    }\n\n    function getSpinOne() public view returns (uint) {\n        uint _userId = addressToId[msg.sender];\n       return players[_userId].spinOne;\n    }\n\n    function getSpinTwo() public view returns (uint) {\n        uint _userId = addressToId[msg.sender];\n       return players[_userId].spinTwo;\n    }\n\n    function getSpinThree() public view returns (uint) {\n        uint _userId = addressToId[msg.sender];\n       return players[_userId].spinThree;\n    }\n\n}\n",
  "sourcePath": "/Users/connorpayne/code/EtherDrive/contracts/EtherDrive.sol",
  "compiler": {
    "name": "solc",
    "version": "0.5.0+commit.1d4f565a.Emscripten.clang"
  },
  "schemaVersion": "3.0.3",
  "updatedAt": "2019-03-23T19:29:14.738Z",
  "devdoc": {
    "methods": {
      "isOwner()": {
        "return": "true if `msg.sender` is the owner of the contract."
      },
      "owner()": {
        "return": "the address of the owner."
      },
      "renounceOwnership()": {
        "details": "Allows the current owner to relinquish control of the contract. It will not be possible to call the functions with the `onlyOwner` modifier anymore."
      },
      "transferOwnership(address)": {
        "details": "Allows the current owner to transfer control of the contract to a newOwner.",
        "params": {
          "newOwner": "The address to transfer ownership to."
        }
      }
    }
  },
  "userdoc": {
    "methods": {
      "renounceOwnership()": {
        "notice": "Renouncing ownership will leave the contract without an owner, thereby removing any functionality that is only available to the owner."
      }
    }
  }
}