{
  "contractName": "EtherWheel",
  "abi": [
    {
      "constant": true,
      "inputs": [
        {
          "name": "_userId",
          "type": "uint256"
        }
      ],
      "name": "getCreditedAmount",
      "outputs": [
        {
          "name": "",
          "type": "uint256"
        }
      ],
      "payable": false,
      "stateMutability": "view",
      "type": "function",
      "signature": "0x0ade3982"
    },
    {
      "constant": false,
      "inputs": [],
      "name": "payToPlay",
      "outputs": [],
      "payable": true,
      "stateMutability": "payable",
      "type": "function",
      "signature": "0x3e5edbd3"
    },
    {
      "constant": false,
      "inputs": [],
      "name": "renounceOwnership",
      "outputs": [],
      "payable": false,
      "stateMutability": "nonpayable",
      "type": "function",
      "signature": "0x715018a6"
    },
    {
      "constant": true,
      "inputs": [],
      "name": "owner",
      "outputs": [
        {
          "name": "",
          "type": "address"
        }
      ],
      "payable": false,
      "stateMutability": "view",
      "type": "function",
      "signature": "0x8da5cb5b"
    },
    {
      "constant": true,
      "inputs": [],
      "name": "isOwner",
      "outputs": [
        {
          "name": "",
          "type": "bool"
        }
      ],
      "payable": false,
      "stateMutability": "view",
      "type": "function",
      "signature": "0x8f32d59b"
    },
    {
      "constant": false,
      "inputs": [
        {
          "name": "_amount",
          "type": "uint256"
        }
      ],
      "name": "deposit",
      "outputs": [],
      "payable": true,
      "stateMutability": "payable",
      "type": "function",
      "signature": "0xb6b55f25"
    },
    {
      "constant": false,
      "inputs": [],
      "name": "_createPlayer",
      "outputs": [],
      "payable": false,
      "stateMutability": "nonpayable",
      "type": "function",
      "signature": "0xf02b1e8b"
    },
    {
      "constant": false,
      "inputs": [
        {
          "name": "newOwner",
          "type": "address"
        }
      ],
      "name": "transferOwnership",
      "outputs": [],
      "payable": false,
      "stateMutability": "nonpayable",
      "type": "function",
      "signature": "0xf2fde38b"
    },
    {
      "constant": true,
      "inputs": [
        {
          "name": "",
          "type": "uint256"
        }
      ],
      "name": "players",
      "outputs": [
        {
          "name": "account",
          "type": "address"
        },
        {
          "name": "roundCount",
          "type": "uint256"
        },
        {
          "name": "roundScore",
          "type": "uint256"
        },
        {
          "name": "paid",
          "type": "bool"
        }
      ],
      "payable": false,
      "stateMutability": "view",
      "type": "function",
      "signature": "0xf71d96cb"
    },
    {
      "anonymous": false,
      "inputs": [
        {
          "indexed": false,
          "name": "userId",
          "type": "uint256"
        },
        {
          "indexed": false,
          "name": "roundNumber",
          "type": "uint256"
        },
        {
          "indexed": false,
          "name": "spinOne",
          "type": "uint256"
        },
        {
          "indexed": false,
          "name": "spinTwo",
          "type": "uint256"
        },
        {
          "indexed": false,
          "name": "spinThree",
          "type": "uint256"
        },
        {
          "indexed": false,
          "name": "roundScore",
          "type": "uint256"
        },
        {
          "indexed": false,
          "name": "totalWinnings",
          "type": "uint256"
        }
      ],
      "name": "RoundResults",
      "type": "event",
      "signature": "0x21b3d33e44b6bf2f026e5f1b9c76c6704d3e46a271dd870989ba5c8656aaba01"
    },
    {
      "anonymous": false,
      "inputs": [
        {
          "indexed": false,
          "name": "spinresult",
          "type": "uint256"
        }
      ],
      "name": "SpinLanding",
      "type": "event",
      "signature": "0x6f412c727e1597d6c3ae2306971f44bdbf2360b1e377440659b855b6ad834968"
    },
    {
      "anonymous": false,
      "inputs": [
        {
          "indexed": false,
          "name": "userId",
          "type": "uint256"
        }
      ],
      "name": "NewPlayer",
      "type": "event",
      "signature": "0xf4dd1db653a1088522e9ca377c4d54a81fc4c56ca3183a81caf1303eda7e1a95"
    },
    {
      "anonymous": false,
      "inputs": [
        {
          "indexed": true,
          "name": "previousOwner",
          "type": "address"
        },
        {
          "indexed": true,
          "name": "newOwner",
          "type": "address"
        }
      ],
      "name": "OwnershipTransferred",
      "type": "event",
      "signature": "0x8be0079c531659141344cd1fd0a4f28419497f9722a3daafe3b4186f6b6457e0"
    },
    {
      "constant": false,
      "inputs": [
        {
          "name": "_userId",
          "type": "uint256"
        }
      ],
      "name": "checkRound",
      "outputs": [],
      "payable": false,
      "stateMutability": "nonpayable",
      "type": "function",
      "signature": "0xf4b19eff"
    },
    {
      "constant": false,
      "inputs": [
        {
          "name": "_goal",
          "type": "uint256"
        }
      ],
      "name": "setRoundOneGoal",
      "outputs": [],
      "payable": false,
      "stateMutability": "nonpayable",
      "type": "function",
      "signature": "0xde3b887d"
    },
    {
      "constant": false,
      "inputs": [
        {
          "name": "_goal",
          "type": "uint256"
        }
      ],
      "name": "setRoundTwoGoal",
      "outputs": [],
      "payable": false,
      "stateMutability": "nonpayable",
      "type": "function",
      "signature": "0x4ca6ab6b"
    },
    {
      "constant": false,
      "inputs": [
        {
          "name": "_goal",
          "type": "uint256"
        }
      ],
      "name": "setRoundThreeGoal",
      "outputs": [],
      "payable": false,
      "stateMutability": "nonpayable",
      "type": "function",
      "signature": "0xfd87aad3"
    },
    {
      "constant": false,
      "inputs": [
        {
          "name": "_reward",
          "type": "uint256"
        }
      ],
      "name": "setRoundOneReward",
      "outputs": [],
      "payable": false,
      "stateMutability": "nonpayable",
      "type": "function",
      "signature": "0x0de96ebe"
    },
    {
      "constant": false,
      "inputs": [
        {
          "name": "_reward",
          "type": "uint256"
        }
      ],
      "name": "setRoundTwoReward",
      "outputs": [],
      "payable": false,
      "stateMutability": "nonpayable",
      "type": "function",
      "signature": "0x7bbac6e6"
    },
    {
      "constant": false,
      "inputs": [
        {
          "name": "_reward",
          "type": "uint256"
        }
      ],
      "name": "setRoundThreeReward",
      "outputs": [],
      "payable": false,
      "stateMutability": "nonpayable",
      "type": "function",
      "signature": "0x87d6fb0a"
    },
    {
      "constant": false,
      "inputs": [
        {
          "name": "_price",
          "type": "uint256"
        }
      ],
      "name": "setPriceToPlay",
      "outputs": [],
      "payable": false,
      "stateMutability": "nonpayable",
      "type": "function",
      "signature": "0xfac83957"
    }
  ],
  "bytecode": "0x6080604052600a600155600060085560fa600955610190600a556101f4600b55600a600c556014600d55600f600e556019600f60006101000a81548160ff021916908360ff1602179055506023600f60016101000a81548160ff021916908360ff1602179055506032600f60026101000a81548160ff021916908360ff160217905550604b600f60036101000a81548160ff021916908360ff1602179055506064600f60046101000a81548160ff021916908360ff1602179055506096600f60056101000a81548160ff021916908360ff16021790555060c8600f60066101000a81548160ff021916908360ff160217905550336000806101000a81548173ffffffffffffffffffffffffffffffffffffffff021916908373ffffffffffffffffffffffffffffffffffffffff1602179055506000809054906101000a900473ffffffffffffffffffffffffffffffffffffffff1673ffffffffffffffffffffffffffffffffffffffff16600073ffffffffffffffffffffffffffffffffffffffff167f8be0079c531659141344cd1fd0a4f28419497f9722a3daafe3b4186f6b6457e060405160405180910390a36110c6806101bd6000396000f3fe6080604052600436106100f1576000357c0100000000000000000000000000000000000000000000000000000000900463ffffffff1680630ade3982146100f65780630de96ebe146101455780633e5edbd3146101805780634ca6ab6b1461018a578063715018a6146101c55780637bbac6e6146101dc57806387d6fb0a146102175780638da5cb5b146102525780638f32d59b146102a9578063b6b55f25146102d8578063de3b887d14610306578063f02b1e8b14610341578063f2fde38b14610358578063f4b19eff146103a9578063f71d96cb146103e4578063fac8395714610478578063fd87aad3146104b3575b600080fd5b34801561010257600080fd5b5061012f6004803603602081101561011957600080fd5b81019080803590602001909291905050506104ee565b6040518082815260200191505060405180910390f35b34801561015157600080fd5b5061017e6004803603602081101561016857600080fd5b810190808035906020019092919050505061050b565b005b610188610528565b005b34801561019657600080fd5b506101c3600480360360208110156101ad57600080fd5b810190808035906020019092919050505061053a565b005b3480156101d157600080fd5b506101da610557565b005b3480156101e857600080fd5b50610215600480360360208110156101ff57600080fd5b8101908080359060200190929190505050610629565b005b34801561022357600080fd5b506102506004803603602081101561023a57600080fd5b8101908080359060200190929190505050610646565b005b34801561025e57600080fd5b50610267610663565b604051808273ffffffffffffffffffffffffffffffffffffffff1673ffffffffffffffffffffffffffffffffffffffff16815260200191505060405180910390f35b3480156102b557600080fd5b506102be61068c565b604051808215151515815260200191505060405180910390f35b610304600480360360208110156102ee57600080fd5b81019080803590602001909291905050506106e3565b005b34801561031257600080fd5b5061033f6004803603602081101561032957600080fd5b81019080803590602001909291905050506106f4565b005b34801561034d57600080fd5b50610356610711565b005b34801561036457600080fd5b506103a76004803603602081101561037b57600080fd5b81019080803573ffffffffffffffffffffffffffffffffffffffff1690602001909291905050506109a5565b005b3480156103b557600080fd5b506103e2600480360360208110156103cc57600080fd5b81019080803590602001909291905050506109c4565b005b3480156103f057600080fd5b5061041d6004803603602081101561040757600080fd5b8101908080359060200190929190505050610ab9565b604051808573ffffffffffffffffffffffffffffffffffffffff1673ffffffffffffffffffffffffffffffffffffffff1681526020018481526020018381526020018215151515815260200194505050505060405180910390f35b34801561048457600080fd5b506104b16004803603602081101561049b57600080fd5b8101908080359060200190929190505050610b25565b005b3480156104bf57600080fd5b506104ec600480360360208110156104d657600080fd5b8101908080359060200190929190505050610b42565b005b600060046000838152602001908152602001600020549050919050565b61051361068c565b151561051e57600080fd5b80600c8190555050565b6001543414151561053857600080fd5b565b61054261068c565b151561054d57600080fd5b80600a8190555050565b61055f61068c565b151561056a57600080fd5b600073ffffffffffffffffffffffffffffffffffffffff166000809054906101000a900473ffffffffffffffffffffffffffffffffffffffff1673ffffffffffffffffffffffffffffffffffffffff167f8be0079c531659141344cd1fd0a4f28419497f9722a3daafe3b4186f6b6457e060405160405180910390a360008060006101000a81548173ffffffffffffffffffffffffffffffffffffffff021916908373ffffffffffffffffffffffffffffffffffffffff160217905550565b61063161068c565b151561063c57600080fd5b80600d8190555050565b61064e61068c565b151561065957600080fd5b80600e8190555050565b60008060009054906101000a900473ffffffffffffffffffffffffffffffffffffffff16905090565b60008060009054906101000a900473ffffffffffffffffffffffffffffffffffffffff1673ffffffffffffffffffffffffffffffffffffffff163373ffffffffffffffffffffffffffffffffffffffff1614905090565b80341415156106f157600080fd5b50565b6106fc61068c565b151561070757600080fd5b8060098190555050565b60003390506000600560003373ffffffffffffffffffffffffffffffffffffffff1673ffffffffffffffffffffffffffffffffffffffff16815260200190815260200160002060009054906101000a900460ff1660ff1614151561077457600080fd5b6000600160026080604051908101604052808573ffffffffffffffffffffffffffffffffffffffff1681526020016000815260200160008152602001600015158152509080600181540180825580915050906001820390600052602060002090600402016000909192909190915060008201518160000160006101000a81548173ffffffffffffffffffffffffffffffffffffffff021916908373ffffffffffffffffffffffffffffffffffffffff160217905550602082015181600101556040820151816002015560608201518160030160006101000a81548160ff02191690831515021790555050500390506001600560003373ffffffffffffffffffffffffffffffffffffffff1673ffffffffffffffffffffffffffffffffffffffff16815260200190815260200160002060006101000a81548160ff021916908360ff160217905550336006600083815260200190815260200160002060006101000a81548173ffffffffffffffffffffffffffffffffffffffff021916908373ffffffffffffffffffffffffffffffffffffffff1602179055506000600460008381526020019081526020016000208190555080600760003373ffffffffffffffffffffffffffffffffffffffff1673ffffffffffffffffffffffffffffffffffffffff168152602001908152602001600020819055507ff4dd1db653a1088522e9ca377c4d54a81fc4c56ca3183a81caf1303eda7e1a95816040518082815260200191505060405180910390a15050565b6109ad61068c565b15156109b857600080fd5b6109c181610b5f565b50565b806006600082815260200190815260200160002060009054906101000a900473ffffffffffffffffffffffffffffffffffffffff1673ffffffffffffffffffffffffffffffffffffffff163373ffffffffffffffffffffffffffffffffffffffff16141515610a3257600080fd5b6000600283815481101515610a4357fe5b90600052602060002090600402019050600081600101541415610a7457610a6f83600954600c54610c59565b610ab4565b600181600101541415610a9557610a9083600a54600d54610c59565b610ab3565b600281600101541415610ab257610ab183600b54600e54610c59565b5b5b5b505050565b600281815481101515610ac857fe5b90600052602060002090600402016000915090508060000160009054906101000a900473ffffffffffffffffffffffffffffffffffffffff16908060010154908060020154908060030160009054906101000a900460ff16905084565b610b2d61068c565b1515610b3857600080fd5b8060018190555050565b610b4a61068c565b1515610b5557600080fd5b80600b8190555050565b600073ffffffffffffffffffffffffffffffffffffffff168173ffffffffffffffffffffffffffffffffffffffff1614151515610b9b57600080fd5b8073ffffffffffffffffffffffffffffffffffffffff166000809054906101000a900473ffffffffffffffffffffffffffffffffffffffff1673ffffffffffffffffffffffffffffffffffffffff167f8be0079c531659141344cd1fd0a4f28419497f9722a3daafe3b4186f6b6457e060405160405180910390a3806000806101000a81548173ffffffffffffffffffffffffffffffffffffffff021916908373ffffffffffffffffffffffffffffffffffffffff16021790555050565b6000600284815481101515610c6a57fe5b9060005260206000209060040201905060006004600086815260200190815260200160002081905550610cab60018260010154610e6990919063ffffffff16565b816001018190555060006004600086815260200190815260200160002054905060008260010154905060008490506000610ced610ce86064610e8a565b610f32565b90506000610d03610cfe6064610e8a565b610f32565b90506000610d19610d146064610e8a565b610f32565b90506000818385010190507f21b3d33e44b6bf2f026e5f1b9c76c6704d3e46a271dd870989ba5c8656aaba018b87868686868d6040518088815260200187815260200186815260200185815260200184815260200183815260200182815260200197505050505050505060405180910390a18981101515610e345760008590506003871415610e15576000896001018190555060008960030160006101000a81548160ff0219169083151502179055503373ffffffffffffffffffffffffffffffffffffffff166108fc829081150290604051600060405180830381858888f19350505050158015610e0f573d6000803e3d6000fd5b50610e2e565b85600460008e8152602001908152602001600020819055505b50610e5c565b6000886001018190555060008860030160006101000a81548160ff0219169083151502179055505b5050505050505050505050565b6000808284019050838110151515610e8057600080fd5b8091505092915050565b6000610ea26001600854610e6990919063ffffffff16565b600881905550814233600854604051602001808481526020018373ffffffffffffffffffffffffffffffffffffffff1673ffffffffffffffffffffffffffffffffffffffff166c0100000000000000000000000002815260140182815260200193505050506040516020818303038152906040528051906020012060019004811515610f2a57fe5b069050919050565b60007f6f412c727e1597d6c3ae2306971f44bdbf2360b1e377440659b855b6ad834968826040518082815260200191505060405180910390a1600d821015610f7d5760199050611057565b600d8210158015610f8e5750601982105b15610f9c5760239050611057565b60198210158015610fad5750602a82105b15610fbb5760329050611057565b602a8210158015610fcc5750603b82105b15610fda57604b9050611057565b603b8210158015610feb5750604782105b15610ff95760649050611057565b6047821015801561100a5750605382105b156110185760969050611057565b605382101580156110295750605882105b156110375760fa9050611057565b611054600a611046601e610e8a565b61105c90919063ffffffff16565b90505b919050565b60008083141561106f5760009050611094565b6000828402905082848281151561108257fe5b0414151561108f57600080fd5b809150505b9291505056fea165627a7a7230582033fca916cb3477d0f51f9621ae2a6e1e74324ef6e3219ca16c1150dee262ac700029",
  "source": "pragma solidity ^0.5.0;\n\nimport \"./EtherDrive.sol\";\n\ncontract  EtherWheel is EtherDrive {\n\nusing SafeMath for uint256;\n\nevent RoundResults(uint userId, uint roundNumber, uint spinOne, uint spinTwo, uint spinThree, uint roundScore, uint totalWinnings);\nevent SpinLanding(uint spinresult);\n\n  uint randNonce = 0;\n  uint roundOneGoal = 250;\n  uint roundTwoGoal = 400;\n  uint roundThreeGoal = 500;\n\n  uint roundOneReward = 10;\n  uint roundTwoReward = 20;\n  uint roundThreeReward = 15;\n\n  // Possible Spin Values\n  uint8 twentyFive = 25;\n  uint8 thirtyFive = 35;\n  uint8 fifty = 50;\n  uint8 seventyFive = 75;\n  uint8 oneHundred = 100;\n  uint8 oneFifty = 150;\n  uint8 twoHundred = 200;\n\n\n  function randMod(uint _modulus) internal returns(uint) {\n    randNonce = randNonce.add(1);\n    return uint(keccak256(abi.encodePacked(now, msg.sender, randNonce))) % _modulus;\n  }\n\n\n  function spinWheel(uint _userId, uint _scoreToWin, uint _roundReward) internal {\n    Player storage currentPlayer = players[_userId];\n    idToCreditBalance[_userId] = 0;\n    currentPlayer.roundCount = currentPlayer.roundCount.add(1);\n    uint totalWinnigs = idToCreditBalance[_userId];\n    uint roundNumber = currentPlayer.roundCount;\n    uint roundReward = _roundReward;\n    uint spinOnePoints = getRoundScore(randMod(100));\n    uint spinTwoPoints = getRoundScore(randMod(100));\n    uint spinThreePoints = getRoundScore(randMod(100));\n    uint _roundScore = spinOnePoints + spinTwoPoints + spinThreePoints;\n\n    emit RoundResults(_userId, roundNumber, spinOnePoints, spinTwoPoints, spinThreePoints, _roundScore, totalWinnigs);\n    if(_roundScore >= _scoreToWin){\n        uint amount = roundReward;\n        if(roundNumber == 3){\n            currentPlayer.roundCount = 0;\n            currentPlayer.paid = false;\n            msg.sender.transfer(amount);\n\n        } else {\n            idToCreditBalance[_userId] = roundReward;\n        }\n    } else {\n        currentPlayer.roundCount = 0;\n        currentPlayer.paid = false;\n    }\n\n    }\n\n\n    function checkRound(uint _userId) public onlyPlayer(_userId){\n      Player storage currentPlayer = players[_userId];\n      if(currentPlayer.roundCount ==  0) {\n        spinWheel(_userId, roundOneGoal, roundOneReward);\n      } else if(currentPlayer.roundCount ==  1) {\n        spinWheel(_userId, roundTwoGoal, roundTwoReward);\n      } else if(currentPlayer.roundCount ==  2) {\n        spinWheel(_userId, roundThreeGoal, roundThreeReward);\n      }\n    }\n\n    function getRoundScore(uint _spinNumber) private returns (uint){\n        emit SpinLanding(_spinNumber);\n      if (_spinNumber < 13) {\n        return 25;\n      } else if (_spinNumber >= 13 && _spinNumber < 25){\n        return 35;\n      } else if (_spinNumber >= 25 && _spinNumber < 42){\n        return 50;\n      } else if (_spinNumber >= 42 && _spinNumber < 59){\n        return 75;\n      } else if (_spinNumber >= 59 && _spinNumber < 71){\n        return 100;\n      } else if (_spinNumber >= 71 && _spinNumber < 83){\n        return 150;\n      } else if (_spinNumber >= 83 && _spinNumber < 88){\n        return 250;\n      } else {\n        return randMod(30).mul(10);\n      }\n    }\n\n// Functions for owner to set round goal amounts\n    function setRoundOneGoal(uint _goal) external onlyOwner {\n    roundOneGoal = _goal;\n  }\n\n  function setRoundTwoGoal(uint _goal) external onlyOwner {\n    roundTwoGoal = _goal;\n  }\n\n  function setRoundThreeGoal(uint _goal) external onlyOwner {\n    roundThreeGoal = _goal;\n  }\n\n// Functions for owner to change round reward amounts\n  function setRoundOneReward(uint _reward) external onlyOwner {\n    roundOneReward = _reward;\n  }\n\n   function setRoundTwoReward(uint _reward) external onlyOwner {\n    roundTwoReward = _reward;\n  }\n\n   function setRoundThreeReward(uint _reward) external onlyOwner {\n    roundThreeReward = _reward;\n  }\n\n//   Function for owner to change the price to play\n    function setPriceToPlay(uint _price) external onlyOwner {\n     priceToPlay = _price;\n  }\n  }\n\n\n\n\n  /* function firstspinWheel(uint _userId) external onlyOwnerOf(_userId) {\n  Player storage currentPlayer = players[_userId];\n  uint rand = randMod(100) + randMod(.1);\n  if (rand <12.5) {\n    roundCreditBalance = myZombie.winCount.add(1);\n    myZombie.level = myZombie.level.add(1);\n    enemyZombie.lossCount = enemyZombie.lossCount.add(1);\n    feedAndMultiply(_zombieId, enemyZombie.dna, \"zombie\");\n  } else {\n    myZombie.lossCount = myZombie.lossCount.add(1);\n    enemyZombie.winCount = enemyZombie.winCount.add(1);\n    _triggerCooldown(myZombie);\n  }\n} */\n",
  "sourcePath": "/Users/connorpayne/code/EtherDrive/contracts/EtherWheel.sol",
  "compiler": {
    "name": "solc",
    "version": "0.5.0+commit.1d4f565a.Emscripten.clang"
  },
  "schemaVersion": "3.0.3",
  "updatedAt": "2019-03-19T19:09:16.441Z",
  "devdoc": {
    "methods": {
      "isOwner()": {
        "return": "true if `msg.sender` is the owner of the contract."
      },
      "owner()": {
        "return": "the address of the owner."
      },
      "renounceOwnership()": {
        "details": "Allows the current owner to relinquish control of the contract. It will not be possible to call the functions with the `onlyOwner` modifier anymore."
      },
      "transferOwnership(address)": {
        "details": "Allows the current owner to transfer control of the contract to a newOwner.",
        "params": {
          "newOwner": "The address to transfer ownership to."
        }
      }
    }
  },
  "userdoc": {
    "methods": {
      "renounceOwnership()": {
        "notice": "Renouncing ownership will leave the contract without an owner, thereby removing any functionality that is only available to the owner."
      }
    }
  }
}