{
  "contractName": "EtherDrive",
  "abi": [
    {
      "constant": false,
      "inputs": [],
      "name": "renounceOwnership",
      "outputs": [],
      "payable": false,
      "stateMutability": "nonpayable",
      "type": "function"
    },
    {
      "constant": true,
      "inputs": [],
      "name": "owner",
      "outputs": [
        {
          "name": "",
          "type": "address"
        }
      ],
      "payable": false,
      "stateMutability": "view",
      "type": "function"
    },
    {
      "constant": true,
      "inputs": [],
      "name": "isOwner",
      "outputs": [
        {
          "name": "",
          "type": "bool"
        }
      ],
      "payable": false,
      "stateMutability": "view",
      "type": "function"
    },
    {
      "constant": false,
      "inputs": [
        {
          "name": "newOwner",
          "type": "address"
        }
      ],
      "name": "transferOwnership",
      "outputs": [],
      "payable": false,
      "stateMutability": "nonpayable",
      "type": "function"
    },
    {
      "constant": true,
      "inputs": [
        {
          "name": "",
          "type": "uint256"
        }
      ],
      "name": "players",
      "outputs": [
        {
          "name": "account",
          "type": "address"
        },
        {
          "name": "roundCount",
          "type": "uint256"
        },
        {
          "name": "roundScore",
          "type": "uint256"
        },
        {
          "name": "paid",
          "type": "bool"
        }
      ],
      "payable": false,
      "stateMutability": "view",
      "type": "function"
    },
    {
      "anonymous": false,
      "inputs": [
        {
          "indexed": false,
          "name": "userId",
          "type": "uint256"
        }
      ],
      "name": "NewPlayer",
      "type": "event"
    },
    {
      "anonymous": false,
      "inputs": [
        {
          "indexed": true,
          "name": "previousOwner",
          "type": "address"
        },
        {
          "indexed": true,
          "name": "newOwner",
          "type": "address"
        }
      ],
      "name": "OwnershipTransferred",
      "type": "event"
    },
    {
      "constant": false,
      "inputs": [
        {
          "name": "_amount",
          "type": "uint256"
        }
      ],
      "name": "deposit",
      "outputs": [],
      "payable": true,
      "stateMutability": "payable",
      "type": "function"
    },
    {
      "constant": true,
      "inputs": [],
      "name": "testConnection",
      "outputs": [
        {
          "name": "",
          "type": "uint256"
        }
      ],
      "payable": false,
      "stateMutability": "pure",
      "type": "function"
    },
    {
      "constant": false,
      "inputs": [],
      "name": "payToPlay",
      "outputs": [],
      "payable": true,
      "stateMutability": "payable",
      "type": "function"
    },
    {
      "constant": true,
      "inputs": [],
      "name": "getCreditedAmount",
      "outputs": [
        {
          "name": "",
          "type": "uint256"
        }
      ],
      "payable": false,
      "stateMutability": "view",
      "type": "function"
    },
    {
      "constant": true,
      "inputs": [
        {
          "name": "_userId",
          "type": "uint256"
        }
      ],
      "name": "getRoundCount",
      "outputs": [
        {
          "name": "",
          "type": "uint256"
        }
      ],
      "payable": false,
      "stateMutability": "view",
      "type": "function"
    },
    {
      "constant": true,
      "inputs": [],
      "name": "isAccountActivated",
      "outputs": [
        {
          "name": "",
          "type": "bool"
        }
      ],
      "payable": false,
      "stateMutability": "view",
      "type": "function"
    },
    {
      "constant": true,
      "inputs": [],
      "name": "getPlayerId",
      "outputs": [
        {
          "name": "",
          "type": "uint256"
        }
      ],
      "payable": false,
      "stateMutability": "view",
      "type": "function"
    },
    {
      "constant": true,
      "inputs": [],
      "name": "getPriceToPlay",
      "outputs": [
        {
          "name": "",
          "type": "uint256"
        }
      ],
      "payable": false,
      "stateMutability": "view",
      "type": "function"
    }
  ],
  "bytecode": "0x6080604052600a600155336000806101000a81548173ffffffffffffffffffffffffffffffffffffffff021916908373ffffffffffffffffffffffffffffffffffffffff1602179055506000809054906101000a900473ffffffffffffffffffffffffffffffffffffffff1673ffffffffffffffffffffffffffffffffffffffff16600073ffffffffffffffffffffffffffffffffffffffff167f8be0079c531659141344cd1fd0a4f28419497f9722a3daafe3b4186f6b6457e060405160405180910390a36107f3806100d46000396000f3fe6080604052600436106100c5576000357c0100000000000000000000000000000000000000000000000000000000900463ffffffff1680630e1930c3146100ca5780633412a15c146100f95780633e5edbd314610124578063715018a61461012e5780637c1ebbb6146101455780638da5cb5b146101705780638f32d59b146101c7578063ac436660146101f6578063b12decb014610221578063b6b55f2514610270578063f2fde38b1461029e578063f71d96cb146102ef578063f80f270114610383575b600080fd5b3480156100d657600080fd5b506100df6103ae565b604051808215151515815260200191505060405180910390f35b34801561010557600080fd5b5061010e610402565b6040518082815260200191505060405180910390f35b61012c61040b565b005b34801561013a57600080fd5b5061014361041d565b005b34801561015157600080fd5b5061015a6104ef565b6040518082815260200191505060405180910390f35b34801561017c57600080fd5b506101856104f9565b604051808273ffffffffffffffffffffffffffffffffffffffff1673ffffffffffffffffffffffffffffffffffffffff16815260200191505060405180910390f35b3480156101d357600080fd5b506101dc610522565b604051808215151515815260200191505060405180910390f35b34801561020257600080fd5b5061020b610579565b6040518082815260200191505060405180910390f35b34801561022d57600080fd5b5061025a6004803603602081101561024457600080fd5b81019080803590602001909291905050506105c0565b6040518082815260200191505060405180910390f35b61029c6004803603602081101561028657600080fd5b81019080803590602001909291905050506105ea565b005b3480156102aa57600080fd5b506102ed600480360360208110156102c157600080fd5b81019080803573ffffffffffffffffffffffffffffffffffffffff1690602001909291905050506105fb565b005b3480156102fb57600080fd5b506103286004803603602081101561031257600080fd5b810190808035906020019092919050505061061a565b604051808573ffffffffffffffffffffffffffffffffffffffff1673ffffffffffffffffffffffffffffffffffffffff1681526020018481526020018381526020018215151515815260200194505050505060405180910390f35b34801561038f57600080fd5b50610398610686565b6040518082815260200191505060405180910390f35b6000600560003373ffffffffffffffffffffffffffffffffffffffff1673ffffffffffffffffffffffffffffffffffffffff16815260200190815260200160002060009054906101000a900460ff16905090565b60006064905090565b6001543414151561041b57600080fd5b565b610425610522565b151561043057600080fd5b600073ffffffffffffffffffffffffffffffffffffffff166000809054906101000a900473ffffffffffffffffffffffffffffffffffffffff1673ffffffffffffffffffffffffffffffffffffffff167f8be0079c531659141344cd1fd0a4f28419497f9722a3daafe3b4186f6b6457e060405160405180910390a360008060006101000a81548173ffffffffffffffffffffffffffffffffffffffff021916908373ffffffffffffffffffffffffffffffffffffffff160217905550565b6000600154905090565b60008060009054906101000a900473ffffffffffffffffffffffffffffffffffffffff16905090565b60008060009054906101000a900473ffffffffffffffffffffffffffffffffffffffff1673ffffffffffffffffffffffffffffffffffffffff163373ffffffffffffffffffffffffffffffffffffffff1614905090565b6000600760003373ffffffffffffffffffffffffffffffffffffffff1673ffffffffffffffffffffffffffffffffffffffff16815260200190815260200160002054905090565b60006002828154811015156105d157fe5b9060005260206000209060040201600101549050919050565b80341415156105f857600080fd5b50565b610603610522565b151561060e57600080fd5b610617816106cd565b50565b60028181548110151561062957fe5b90600052602060002090600402016000915090508060000160009054906101000a900473ffffffffffffffffffffffffffffffffffffffff16908060010154908060020154908060030160009054906101000a900460ff16905084565b6000600460003373ffffffffffffffffffffffffffffffffffffffff1673ffffffffffffffffffffffffffffffffffffffff16815260200190815260200160002054905090565b600073ffffffffffffffffffffffffffffffffffffffff168173ffffffffffffffffffffffffffffffffffffffff161415151561070957600080fd5b8073ffffffffffffffffffffffffffffffffffffffff166000809054906101000a900473ffffffffffffffffffffffffffffffffffffffff1673ffffffffffffffffffffffffffffffffffffffff167f8be0079c531659141344cd1fd0a4f28419497f9722a3daafe3b4186f6b6457e060405160405180910390a3806000806101000a81548173ffffffffffffffffffffffffffffffffffffffff021916908373ffffffffffffffffffffffffffffffffffffffff1602179055505056fea165627a7a72305820503955ddd61c3353af4058ec426eefb66f627574ce407a8a1e975748ee67eca30029",
  "source": "pragma solidity ^0.5.0;\n\nimport \"./Ownable.sol\";\nimport \"./SafeMath.sol\";\n\ncontract EtherDrive is Ownable{\n\n  event NewPlayer(uint userId);\n\n  struct Player {\n    address account;\n    uint roundCount;\n    uint roundScore;\n    bool paid;\n  }\n\n\n    uint priceToPlay = 10;\n\n\n  Player[] public players;\n\n   mapping(address => uint) balanceOf;\n   mapping(address => uint) addressToCreditBalance;\n   mapping(address => bool) activated;\n   mapping(uint => address) idToPlayer;\n   mapping(address => uint) addressToId;\n\n\n   modifier onlyPlayer(uint _userId) {\n    require(msg.sender == idToPlayer[_userId]);\n    _;\n  }\n\n  function createPlayer(address _userAccount) internal {\n    uint userId = players.push(Player(_userAccount,  0, 0, false)) - 1 ;\n    activated[_userAccount] = true;\n    idToPlayer[userId] = _userAccount;\n    addressToCreditBalance[_userAccount] = 0;\n    addressToId[_userAccount] = userId;\n    emit NewPlayer(userId);\n  }\n\n//   function testCreatePlayer(address _userAccount) public {\n//     uint userId = players.push(Player(_userAccount,  0, 0, false)) ;\n//     emit NewPlayer(userId);\n//   }\n\n    function deposit(uint256 _amount) payable public {\n        require(msg.value == _amount);\n    }\n// /* Only owner of contract can withdraw */\n//     function withdraw() external onlyOwner {\n//     address _owner = owner();\n//     _owner.transfer(address(this).balance);\n//   }\n\n/* Need to customize this to changing priceToPlay, roundGoals and roundRewards */\n  /* function setLevelUpFee(uint _fee) external onlyOwner {\n      levelUpFee = _fee;\n    } */\n\n     function testConnection () public pure returns (uint){\n        return 100;\n         }\n\n    function payToPlay () public payable {\n        require (msg.value == priceToPlay);\n         }\n\n    function getCreditedAmount() public view returns (uint){\n        return addressToCreditBalance[msg.sender];\n    }\n\n    function getRoundCount(uint _userId) public view returns (uint) {\n        return players[_userId].roundCount;\n    }\n\n    function isAccountActivated() public view returns (bool){\n        return (activated[msg.sender]);\n    }\n\n    function getPlayerId() public view returns (uint) {\n        return addressToId[msg.sender];\n    }\n\n    function getPriceToPlay() public view returns (uint) {\n        return priceToPlay;\n    }\n\n}\n",
  "sourcePath": "/Users/connorpayne/code/EtherDrive/contracts/EtherDrive.sol",
  "compiler": {
    "name": "solc",
    "version": "0.5.0+commit.1d4f565a.Emscripten.clang"
  },
  "schemaVersion": "3.0.3",
  "updatedAt": "2019-03-21T12:36:28.008Z",
  "devdoc": {
    "methods": {
      "isOwner()": {
        "return": "true if `msg.sender` is the owner of the contract."
      },
      "owner()": {
        "return": "the address of the owner."
      },
      "renounceOwnership()": {
        "details": "Allows the current owner to relinquish control of the contract. It will not be possible to call the functions with the `onlyOwner` modifier anymore."
      },
      "transferOwnership(address)": {
        "details": "Allows the current owner to transfer control of the contract to a newOwner.",
        "params": {
          "newOwner": "The address to transfer ownership to."
        }
      }
    }
  },
  "userdoc": {
    "methods": {
      "renounceOwnership()": {
        "notice": "Renouncing ownership will leave the contract without an owner, thereby removing any functionality that is only available to the owner."
      }
    }
  }
}