{
  "contractName": "EtherWheel",
  "abi": [
    {
      "constant": false,
      "inputs": [],
      "name": "payToPlay",
      "outputs": [],
      "payable": true,
      "stateMutability": "payable",
      "type": "function",
      "signature": "0x3e5edbd3"
    },
    {
      "constant": false,
      "inputs": [],
      "name": "renounceOwnership",
      "outputs": [],
      "payable": false,
      "stateMutability": "nonpayable",
      "type": "function",
      "signature": "0x715018a6"
    },
    {
      "constant": true,
      "inputs": [],
      "name": "owner",
      "outputs": [
        {
          "name": "",
          "type": "address"
        }
      ],
      "payable": false,
      "stateMutability": "view",
      "type": "function",
      "signature": "0x8da5cb5b"
    },
    {
      "constant": true,
      "inputs": [],
      "name": "isOwner",
      "outputs": [
        {
          "name": "",
          "type": "bool"
        }
      ],
      "payable": false,
      "stateMutability": "view",
      "type": "function",
      "signature": "0x8f32d59b"
    },
    {
      "constant": false,
      "inputs": [
        {
          "name": "_amount",
          "type": "uint256"
        }
      ],
      "name": "deposit",
      "outputs": [],
      "payable": true,
      "stateMutability": "payable",
      "type": "function",
      "signature": "0xb6b55f25"
    },
    {
      "constant": false,
      "inputs": [],
      "name": "_createPlayer",
      "outputs": [],
      "payable": false,
      "stateMutability": "nonpayable",
      "type": "function",
      "signature": "0xf02b1e8b"
    },
    {
      "constant": false,
      "inputs": [
        {
          "name": "newOwner",
          "type": "address"
        }
      ],
      "name": "transferOwnership",
      "outputs": [],
      "payable": false,
      "stateMutability": "nonpayable",
      "type": "function",
      "signature": "0xf2fde38b"
    },
    {
      "constant": true,
      "inputs": [
        {
          "name": "",
          "type": "uint256"
        }
      ],
      "name": "players",
      "outputs": [
        {
          "name": "account",
          "type": "address"
        },
        {
          "name": "roundCount",
          "type": "uint256"
        },
        {
          "name": "roundScore",
          "type": "uint256"
        },
        {
          "name": "paid",
          "type": "bool"
        }
      ],
      "payable": false,
      "stateMutability": "view",
      "type": "function",
      "signature": "0xf71d96cb"
    },
    {
      "anonymous": false,
      "inputs": [
        {
          "indexed": false,
          "name": "userId",
          "type": "uint256"
        },
        {
          "indexed": false,
          "name": "roundNumber",
          "type": "uint256"
        },
        {
          "indexed": false,
          "name": "spinOne",
          "type": "uint256"
        },
        {
          "indexed": false,
          "name": "spinTwo",
          "type": "uint256"
        },
        {
          "indexed": false,
          "name": "spinThree",
          "type": "uint256"
        },
        {
          "indexed": false,
          "name": "roundScore",
          "type": "uint256"
        }
      ],
      "name": "RoundResults",
      "type": "event",
      "signature": "0xe0b567f256a5601a57602f8a6dab7faba423582f0959e5f429bcdf3b09909483"
    },
    {
      "anonymous": false,
      "inputs": [
        {
          "indexed": false,
          "name": "spinresult",
          "type": "uint256"
        }
      ],
      "name": "SpinLanding",
      "type": "event",
      "signature": "0x6f412c727e1597d6c3ae2306971f44bdbf2360b1e377440659b855b6ad834968"
    },
    {
      "anonymous": false,
      "inputs": [
        {
          "indexed": false,
          "name": "userId",
          "type": "uint256"
        }
      ],
      "name": "NewPlayer",
      "type": "event",
      "signature": "0xf4dd1db653a1088522e9ca377c4d54a81fc4c56ca3183a81caf1303eda7e1a95"
    },
    {
      "anonymous": false,
      "inputs": [
        {
          "indexed": true,
          "name": "previousOwner",
          "type": "address"
        },
        {
          "indexed": true,
          "name": "newOwner",
          "type": "address"
        }
      ],
      "name": "OwnershipTransferred",
      "type": "event",
      "signature": "0x8be0079c531659141344cd1fd0a4f28419497f9722a3daafe3b4186f6b6457e0"
    },
    {
      "constant": false,
      "inputs": [
        {
          "name": "_userId",
          "type": "uint256"
        }
      ],
      "name": "checkRound",
      "outputs": [],
      "payable": false,
      "stateMutability": "nonpayable",
      "type": "function",
      "signature": "0xf4b19eff"
    }
  ],
  "bytecode": "0x6080604052600a600155600060085560fa6009556101c2600a556101f4600b55600a600c556014600d55600f600e556019600f60006101000a81548160ff021916908360ff1602179055506023600f60016101000a81548160ff021916908360ff1602179055506032600f60026101000a81548160ff021916908360ff160217905550604b600f60036101000a81548160ff021916908360ff1602179055506064600f60046101000a81548160ff021916908360ff1602179055506096600f60056101000a81548160ff021916908360ff16021790555060c8600f60066101000a81548160ff021916908360ff160217905550336000806101000a81548173ffffffffffffffffffffffffffffffffffffffff021916908373ffffffffffffffffffffffffffffffffffffffff1602179055506000809054906101000a900473ffffffffffffffffffffffffffffffffffffffff1673ffffffffffffffffffffffffffffffffffffffff16600073ffffffffffffffffffffffffffffffffffffffff167f8be0079c531659141344cd1fd0a4f28419497f9722a3daafe3b4186f6b6457e060405160405180910390a3610d9d806101bd6000396000f3fe608060405260043610610099576000357c0100000000000000000000000000000000000000000000000000000000900463ffffffff1680633e5edbd31461009e578063715018a6146100a85780638da5cb5b146100bf5780638f32d59b14610116578063b6b55f2514610145578063f02b1e8b14610173578063f2fde38b1461018a578063f4b19eff146101db578063f71d96cb14610216575b600080fd5b6100a66102aa565b005b3480156100b457600080fd5b506100bd6102bc565b005b3480156100cb57600080fd5b506100d461038e565b604051808273ffffffffffffffffffffffffffffffffffffffff1673ffffffffffffffffffffffffffffffffffffffff16815260200191505060405180910390f35b34801561012257600080fd5b5061012b6103b7565b604051808215151515815260200191505060405180910390f35b6101716004803603602081101561015b57600080fd5b810190808035906020019092919050505061040e565b005b34801561017f57600080fd5b5061018861041f565b005b34801561019657600080fd5b506101d9600480360360208110156101ad57600080fd5b81019080803573ffffffffffffffffffffffffffffffffffffffff1690602001909291905050506106b3565b005b3480156101e757600080fd5b50610214600480360360208110156101fe57600080fd5b81019080803590602001909291905050506106d2565b005b34801561022257600080fd5b5061024f6004803603602081101561023957600080fd5b81019080803590602001909291905050506107eb565b604051808573ffffffffffffffffffffffffffffffffffffffff1673ffffffffffffffffffffffffffffffffffffffff1681526020018481526020018381526020018215151515815260200194505050505060405180910390f35b600154341415156102ba57600080fd5b565b6102c46103b7565b15156102cf57600080fd5b600073ffffffffffffffffffffffffffffffffffffffff166000809054906101000a900473ffffffffffffffffffffffffffffffffffffffff1673ffffffffffffffffffffffffffffffffffffffff167f8be0079c531659141344cd1fd0a4f28419497f9722a3daafe3b4186f6b6457e060405160405180910390a360008060006101000a81548173ffffffffffffffffffffffffffffffffffffffff021916908373ffffffffffffffffffffffffffffffffffffffff160217905550565b60008060009054906101000a900473ffffffffffffffffffffffffffffffffffffffff16905090565b60008060009054906101000a900473ffffffffffffffffffffffffffffffffffffffff1673ffffffffffffffffffffffffffffffffffffffff163373ffffffffffffffffffffffffffffffffffffffff1614905090565b803414151561041c57600080fd5b50565b60003390506000600560003373ffffffffffffffffffffffffffffffffffffffff1673ffffffffffffffffffffffffffffffffffffffff16815260200190815260200160002060009054906101000a900460ff1660ff1614151561048257600080fd5b6000600160026080604051908101604052808573ffffffffffffffffffffffffffffffffffffffff1681526020016000815260200160008152602001600015158152509080600181540180825580915050906001820390600052602060002090600402016000909192909190915060008201518160000160006101000a81548173ffffffffffffffffffffffffffffffffffffffff021916908373ffffffffffffffffffffffffffffffffffffffff160217905550602082015181600101556040820151816002015560608201518160030160006101000a81548160ff02191690831515021790555050500390506001600560003373ffffffffffffffffffffffffffffffffffffffff1673ffffffffffffffffffffffffffffffffffffffff16815260200190815260200160002060006101000a81548160ff021916908360ff160217905550336006600083815260200190815260200160002060006101000a81548173ffffffffffffffffffffffffffffffffffffffff021916908373ffffffffffffffffffffffffffffffffffffffff1602179055506000600460008381526020019081526020016000208190555080600760003373ffffffffffffffffffffffffffffffffffffffff1673ffffffffffffffffffffffffffffffffffffffff168152602001908152602001600020819055507ff4dd1db653a1088522e9ca377c4d54a81fc4c56ca3183a81caf1303eda7e1a95816040518082815260200191505060405180910390a15050565b6106bb6103b7565b15156106c657600080fd5b6106cf81610857565b50565b806006600082815260200190815260200160002060009054906101000a900473ffffffffffffffffffffffffffffffffffffffff1673ffffffffffffffffffffffffffffffffffffffff163373ffffffffffffffffffffffffffffffffffffffff1614151561074057600080fd5b600060028381548110151561075157fe5b90600052602060002090600402019050600115158160030160009054906101000a900460ff16151514151561078557600080fd5b6000816001015414156107a6576107a183600954600c54610951565b6107e6565b6001816001015414156107c7576107c283600a54600d54610951565b6107e5565b6002816001015414156107e4576107e383600b54600e54610951565b5b5b5b505050565b6002818154811015156107fa57fe5b90600052602060002090600402016000915090508060000160009054906101000a900473ffffffffffffffffffffffffffffffffffffffff16908060010154908060020154908060030160009054906101000a900460ff16905084565b600073ffffffffffffffffffffffffffffffffffffffff168173ffffffffffffffffffffffffffffffffffffffff161415151561089357600080fd5b8073ffffffffffffffffffffffffffffffffffffffff166000809054906101000a900473ffffffffffffffffffffffffffffffffffffffff1673ffffffffffffffffffffffffffffffffffffffff167f8be0079c531659141344cd1fd0a4f28419497f9722a3daafe3b4186f6b6457e060405160405180910390a3806000806101000a81548173ffffffffffffffffffffffffffffffffffffffff021916908373ffffffffffffffffffffffffffffffffffffffff16021790555050565b600060028481548110151561096257fe5b90600052602060002090600402019050600060046000868152602001908152602001600020819055506109a360018260010154610b4090919063ffffffff16565b8160010181905550600081600101549050600083905060006109cd6109c86064610b61565b610c09565b905060006109e36109de6064610b61565b610c09565b905060006109f96109f46064610b61565b610c09565b90506000818385010190507fe0b567f256a5601a57602f8a6dab7faba423582f0959e5f429bcdf3b099094838a878686868660405180878152602001868152602001858152602001848152602001838152602001828152602001965050505050505060405180910390a18881101515610b0c5760008590506003871415610aed576000886001018190555060008860030160006101000a81548160ff0219169083151502179055503373ffffffffffffffffffffffffffffffffffffffff166108fc829081150290604051600060405180830381858888f19350505050158015610ae7573d6000803e3d6000fd5b50610b06565b85600460008d8152602001908152602001600020819055505b50610b34565b6000876001018190555060008760030160006101000a81548160ff0219169083151502179055505b50505050505050505050565b6000808284019050838110151515610b5757600080fd5b8091505092915050565b6000610b796001600854610b4090919063ffffffff16565b600881905550814233600854604051602001808481526020018373ffffffffffffffffffffffffffffffffffffffff1673ffffffffffffffffffffffffffffffffffffffff166c0100000000000000000000000002815260140182815260200193505050506040516020818303038152906040528051906020012060019004811515610c0157fe5b069050919050565b60007f6f412c727e1597d6c3ae2306971f44bdbf2360b1e377440659b855b6ad834968826040518082815260200191505060405180910390a1600d821015610c545760199050610d2e565b600d8210158015610c655750601982105b15610c735760239050610d2e565b60198210158015610c845750602a82105b15610c925760329050610d2e565b602a8210158015610ca35750603b82105b15610cb157604b9050610d2e565b603b8210158015610cc25750604782105b15610cd05760649050610d2e565b60478210158015610ce15750605382105b15610cef5760969050610d2e565b60538210158015610d005750605882105b15610d0e5760fa9050610d2e565b610d2b600a610d1d601e610b61565b610d3390919063ffffffff16565b90505b919050565b600080831415610d465760009050610d6b565b60008284029050828482811515610d5957fe5b04141515610d6657600080fd5b809150505b9291505056fea165627a7a7230582030dc04e1594997b97c1bb65c365f1f14d52564c09318d1a437c0a1fb41f676340029",
  "source": "pragma solidity ^0.5.0;\n\nimport \"./EtherDrive.sol\";\n\ncontract  EtherWheel is EtherDrive {\n\nusing SafeMath for uint256;\n\nevent RoundResults(uint userId, uint roundNumber, uint spinOne, uint spinTwo, uint spinThree, uint roundScore);\nevent SpinLanding(uint spinresult);\n\n  uint randNonce = 0;\n  uint roundOneGoal = 250;\n  uint roundTwoGoal = 450;\n  uint roundThreeGoal = 500;\n\n  uint roundOneReward = 10;\n  uint roundTwoReward = 20;\n  uint roundThreeReward = 15;\n\n  // Possible Spin Values\n  uint8 twentyFive = 25;\n  uint8 thirtyFive = 35;\n  uint8 fifty = 50;\n  uint8 seventyFive = 75;\n  uint8 oneHundred = 100;\n  uint8 oneFifty = 150;\n  uint8 twoHundred = 200;\n\n\n  function randMod(uint _modulus) internal returns(uint) {\n    randNonce = randNonce.add(1);\n    return uint(keccak256(abi.encodePacked(now, msg.sender, randNonce))) % _modulus;\n  }\n\n\n  function spinWheel(uint _userId, uint _scoreToWin, uint _roundReward) internal {\n    Player storage currentPlayer = players[_userId];\n    idToCreditBalance[_userId] = 0;\n    currentPlayer.roundCount = currentPlayer.roundCount.add(1);\n    uint roundNumber = currentPlayer.roundCount;\n    uint roundReward = _roundReward;\n    uint spinOnePoints = getRoundScore(randMod(100));\n    uint spinTwoPoints = getRoundScore(randMod(100));\n    uint spinThreePoints = getRoundScore(randMod(100));\n    uint _roundScore = spinOnePoints + spinTwoPoints + spinThreePoints;\n\n    emit RoundResults(_userId, roundNumber, spinOnePoints, spinTwoPoints, spinThreePoints, _roundScore);\n    if(_roundScore >= _scoreToWin){\n        uint amount = roundReward;\n        if(roundNumber == 3){\n            currentPlayer.roundCount = 0;\n            currentPlayer.paid = false;\n            msg.sender.transfer(amount);\n\n        } else {\n            idToCreditBalance[_userId] = roundReward;\n        }\n    } else {\n        currentPlayer.roundCount = 0;\n        currentPlayer.paid = false;\n    }\n\n    }\n\n\n    function checkRound(uint _userId) public onlyPlayer(_userId){\n      Player storage currentPlayer = players[_userId];\n      require(currentPlayer.paid == true);\n      if(currentPlayer.roundCount ==  0) {\n        spinWheel(_userId, roundOneGoal, roundOneReward);\n      } else if(currentPlayer.roundCount ==  1) {\n        spinWheel(_userId, roundTwoGoal, roundTwoReward);\n      } else if(currentPlayer.roundCount ==  2) {\n        spinWheel(_userId, roundThreeGoal, roundThreeReward);\n      }\n    }\n\n    function getRoundScore(uint _spinNumber) private returns (uint){\n        emit SpinLanding(_spinNumber);\n      if (_spinNumber < 13) {\n        return 25;\n      } else if (_spinNumber >= 13 && _spinNumber < 25){\n        return 35;\n      } else if (_spinNumber >= 25 && _spinNumber < 42){\n        return 50;\n      } else if (_spinNumber >= 42 && _spinNumber < 59){\n        return 75;\n      } else if (_spinNumber >= 59 && _spinNumber < 71){\n        return 100;\n      } else if (_spinNumber >= 71 && _spinNumber < 83){\n        return 150;\n      } else if (_spinNumber >= 83 && _spinNumber < 88){\n        return 250;\n      } else {\n        return randMod(30).mul(10);\n      }\n    }\n\n\n\n  }\n\n\n\n\n  /* function firstspinWheel(uint _userId) external onlyOwnerOf(_userId) {\n  Player storage currentPlayer = players[_userId];\n  uint rand = randMod(100) + randMod(.1);\n  if (rand <12.5) {\n    roundCreditBalance = myZombie.winCount.add(1);\n    myZombie.level = myZombie.level.add(1);\n    enemyZombie.lossCount = enemyZombie.lossCount.add(1);\n    feedAndMultiply(_zombieId, enemyZombie.dna, \"zombie\");\n  } else {\n    myZombie.lossCount = myZombie.lossCount.add(1);\n    enemyZombie.winCount = enemyZombie.winCount.add(1);\n    _triggerCooldown(myZombie);\n  }\n} */\n",
  "sourcePath": "/Users/connorpayne/code/EtherDrive/contracts/EtherWheel.sol",
  "compiler": {
    "name": "solc",
    "version": "0.5.0+commit.1d4f565a.Emscripten.clang"
  },
  "schemaVersion": "3.0.3",
  "updatedAt": "2019-03-18T21:35:13.770Z",
  "devdoc": {
    "methods": {
      "isOwner()": {
        "return": "true if `msg.sender` is the owner of the contract."
      },
      "owner()": {
        "return": "the address of the owner."
      },
      "renounceOwnership()": {
        "details": "Allows the current owner to relinquish control of the contract. It will not be possible to call the functions with the `onlyOwner` modifier anymore."
      },
      "transferOwnership(address)": {
        "details": "Allows the current owner to transfer control of the contract to a newOwner.",
        "params": {
          "newOwner": "The address to transfer ownership to."
        }
      }
    }
  },
  "userdoc": {
    "methods": {
      "renounceOwnership()": {
        "notice": "Renouncing ownership will leave the contract without an owner, thereby removing any functionality that is only available to the owner."
      }
    }
  }
}