{
  "contractName": "EtherDrive",
  "abi": [
    {
      "constant": false,
      "inputs": [],
      "name": "renounceOwnership",
      "outputs": [],
      "payable": false,
      "stateMutability": "nonpayable",
      "type": "function"
    },
    {
      "constant": true,
      "inputs": [],
      "name": "owner",
      "outputs": [
        {
          "name": "",
          "type": "address"
        }
      ],
      "payable": false,
      "stateMutability": "view",
      "type": "function"
    },
    {
      "constant": true,
      "inputs": [],
      "name": "isOwner",
      "outputs": [
        {
          "name": "",
          "type": "bool"
        }
      ],
      "payable": false,
      "stateMutability": "view",
      "type": "function"
    },
    {
      "constant": false,
      "inputs": [
        {
          "name": "newOwner",
          "type": "address"
        }
      ],
      "name": "transferOwnership",
      "outputs": [],
      "payable": false,
      "stateMutability": "nonpayable",
      "type": "function"
    },
    {
      "constant": true,
      "inputs": [
        {
          "name": "",
          "type": "uint256"
        }
      ],
      "name": "players",
      "outputs": [
        {
          "name": "account",
          "type": "address"
        },
        {
          "name": "roundCount",
          "type": "uint256"
        },
        {
          "name": "roundScore",
          "type": "uint256"
        },
        {
          "name": "paid",
          "type": "bool"
        }
      ],
      "payable": false,
      "stateMutability": "view",
      "type": "function"
    },
    {
      "anonymous": false,
      "inputs": [
        {
          "indexed": false,
          "name": "userId",
          "type": "uint256"
        }
      ],
      "name": "NewPlayer",
      "type": "event"
    },
    {
      "anonymous": false,
      "inputs": [
        {
          "indexed": true,
          "name": "previousOwner",
          "type": "address"
        },
        {
          "indexed": true,
          "name": "newOwner",
          "type": "address"
        }
      ],
      "name": "OwnershipTransferred",
      "type": "event"
    },
    {
      "constant": false,
      "inputs": [],
      "name": "_createPlayer",
      "outputs": [],
      "payable": false,
      "stateMutability": "nonpayable",
      "type": "function"
    },
    {
      "constant": false,
      "inputs": [
        {
          "name": "_amount",
          "type": "uint256"
        }
      ],
      "name": "deposit",
      "outputs": [],
      "payable": true,
      "stateMutability": "payable",
      "type": "function"
    },
    {
      "constant": false,
      "inputs": [],
      "name": "payToPlay",
      "outputs": [],
      "payable": true,
      "stateMutability": "payable",
      "type": "function"
    },
    {
      "constant": true,
      "inputs": [
        {
          "name": "_userId",
          "type": "uint256"
        }
      ],
      "name": "getCreditedAmount",
      "outputs": [
        {
          "name": "",
          "type": "uint256"
        }
      ],
      "payable": false,
      "stateMutability": "view",
      "type": "function"
    },
    {
      "constant": true,
      "inputs": [
        {
          "name": "_userId",
          "type": "uint256"
        }
      ],
      "name": "getRoundCount",
      "outputs": [
        {
          "name": "",
          "type": "uint256"
        }
      ],
      "payable": false,
      "stateMutability": "view",
      "type": "function"
    },
    {
      "constant": true,
      "inputs": [],
      "name": "isAccountActivated",
      "outputs": [
        {
          "name": "",
          "type": "bool"
        }
      ],
      "payable": false,
      "stateMutability": "view",
      "type": "function"
    },
    {
      "constant": true,
      "inputs": [
        {
          "name": "_userAccount",
          "type": "address"
        }
      ],
      "name": "getPlayerId",
      "outputs": [
        {
          "name": "",
          "type": "uint256"
        }
      ],
      "payable": false,
      "stateMutability": "view",
      "type": "function"
    }
  ],
  "bytecode": "0x6080604052600a600155336000806101000a81548173ffffffffffffffffffffffffffffffffffffffff021916908373ffffffffffffffffffffffffffffffffffffffff1602179055506000809054906101000a900473ffffffffffffffffffffffffffffffffffffffff1673ffffffffffffffffffffffffffffffffffffffff16600073ffffffffffffffffffffffffffffffffffffffff167f8be0079c531659141344cd1fd0a4f28419497f9722a3daafe3b4186f6b6457e060405160405180910390a3610a9a806100d46000396000f3fe6080604052600436106100ba576000357c0100000000000000000000000000000000000000000000000000000000900463ffffffff1680630ade3982146100bf5780630e1930c31461010e5780633e5edbd31461013d578063715018a6146101475780638da5cb5b1461015e5780638f32d59b146101b5578063b12decb0146101e4578063b6b55f2514610233578063c4ae16a814610261578063f02b1e8b146102c6578063f2fde38b146102dd578063f71d96cb1461032e575b600080fd5b3480156100cb57600080fd5b506100f8600480360360208110156100e257600080fd5b81019080803590602001909291905050506103c2565b6040518082815260200191505060405180910390f35b34801561011a57600080fd5b506101236103df565b604051808215151515815260200191505060405180910390f35b610145610433565b005b34801561015357600080fd5b5061015c610445565b005b34801561016a57600080fd5b50610173610517565b604051808273ffffffffffffffffffffffffffffffffffffffff1673ffffffffffffffffffffffffffffffffffffffff16815260200191505060405180910390f35b3480156101c157600080fd5b506101ca610540565b604051808215151515815260200191505060405180910390f35b3480156101f057600080fd5b5061021d6004803603602081101561020757600080fd5b8101908080359060200190929190505050610597565b6040518082815260200191505060405180910390f35b61025f6004803603602081101561024957600080fd5b81019080803590602001909291905050506105c1565b005b34801561026d57600080fd5b506102b06004803603602081101561028457600080fd5b81019080803573ffffffffffffffffffffffffffffffffffffffff1690602001909291905050506105d2565b6040518082815260200191505060405180910390f35b3480156102d257600080fd5b506102db610655565b005b3480156102e957600080fd5b5061032c6004803603602081101561030057600080fd5b81019080803573ffffffffffffffffffffffffffffffffffffffff1690602001909291905050506108e9565b005b34801561033a57600080fd5b506103676004803603602081101561035157600080fd5b8101908080359060200190929190505050610908565b604051808573ffffffffffffffffffffffffffffffffffffffff1673ffffffffffffffffffffffffffffffffffffffff1681526020018481526020018381526020018215151515815260200194505050505060405180910390f35b600060046000838152602001908152602001600020549050919050565b6000600560003373ffffffffffffffffffffffffffffffffffffffff1673ffffffffffffffffffffffffffffffffffffffff16815260200190815260200160002060009054906101000a900460ff16905090565b6001543414151561044357600080fd5b565b61044d610540565b151561045857600080fd5b600073ffffffffffffffffffffffffffffffffffffffff166000809054906101000a900473ffffffffffffffffffffffffffffffffffffffff1673ffffffffffffffffffffffffffffffffffffffff167f8be0079c531659141344cd1fd0a4f28419497f9722a3daafe3b4186f6b6457e060405160405180910390a360008060006101000a81548173ffffffffffffffffffffffffffffffffffffffff021916908373ffffffffffffffffffffffffffffffffffffffff160217905550565b60008060009054906101000a900473ffffffffffffffffffffffffffffffffffffffff16905090565b60008060009054906101000a900473ffffffffffffffffffffffffffffffffffffffff1673ffffffffffffffffffffffffffffffffffffffff163373ffffffffffffffffffffffffffffffffffffffff1614905090565b60006002828154811015156105a857fe5b9060005260206000209060040201600101549050919050565b80341415156105cf57600080fd5b50565b60003373ffffffffffffffffffffffffffffffffffffffff168273ffffffffffffffffffffffffffffffffffffffff1614151561060e57600080fd5b600760008373ffffffffffffffffffffffffffffffffffffffff1673ffffffffffffffffffffffffffffffffffffffff168152602001908152602001600020549050919050565b60001515600560003373ffffffffffffffffffffffffffffffffffffffff1673ffffffffffffffffffffffffffffffffffffffff16815260200190815260200160002060009054906101000a900460ff1615151415156106b457600080fd5b60003390506000600160026080604051908101604052808573ffffffffffffffffffffffffffffffffffffffff1681526020016000815260200160008152602001600015158152509080600181540180825580915050906001820390600052602060002090600402016000909192909190915060008201518160000160006101000a81548173ffffffffffffffffffffffffffffffffffffffff021916908373ffffffffffffffffffffffffffffffffffffffff160217905550602082015181600101556040820151816002015560608201518160030160006101000a81548160ff02191690831515021790555050500390506001600560003373ffffffffffffffffffffffffffffffffffffffff1673ffffffffffffffffffffffffffffffffffffffff16815260200190815260200160002060006101000a81548160ff021916908315150217905550336006600083815260200190815260200160002060006101000a81548173ffffffffffffffffffffffffffffffffffffffff021916908373ffffffffffffffffffffffffffffffffffffffff1602179055506000600460008381526020019081526020016000208190555080600760003373ffffffffffffffffffffffffffffffffffffffff1673ffffffffffffffffffffffffffffffffffffffff168152602001908152602001600020819055507ff4dd1db653a1088522e9ca377c4d54a81fc4c56ca3183a81caf1303eda7e1a95816040518082815260200191505060405180910390a15050565b6108f1610540565b15156108fc57600080fd5b61090581610974565b50565b60028181548110151561091757fe5b90600052602060002090600402016000915090508060000160009054906101000a900473ffffffffffffffffffffffffffffffffffffffff16908060010154908060020154908060030160009054906101000a900460ff16905084565b600073ffffffffffffffffffffffffffffffffffffffff168173ffffffffffffffffffffffffffffffffffffffff16141515156109b057600080fd5b8073ffffffffffffffffffffffffffffffffffffffff166000809054906101000a900473ffffffffffffffffffffffffffffffffffffffff1673ffffffffffffffffffffffffffffffffffffffff167f8be0079c531659141344cd1fd0a4f28419497f9722a3daafe3b4186f6b6457e060405160405180910390a3806000806101000a81548173ffffffffffffffffffffffffffffffffffffffff021916908373ffffffffffffffffffffffffffffffffffffffff1602179055505056fea165627a7a72305820c18c7980e0fa6e0f8ca61dfeecbbe5fc46a95047936b5b8f8796f179d2cdb71d0029",
  "source": "pragma solidity ^0.5.0;\n\nimport \"./Ownable.sol\";\nimport \"./SafeMath.sol\";\n\ncontract EtherDrive is Ownable{\n\n  event NewPlayer(uint userId);\n\n  struct Player {\n    address account;\n    uint roundCount;\n    uint roundScore;\n    bool paid;\n  }\n\n\n    uint priceToPlay = 10;\n\n\n  Player[] public players;\n\n   mapping(address => uint) balanceOf;\n   mapping(uint => uint) idToCreditBalance;\n   mapping(address => bool) activated;\n   mapping(uint => address) idToPlayer;\n   mapping(address => uint) addressToId;\n\n\n   modifier onlyPlayer(uint _userId) {\n    require(msg.sender == idToPlayer[_userId]);\n    _;\n  }\n\n   function _createPlayer() public {\n    require(activated[msg.sender] == false);\n    address account = msg.sender;\n    uint userId = players.push(Player(account,  0, 0, false)) - 1 ;\n    activated[msg.sender] = true;\n    idToPlayer[userId] = msg.sender;\n    idToCreditBalance[userId] = 0;\n    addressToId[msg.sender] = userId;\n    emit NewPlayer(userId);\n  }\n\n    function deposit(uint256 _amount) payable public {\n        require(msg.value == _amount);\n    }\n// /* Only owner of contract can withdraw */\n//     function withdraw() external onlyOwner {\n//     address _owner = owner();\n//     _owner.transfer(address(this).balance);\n//   }\n\n/* Need to customize this to changing priceToPlay, roundGoals and roundRewards */\n  /* function setLevelUpFee(uint _fee) external onlyOwner {\n      levelUpFee = _fee;\n    } */\n\n    function payToPlay () public payable {\n        require (msg.value == priceToPlay);\n         }\n\n    function getCreditedAmount(uint _userId) public view returns (uint){\n        return idToCreditBalance[_userId];\n    }\n\n    function getRoundCount(uint _userId) public view returns (uint) {\n        return players[_userId].roundCount;\n    }\n\n    function isAccountActivated() public view returns (bool){\n        return (activated[msg.sender]);\n    }\n\n    function getPlayerId(address _userAccount) public view returns (uint) {\n        require(_userAccount == msg.sender);\n        return addressToId[_userAccount];\n    }\n\n}\n",
  "sourcePath": "/Users/connorpayne/code/EtherDrive/contracts/EtherDrive.sol",
  "compiler": {
    "name": "solc",
    "version": "0.5.0+commit.1d4f565a.Emscripten.clang"
  },
  "schemaVersion": "3.0.3",
  "updatedAt": "2019-03-19T22:19:30.785Z",
  "devdoc": {
    "methods": {
      "isOwner()": {
        "return": "true if `msg.sender` is the owner of the contract."
      },
      "owner()": {
        "return": "the address of the owner."
      },
      "renounceOwnership()": {
        "details": "Allows the current owner to relinquish control of the contract. It will not be possible to call the functions with the `onlyOwner` modifier anymore."
      },
      "transferOwnership(address)": {
        "details": "Allows the current owner to transfer control of the contract to a newOwner.",
        "params": {
          "newOwner": "The address to transfer ownership to."
        }
      }
    }
  },
  "userdoc": {
    "methods": {
      "renounceOwnership()": {
        "notice": "Renouncing ownership will leave the contract without an owner, thereby removing any functionality that is only available to the owner."
      }
    }
  }
}