{
  "contractName": "EtherWheel",
  "abi": [
    {
      "constant": true,
      "inputs": [
        {
          "name": "_userId",
          "type": "uint256"
        }
      ],
      "name": "getCreditedAmount",
      "outputs": [
        {
          "name": "",
          "type": "uint256"
        }
      ],
      "payable": false,
      "stateMutability": "view",
      "type": "function",
      "signature": "0x0ade3982"
    },
    {
      "constant": true,
      "inputs": [],
      "name": "isAccountActivated",
      "outputs": [
        {
          "name": "",
          "type": "bool"
        }
      ],
      "payable": false,
      "stateMutability": "view",
      "type": "function",
      "signature": "0x0e1930c3"
    },
    {
      "constant": false,
      "inputs": [],
      "name": "payToPlay",
      "outputs": [],
      "payable": true,
      "stateMutability": "payable",
      "type": "function",
      "signature": "0x3e5edbd3"
    },
    {
      "constant": false,
      "inputs": [],
      "name": "createPlayer",
      "outputs": [],
      "payable": false,
      "stateMutability": "nonpayable",
      "type": "function",
      "signature": "0x3fa9fcf8"
    },
    {
      "constant": false,
      "inputs": [],
      "name": "renounceOwnership",
      "outputs": [],
      "payable": false,
      "stateMutability": "nonpayable",
      "type": "function",
      "signature": "0x715018a6"
    },
    {
      "constant": true,
      "inputs": [],
      "name": "owner",
      "outputs": [
        {
          "name": "",
          "type": "address"
        }
      ],
      "payable": false,
      "stateMutability": "view",
      "type": "function",
      "signature": "0x8da5cb5b"
    },
    {
      "constant": true,
      "inputs": [],
      "name": "isOwner",
      "outputs": [
        {
          "name": "",
          "type": "bool"
        }
      ],
      "payable": false,
      "stateMutability": "view",
      "type": "function",
      "signature": "0x8f32d59b"
    },
    {
      "constant": true,
      "inputs": [],
      "name": "getPlayerId",
      "outputs": [
        {
          "name": "",
          "type": "uint256"
        }
      ],
      "payable": false,
      "stateMutability": "view",
      "type": "function",
      "signature": "0xac436660"
    },
    {
      "constant": true,
      "inputs": [
        {
          "name": "_userId",
          "type": "uint256"
        }
      ],
      "name": "getRoundCount",
      "outputs": [
        {
          "name": "",
          "type": "uint256"
        }
      ],
      "payable": false,
      "stateMutability": "view",
      "type": "function",
      "signature": "0xb12decb0"
    },
    {
      "constant": false,
      "inputs": [
        {
          "name": "_amount",
          "type": "uint256"
        }
      ],
      "name": "deposit",
      "outputs": [],
      "payable": true,
      "stateMutability": "payable",
      "type": "function",
      "signature": "0xb6b55f25"
    },
    {
      "constant": false,
      "inputs": [
        {
          "name": "newOwner",
          "type": "address"
        }
      ],
      "name": "transferOwnership",
      "outputs": [],
      "payable": false,
      "stateMutability": "nonpayable",
      "type": "function",
      "signature": "0xf2fde38b"
    },
    {
      "constant": true,
      "inputs": [
        {
          "name": "",
          "type": "uint256"
        }
      ],
      "name": "players",
      "outputs": [
        {
          "name": "account",
          "type": "address"
        },
        {
          "name": "roundCount",
          "type": "uint256"
        },
        {
          "name": "roundScore",
          "type": "uint256"
        },
        {
          "name": "paid",
          "type": "bool"
        }
      ],
      "payable": false,
      "stateMutability": "view",
      "type": "function",
      "signature": "0xf71d96cb"
    },
    {
      "anonymous": false,
      "inputs": [
        {
          "indexed": false,
          "name": "userId",
          "type": "uint256"
        },
        {
          "indexed": false,
          "name": "roundNumber",
          "type": "uint256"
        },
        {
          "indexed": false,
          "name": "spinOne",
          "type": "uint256"
        },
        {
          "indexed": false,
          "name": "spinTwo",
          "type": "uint256"
        },
        {
          "indexed": false,
          "name": "spinThree",
          "type": "uint256"
        },
        {
          "indexed": false,
          "name": "roundScore",
          "type": "uint256"
        }
      ],
      "name": "RoundResults",
      "type": "event",
      "signature": "0xe0b567f256a5601a57602f8a6dab7faba423582f0959e5f429bcdf3b09909483"
    },
    {
      "anonymous": false,
      "inputs": [
        {
          "indexed": false,
          "name": "spinresult",
          "type": "uint256"
        }
      ],
      "name": "SpinLanding",
      "type": "event",
      "signature": "0x6f412c727e1597d6c3ae2306971f44bdbf2360b1e377440659b855b6ad834968"
    },
    {
      "anonymous": false,
      "inputs": [
        {
          "indexed": false,
          "name": "userId",
          "type": "uint256"
        },
        {
          "indexed": false,
          "name": "rewardPool",
          "type": "uint256"
        }
      ],
      "name": "PlayerRewardPool",
      "type": "event",
      "signature": "0x8d16b627c8546020a8745380f773c8f6e7253fe0ddfe40b8b2c6b0fa2b21c9f1"
    },
    {
      "anonymous": false,
      "inputs": [
        {
          "indexed": false,
          "name": "userId",
          "type": "uint256"
        }
      ],
      "name": "NewPlayer",
      "type": "event",
      "signature": "0xf4dd1db653a1088522e9ca377c4d54a81fc4c56ca3183a81caf1303eda7e1a95"
    },
    {
      "anonymous": false,
      "inputs": [
        {
          "indexed": true,
          "name": "previousOwner",
          "type": "address"
        },
        {
          "indexed": true,
          "name": "newOwner",
          "type": "address"
        }
      ],
      "name": "OwnershipTransferred",
      "type": "event",
      "signature": "0x8be0079c531659141344cd1fd0a4f28419497f9722a3daafe3b4186f6b6457e0"
    },
    {
      "constant": false,
      "inputs": [
        {
          "name": "_account",
          "type": "address"
        }
      ],
      "name": "checkRound",
      "outputs": [],
      "payable": false,
      "stateMutability": "nonpayable",
      "type": "function",
      "signature": "0x0c872f68"
    },
    {
      "constant": false,
      "inputs": [
        {
          "name": "_goal",
          "type": "uint256"
        }
      ],
      "name": "setRoundOneGoal",
      "outputs": [],
      "payable": false,
      "stateMutability": "nonpayable",
      "type": "function",
      "signature": "0xde3b887d"
    },
    {
      "constant": false,
      "inputs": [
        {
          "name": "_goal",
          "type": "uint256"
        }
      ],
      "name": "setRoundTwoGoal",
      "outputs": [],
      "payable": false,
      "stateMutability": "nonpayable",
      "type": "function",
      "signature": "0x4ca6ab6b"
    },
    {
      "constant": false,
      "inputs": [
        {
          "name": "_goal",
          "type": "uint256"
        }
      ],
      "name": "setRoundThreeGoal",
      "outputs": [],
      "payable": false,
      "stateMutability": "nonpayable",
      "type": "function",
      "signature": "0xfd87aad3"
    },
    {
      "constant": false,
      "inputs": [
        {
          "name": "_reward",
          "type": "uint256"
        }
      ],
      "name": "setRoundOneReward",
      "outputs": [],
      "payable": false,
      "stateMutability": "nonpayable",
      "type": "function",
      "signature": "0x0de96ebe"
    },
    {
      "constant": false,
      "inputs": [
        {
          "name": "_reward",
          "type": "uint256"
        }
      ],
      "name": "setRoundTwoReward",
      "outputs": [],
      "payable": false,
      "stateMutability": "nonpayable",
      "type": "function",
      "signature": "0x7bbac6e6"
    },
    {
      "constant": false,
      "inputs": [
        {
          "name": "_reward",
          "type": "uint256"
        }
      ],
      "name": "setRoundThreeReward",
      "outputs": [],
      "payable": false,
      "stateMutability": "nonpayable",
      "type": "function",
      "signature": "0x87d6fb0a"
    },
    {
      "constant": false,
      "inputs": [
        {
          "name": "_price",
          "type": "uint256"
        }
      ],
      "name": "setPriceToPlay",
      "outputs": [],
      "payable": false,
      "stateMutability": "nonpayable",
      "type": "function",
      "signature": "0xfac83957"
    }
  ],
  "bytecode": "0x6080604052600a600155600060085560fa600955610190600a556101f4600b55600a600c556014600d55600f600e556019600f60006101000a81548160ff021916908360ff1602179055506023600f60016101000a81548160ff021916908360ff1602179055506032600f60026101000a81548160ff021916908360ff160217905550604b600f60036101000a81548160ff021916908360ff1602179055506064600f60046101000a81548160ff021916908360ff1602179055506096600f60056101000a81548160ff021916908360ff16021790555060c8600f60066101000a81548160ff021916908360ff160217905550336000806101000a81548173ffffffffffffffffffffffffffffffffffffffff021916908373ffffffffffffffffffffffffffffffffffffffff1602179055506000809054906101000a900473ffffffffffffffffffffffffffffffffffffffff1673ffffffffffffffffffffffffffffffffffffffff16600073ffffffffffffffffffffffffffffffffffffffff167f8be0079c531659141344cd1fd0a4f28419497f9722a3daafe3b4186f6b6457e060405160405180910390a3611212806101bd6000396000f3fe608060405260043610610112576000357c0100000000000000000000000000000000000000000000000000000000900463ffffffff1680630ade3982146101175780630c872f68146101665780630de96ebe146101b75780630e1930c3146101f25780633e5edbd3146102215780633fa9fcf81461022b5780634ca6ab6b14610242578063715018a61461027d5780637bbac6e61461029457806387d6fb0a146102cf5780638da5cb5b1461030a5780638f32d59b14610361578063ac43666014610390578063b12decb0146103bb578063b6b55f251461040a578063de3b887d14610438578063f2fde38b14610473578063f71d96cb146104c4578063fac8395714610558578063fd87aad314610593575b600080fd5b34801561012357600080fd5b506101506004803603602081101561013a57600080fd5b81019080803590602001909291905050506105ce565b6040518082815260200191505060405180910390f35b34801561017257600080fd5b506101b56004803603602081101561018957600080fd5b81019080803573ffffffffffffffffffffffffffffffffffffffff1690602001909291905050506105eb565b005b3480156101c357600080fd5b506101f0600480360360208110156101da57600080fd5b8101908080359060200190929190505050610702565b005b3480156101fe57600080fd5b5061020761071f565b604051808215151515815260200191505060405180910390f35b610229610773565b005b34801561023757600080fd5b50610240610785565b005b34801561024e57600080fd5b5061027b6004803603602081101561026557600080fd5b81019080803590602001909291905050506109b4565b005b34801561028957600080fd5b506102926109d1565b005b3480156102a057600080fd5b506102cd600480360360208110156102b757600080fd5b8101908080359060200190929190505050610aa3565b005b3480156102db57600080fd5b50610308600480360360208110156102f257600080fd5b8101908080359060200190929190505050610ac0565b005b34801561031657600080fd5b5061031f610add565b604051808273ffffffffffffffffffffffffffffffffffffffff1673ffffffffffffffffffffffffffffffffffffffff16815260200191505060405180910390f35b34801561036d57600080fd5b50610376610b06565b604051808215151515815260200191505060405180910390f35b34801561039c57600080fd5b506103a5610b5d565b6040518082815260200191505060405180910390f35b3480156103c757600080fd5b506103f4600480360360208110156103de57600080fd5b8101908080359060200190929190505050610ba4565b6040518082815260200191505060405180910390f35b6104366004803603602081101561042057600080fd5b8101908080359060200190929190505050610bce565b005b34801561044457600080fd5b506104716004803603602081101561045b57600080fd5b8101908080359060200190929190505050610bdf565b005b34801561047f57600080fd5b506104c26004803603602081101561049657600080fd5b81019080803573ffffffffffffffffffffffffffffffffffffffff169060200190929190505050610bfc565b005b3480156104d057600080fd5b506104fd600480360360208110156104e757600080fd5b8101908080359060200190929190505050610c1b565b604051808573ffffffffffffffffffffffffffffffffffffffff1673ffffffffffffffffffffffffffffffffffffffff1681526020018481526020018381526020018215151515815260200194505050505060405180910390f35b34801561056457600080fd5b506105916004803603602081101561057b57600080fd5b8101908080359060200190929190505050610c87565b005b34801561059f57600080fd5b506105cc600480360360208110156105b657600080fd5b8101908080359060200190929190505050610ca4565b005b600060046000838152602001908152602001600020549050919050565b8073ffffffffffffffffffffffffffffffffffffffff163373ffffffffffffffffffffffffffffffffffffffff1614151561062557600080fd5b6000600760003373ffffffffffffffffffffffffffffffffffffffff1673ffffffffffffffffffffffffffffffffffffffff168152602001908152602001600020549050600081141561067b5761067a610785565b5b600060028281548110151561068c57fe5b906000526020600020906004020190506000816001015414156106bd576106b882600954600c54610cc1565b6106fd565b6001816001015414156106de576106d982600a54600d54610cc1565b6106fc565b6002816001015414156106fb576106fa82600b54600e54610cc1565b5b5b5b505050565b61070a610b06565b151561071557600080fd5b80600c8190555050565b6000600560003373ffffffffffffffffffffffffffffffffffffffff1673ffffffffffffffffffffffffffffffffffffffff16815260200190815260200160002060009054906101000a900460ff16905090565b6001543414151561078357600080fd5b565b6000600160026080604051908101604052803373ffffffffffffffffffffffffffffffffffffffff1681526020016000815260200160008152602001600015158152509080600181540180825580915050906001820390600052602060002090600402016000909192909190915060008201518160000160006101000a81548173ffffffffffffffffffffffffffffffffffffffff021916908373ffffffffffffffffffffffffffffffffffffffff160217905550602082015181600101556040820151816002015560608201518160030160006101000a81548160ff02191690831515021790555050500390506001600560003373ffffffffffffffffffffffffffffffffffffffff1673ffffffffffffffffffffffffffffffffffffffff16815260200190815260200160002060006101000a81548160ff021916908315150217905550336006600083815260200190815260200160002060006101000a81548173ffffffffffffffffffffffffffffffffffffffff021916908373ffffffffffffffffffffffffffffffffffffffff1602179055506000600460008381526020019081526020016000208190555080600760003373ffffffffffffffffffffffffffffffffffffffff1673ffffffffffffffffffffffffffffffffffffffff168152602001908152602001600020819055507ff4dd1db653a1088522e9ca377c4d54a81fc4c56ca3183a81caf1303eda7e1a95816040518082815260200191505060405180910390a150565b6109bc610b06565b15156109c757600080fd5b80600a8190555050565b6109d9610b06565b15156109e457600080fd5b600073ffffffffffffffffffffffffffffffffffffffff166000809054906101000a900473ffffffffffffffffffffffffffffffffffffffff1673ffffffffffffffffffffffffffffffffffffffff167f8be0079c531659141344cd1fd0a4f28419497f9722a3daafe3b4186f6b6457e060405160405180910390a360008060006101000a81548173ffffffffffffffffffffffffffffffffffffffff021916908373ffffffffffffffffffffffffffffffffffffffff160217905550565b610aab610b06565b1515610ab657600080fd5b80600d8190555050565b610ac8610b06565b1515610ad357600080fd5b80600e8190555050565b60008060009054906101000a900473ffffffffffffffffffffffffffffffffffffffff16905090565b60008060009054906101000a900473ffffffffffffffffffffffffffffffffffffffff1673ffffffffffffffffffffffffffffffffffffffff163373ffffffffffffffffffffffffffffffffffffffff1614905090565b6000600760003373ffffffffffffffffffffffffffffffffffffffff1673ffffffffffffffffffffffffffffffffffffffff16815260200190815260200160002054905090565b6000600282815481101515610bb557fe5b9060005260206000209060040201600101549050919050565b8034141515610bdc57600080fd5b50565b610be7610b06565b1515610bf257600080fd5b8060098190555050565b610c04610b06565b1515610c0f57600080fd5b610c1881610ebb565b50565b600281815481101515610c2a57fe5b90600052602060002090600402016000915090508060000160009054906101000a900473ffffffffffffffffffffffffffffffffffffffff16908060010154908060020154908060030160009054906101000a900460ff16905084565b610c8f610b06565b1515610c9a57600080fd5b8060018190555050565b610cac610b06565b1515610cb757600080fd5b80600b8190555050565b6000600284815481101515610cd257fe5b9060005260206000209060040201905060006004600086815260200190815260200160002081905550610d1360018260010154610fb590919063ffffffff16565b816001018190555060008160010154905060008390506000610d3d610d386064610fd6565b61107e565b90506000610d53610d4e6064610fd6565b61107e565b90506000610d69610d646064610fd6565b61107e565b90506000818385010190507fe0b567f256a5601a57602f8a6dab7faba423582f0959e5f429bcdf3b099094838a878686868660405180878152602001868152602001858152602001848152602001838152602001828152602001965050505050505060405180910390a18881101515610e2f576003861415610e11576000876001018190555060008760030160006101000a81548160ff021916908315150217905550610e2a565b84600460008c8152602001908152602001600020819055505b610e57565b6000876001018190555060008760030160006101000a81548160ff0219169083151502179055505b6000600460008c81526020019081526020016000205490507f8d16b627c8546020a8745380f773c8f6e7253fe0ddfe40b8b2c6b0fa2b21c9f18b82604051808381526020018281526020019250505060405180910390a15050505050505050505050565b600073ffffffffffffffffffffffffffffffffffffffff168173ffffffffffffffffffffffffffffffffffffffff1614151515610ef757600080fd5b8073ffffffffffffffffffffffffffffffffffffffff166000809054906101000a900473ffffffffffffffffffffffffffffffffffffffff1673ffffffffffffffffffffffffffffffffffffffff167f8be0079c531659141344cd1fd0a4f28419497f9722a3daafe3b4186f6b6457e060405160405180910390a3806000806101000a81548173ffffffffffffffffffffffffffffffffffffffff021916908373ffffffffffffffffffffffffffffffffffffffff16021790555050565b6000808284019050838110151515610fcc57600080fd5b8091505092915050565b6000610fee6001600854610fb590919063ffffffff16565b600881905550814233600854604051602001808481526020018373ffffffffffffffffffffffffffffffffffffffff1673ffffffffffffffffffffffffffffffffffffffff166c010000000000000000000000000281526014018281526020019350505050604051602081830303815290604052805190602001206001900481151561107657fe5b069050919050565b60007f6f412c727e1597d6c3ae2306971f44bdbf2360b1e377440659b855b6ad834968826040518082815260200191505060405180910390a1600d8210156110c957601990506111a3565b600d82101580156110da5750601982105b156110e857602390506111a3565b601982101580156110f95750602a82105b1561110757603290506111a3565b602a82101580156111185750603b82105b1561112657604b90506111a3565b603b82101580156111375750604782105b1561114557606490506111a3565b604782101580156111565750605382105b1561116457609690506111a3565b605382101580156111755750605882105b156111835760fa90506111a3565b6111a0600a611192601e610fd6565b6111a890919063ffffffff16565b90505b919050565b6000808314156111bb57600090506111e0565b600082840290508284828115156111ce57fe5b041415156111db57600080fd5b809150505b9291505056fea165627a7a723058202bfdcd48ab73d96d6a8e04044f135e10c9c7b38d6dbbcc2f593eec7d76d5ce480029",
  "source": "pragma solidity ^0.5.0;\n\nimport \"./EtherDrive.sol\";\n\ncontract  EtherWheel is EtherDrive {\n\nusing SafeMath for uint256;\n\nevent RoundResults(uint userId, uint roundNumber, uint spinOne, uint spinTwo, uint spinThree, uint roundScore);\nevent SpinLanding(uint spinresult);\nevent PlayerRewardPool(uint userId, uint rewardPool);\n\n  uint randNonce = 0;\n  uint roundOneGoal = 250;\n  uint roundTwoGoal = 400;\n  uint roundThreeGoal = 500;\n\n  uint roundOneReward = 10;\n  uint roundTwoReward = 20;\n  uint roundThreeReward = 15;\n\n  // Possible Spin Values\n  uint8 twentyFive = 25;\n  uint8 thirtyFive = 35;\n  uint8 fifty = 50;\n  uint8 seventyFive = 75;\n  uint8 oneHundred = 100;\n  uint8 oneFifty = 150;\n  uint8 twoHundred = 200;\n\n\n  function randMod(uint _modulus) internal returns(uint) {\n    randNonce = randNonce.add(1);\n    return uint(keccak256(abi.encodePacked(now, msg.sender, randNonce))) % _modulus;\n  }\n\n\n  function spinWheel(uint _userId, uint _scoreToWin, uint _roundReward) internal {\n    Player storage currentPlayer = players[_userId];\n    idToCreditBalance[_userId] = 0;\n    currentPlayer.roundCount = currentPlayer.roundCount.add(1);\n    uint roundNumber = currentPlayer.roundCount;\n    uint roundReward = _roundReward;\n    uint spinOnePoints = getRoundScore(randMod(100));\n    uint spinTwoPoints = getRoundScore(randMod(100));\n    uint spinThreePoints = getRoundScore(randMod(100));\n    uint _roundScore = spinOnePoints + spinTwoPoints + spinThreePoints;\n\n    emit RoundResults(_userId, roundNumber, spinOnePoints, spinTwoPoints, spinThreePoints, _roundScore);\n    if(_roundScore >= _scoreToWin){\n        if(roundNumber == 3){\n            currentPlayer.roundCount = 0;\n            currentPlayer.paid = false;\n\n        } else {\n            idToCreditBalance[_userId] = roundReward;\n        }\n    } else {\n        currentPlayer.roundCount = 0;\n        currentPlayer.paid = false;\n    }\n    uint rewardPool = idToCreditBalance[_userId];\n    emit PlayerRewardPool(_userId, rewardPool);\n    }\n\n\n    function checkRound(address _account) public {\n        require(msg.sender == _account);\n        uint _userId = addressToId[msg.sender];\n        if(_userId == 0){\n            createPlayer();\n        }\n         Player storage currentPlayer = players[_userId];\n        if(currentPlayer.roundCount ==  0) {\n        spinWheel(_userId, roundOneGoal, roundOneReward);\n      } else if(currentPlayer.roundCount ==  1) {\n        spinWheel(_userId, roundTwoGoal, roundTwoReward);\n      } else if(currentPlayer.roundCount ==  2) {\n        spinWheel(_userId, roundThreeGoal, roundThreeReward);\n      }\n    }\n\n    function getRoundScore(uint _spinNumber) private returns (uint){\n        emit SpinLanding(_spinNumber);\n      if (_spinNumber < 13) {\n        return 25;\n      } else if (_spinNumber >= 13 && _spinNumber < 25){\n        return 35;\n      } else if (_spinNumber >= 25 && _spinNumber < 42){\n        return 50;\n      } else if (_spinNumber >= 42 && _spinNumber < 59){\n        return 75;\n      } else if (_spinNumber >= 59 && _spinNumber < 71){\n        return 100;\n      } else if (_spinNumber >= 71 && _spinNumber < 83){\n        return 150;\n      } else if (_spinNumber >= 83 && _spinNumber < 88){\n        return 250;\n      } else {\n        return randMod(30).mul(10);\n      }\n    }\n\n// Functions for owner to set round goal amounts\n    function setRoundOneGoal(uint _goal) external onlyOwner {\n    roundOneGoal = _goal;\n  }\n\n  function setRoundTwoGoal(uint _goal) external onlyOwner {\n    roundTwoGoal = _goal;\n  }\n\n  function setRoundThreeGoal(uint _goal) external onlyOwner {\n    roundThreeGoal = _goal;\n  }\n\n// Functions for owner to change round reward amounts\n  function setRoundOneReward(uint _reward) external onlyOwner {\n    roundOneReward = _reward;\n  }\n\n   function setRoundTwoReward(uint _reward) external onlyOwner {\n    roundTwoReward = _reward;\n  }\n\n   function setRoundThreeReward(uint _reward) external onlyOwner {\n    roundThreeReward = _reward;\n  }\n\n//   Function for owner to change the price to play\n    function setPriceToPlay(uint _price) external onlyOwner {\n     priceToPlay = _price;\n  }\n\n\n  }\n\n\n\n\n  /* function firstspinWheel(uint _userId) external onlyOwnerOf(_userId) {\n  Player storage currentPlayer = players[_userId];\n  uint rand = randMod(100) + randMod(.1);\n  if (rand <12.5) {\n    roundCreditBalance = myZombie.winCount.add(1);\n    myZombie.level = myZombie.level.add(1);\n    enemyZombie.lossCount = enemyZombie.lossCount.add(1);\n    feedAndMultiply(_zombieId, enemyZombie.dna, \"zombie\");\n  } else {\n    myZombie.lossCount = myZombie.lossCount.add(1);\n    enemyZombie.winCount = enemyZombie.winCount.add(1);\n    _triggerCooldown(myZombie);\n  }\n} */\n",
  "sourcePath": "/Users/connorpayne/code/EtherDrive/contracts/EtherWheel.sol",
  "compiler": {
    "name": "solc",
    "version": "0.5.0+commit.1d4f565a.Emscripten.clang"
  },
  "schemaVersion": "3.0.3",
  "updatedAt": "2019-03-20T19:28:20.432Z",
  "devdoc": {
    "methods": {
      "isOwner()": {
        "return": "true if `msg.sender` is the owner of the contract."
      },
      "owner()": {
        "return": "the address of the owner."
      },
      "renounceOwnership()": {
        "details": "Allows the current owner to relinquish control of the contract. It will not be possible to call the functions with the `onlyOwner` modifier anymore."
      },
      "transferOwnership(address)": {
        "details": "Allows the current owner to transfer control of the contract to a newOwner.",
        "params": {
          "newOwner": "The address to transfer ownership to."
        }
      }
    }
  },
  "userdoc": {
    "methods": {
      "renounceOwnership()": {
        "notice": "Renouncing ownership will leave the contract without an owner, thereby removing any functionality that is only available to the owner."
      }
    }
  }
}