{
  "contractName": "EtherWheel",
  "abi": [
    {
      "constant": true,
      "inputs": [],
      "name": "testConnection",
      "outputs": [
        {
          "name": "",
          "type": "uint256"
        }
      ],
      "payable": false,
      "stateMutability": "pure",
      "type": "function",
      "signature": "0x3412a15c"
    },
    {
      "constant": false,
      "inputs": [],
      "name": "payToPlay",
      "outputs": [],
      "payable": true,
      "stateMutability": "payable",
      "type": "function",
      "signature": "0x3e5edbd3"
    },
    {
      "constant": true,
      "inputs": [],
      "name": "getSpinCount",
      "outputs": [
        {
          "name": "",
          "type": "uint256"
        }
      ],
      "payable": false,
      "stateMutability": "view",
      "type": "function",
      "signature": "0x4dafdfae"
    },
    {
      "constant": true,
      "inputs": [],
      "name": "getRoundCount",
      "outputs": [
        {
          "name": "",
          "type": "uint256"
        }
      ],
      "payable": false,
      "stateMutability": "view",
      "type": "function",
      "signature": "0x6de7da78"
    },
    {
      "constant": false,
      "inputs": [],
      "name": "renounceOwnership",
      "outputs": [],
      "payable": false,
      "stateMutability": "nonpayable",
      "type": "function",
      "signature": "0x715018a6"
    },
    {
      "constant": true,
      "inputs": [],
      "name": "getPriceToPlay",
      "outputs": [
        {
          "name": "",
          "type": "uint256"
        }
      ],
      "payable": false,
      "stateMutability": "view",
      "type": "function",
      "signature": "0x7c1ebbb6"
    },
    {
      "constant": true,
      "inputs": [],
      "name": "owner",
      "outputs": [
        {
          "name": "",
          "type": "address"
        }
      ],
      "payable": false,
      "stateMutability": "view",
      "type": "function",
      "signature": "0x8da5cb5b"
    },
    {
      "constant": true,
      "inputs": [],
      "name": "isOwner",
      "outputs": [
        {
          "name": "",
          "type": "bool"
        }
      ],
      "payable": false,
      "stateMutability": "view",
      "type": "function",
      "signature": "0x8f32d59b"
    },
    {
      "constant": true,
      "inputs": [],
      "name": "getPlayerId",
      "outputs": [
        {
          "name": "",
          "type": "uint256"
        }
      ],
      "payable": false,
      "stateMutability": "view",
      "type": "function",
      "signature": "0xac436660"
    },
    {
      "constant": true,
      "inputs": [],
      "name": "getRoundGoal",
      "outputs": [
        {
          "name": "",
          "type": "uint256"
        }
      ],
      "payable": false,
      "stateMutability": "view",
      "type": "function",
      "signature": "0xb04c6425"
    },
    {
      "constant": true,
      "inputs": [
        {
          "name": "_userId",
          "type": "uint256"
        }
      ],
      "name": "getRoundCount",
      "outputs": [
        {
          "name": "",
          "type": "uint256"
        }
      ],
      "payable": false,
      "stateMutability": "view",
      "type": "function",
      "signature": "0xb12decb0"
    },
    {
      "constant": true,
      "inputs": [],
      "name": "getSpinThree",
      "outputs": [
        {
          "name": "",
          "type": "uint256"
        }
      ],
      "payable": false,
      "stateMutability": "view",
      "type": "function",
      "signature": "0xb439bd03"
    },
    {
      "constant": false,
      "inputs": [
        {
          "name": "_amount",
          "type": "uint256"
        }
      ],
      "name": "deposit",
      "outputs": [],
      "payable": true,
      "stateMutability": "payable",
      "type": "function",
      "signature": "0xb6b55f25"
    },
    {
      "constant": true,
      "inputs": [],
      "name": "getSpinTwo",
      "outputs": [
        {
          "name": "",
          "type": "uint256"
        }
      ],
      "payable": false,
      "stateMutability": "view",
      "type": "function",
      "signature": "0xd4e8b4d1"
    },
    {
      "constant": false,
      "inputs": [
        {
          "name": "newOwner",
          "type": "address"
        }
      ],
      "name": "transferOwnership",
      "outputs": [],
      "payable": false,
      "stateMutability": "nonpayable",
      "type": "function",
      "signature": "0xf2fde38b"
    },
    {
      "constant": true,
      "inputs": [],
      "name": "getSpinOne",
      "outputs": [
        {
          "name": "",
          "type": "uint256"
        }
      ],
      "payable": false,
      "stateMutability": "view",
      "type": "function",
      "signature": "0xf33b62b5"
    },
    {
      "constant": true,
      "inputs": [
        {
          "name": "_account",
          "type": "address"
        }
      ],
      "name": "isAccountActivated",
      "outputs": [
        {
          "name": "",
          "type": "bool"
        }
      ],
      "payable": false,
      "stateMutability": "view",
      "type": "function",
      "signature": "0xf44c6736"
    },
    {
      "constant": true,
      "inputs": [
        {
          "name": "",
          "type": "uint256"
        }
      ],
      "name": "players",
      "outputs": [
        {
          "name": "account",
          "type": "address"
        },
        {
          "name": "spinOne",
          "type": "uint256"
        },
        {
          "name": "spinTwo",
          "type": "uint256"
        },
        {
          "name": "spinThree",
          "type": "uint256"
        },
        {
          "name": "spinCount",
          "type": "uint256"
        },
        {
          "name": "roundCount",
          "type": "uint256"
        },
        {
          "name": "roundScore",
          "type": "uint256"
        },
        {
          "name": "roundGoal",
          "type": "uint256"
        },
        {
          "name": "owed",
          "type": "uint256"
        },
        {
          "name": "paid",
          "type": "bool"
        }
      ],
      "payable": false,
      "stateMutability": "view",
      "type": "function",
      "signature": "0xf71d96cb"
    },
    {
      "constant": true,
      "inputs": [],
      "name": "getCreditedAmount",
      "outputs": [
        {
          "name": "",
          "type": "uint256"
        }
      ],
      "payable": false,
      "stateMutability": "view",
      "type": "function",
      "signature": "0xf80f2701"
    },
    {
      "anonymous": false,
      "inputs": [
        {
          "indexed": true,
          "name": "userId",
          "type": "uint256"
        },
        {
          "indexed": false,
          "name": "spinScore",
          "type": "uint256"
        },
        {
          "indexed": false,
          "name": "spinCount",
          "type": "uint256"
        },
        {
          "indexed": false,
          "name": "roundCount",
          "type": "uint256"
        },
        {
          "indexed": false,
          "name": "roundScore",
          "type": "uint256"
        },
        {
          "indexed": false,
          "name": "roundGoal",
          "type": "uint256"
        }
      ],
      "name": "SpinResults",
      "type": "event",
      "signature": "0xfd5e8607e296ebcd1abcd0081307997763b4dd2bd349f41afcced1dd0f55ecd9"
    },
    {
      "anonymous": false,
      "inputs": [
        {
          "indexed": false,
          "name": "spinresult",
          "type": "uint256"
        }
      ],
      "name": "SpinLanding",
      "type": "event",
      "signature": "0x6f412c727e1597d6c3ae2306971f44bdbf2360b1e377440659b855b6ad834968"
    },
    {
      "anonymous": false,
      "inputs": [
        {
          "indexed": false,
          "name": "userId",
          "type": "uint256"
        },
        {
          "indexed": false,
          "name": "rewardPool",
          "type": "uint256"
        }
      ],
      "name": "PlayerRewardPool",
      "type": "event",
      "signature": "0x8d16b627c8546020a8745380f773c8f6e7253fe0ddfe40b8b2c6b0fa2b21c9f1"
    },
    {
      "anonymous": false,
      "inputs": [
        {
          "indexed": false,
          "name": "userId",
          "type": "uint256"
        }
      ],
      "name": "NewPlayer",
      "type": "event",
      "signature": "0xf4dd1db653a1088522e9ca377c4d54a81fc4c56ca3183a81caf1303eda7e1a95"
    },
    {
      "anonymous": false,
      "inputs": [
        {
          "indexed": true,
          "name": "previousOwner",
          "type": "address"
        },
        {
          "indexed": true,
          "name": "newOwner",
          "type": "address"
        }
      ],
      "name": "OwnershipTransferred",
      "type": "event",
      "signature": "0x8be0079c531659141344cd1fd0a4f28419497f9722a3daafe3b4186f6b6457e0"
    },
    {
      "constant": false,
      "inputs": [],
      "name": "randMod",
      "outputs": [
        {
          "name": "",
          "type": "uint256"
        }
      ],
      "payable": false,
      "stateMutability": "nonpayable",
      "type": "function",
      "signature": "0xa04a59cc"
    },
    {
      "constant": false,
      "inputs": [],
      "name": "spinWheel",
      "outputs": [],
      "payable": false,
      "stateMutability": "nonpayable",
      "type": "function",
      "signature": "0x15ecef92"
    },
    {
      "constant": false,
      "inputs": [
        {
          "name": "_userId",
          "type": "uint256"
        }
      ],
      "name": "evaluateRoundOne",
      "outputs": [],
      "payable": false,
      "stateMutability": "nonpayable",
      "type": "function",
      "signature": "0x6465300e"
    },
    {
      "constant": false,
      "inputs": [
        {
          "name": "_userId",
          "type": "uint256"
        }
      ],
      "name": "evaluateRoundTwo",
      "outputs": [],
      "payable": false,
      "stateMutability": "nonpayable",
      "type": "function",
      "signature": "0xe4191ded"
    },
    {
      "constant": false,
      "inputs": [
        {
          "name": "_userId",
          "type": "uint256"
        }
      ],
      "name": "evaluateRoundThree",
      "outputs": [],
      "payable": false,
      "stateMutability": "nonpayable",
      "type": "function",
      "signature": "0xb642d46d"
    },
    {
      "constant": true,
      "inputs": [],
      "name": "getRoundScore",
      "outputs": [
        {
          "name": "",
          "type": "uint256"
        }
      ],
      "payable": false,
      "stateMutability": "view",
      "type": "function",
      "signature": "0x19748ed0"
    },
    {
      "constant": true,
      "inputs": [
        {
          "name": "_spinNumber",
          "type": "uint256"
        }
      ],
      "name": "getRoundScore",
      "outputs": [
        {
          "name": "",
          "type": "uint256"
        }
      ],
      "payable": false,
      "stateMutability": "pure",
      "type": "function",
      "signature": "0xd7ab821a"
    },
    {
      "constant": false,
      "inputs": [
        {
          "name": "_goal",
          "type": "uint256"
        }
      ],
      "name": "setRoundOneGoal",
      "outputs": [],
      "payable": false,
      "stateMutability": "nonpayable",
      "type": "function",
      "signature": "0xde3b887d"
    },
    {
      "constant": false,
      "inputs": [
        {
          "name": "_goal",
          "type": "uint256"
        }
      ],
      "name": "setRoundTwoGoal",
      "outputs": [],
      "payable": false,
      "stateMutability": "nonpayable",
      "type": "function",
      "signature": "0x4ca6ab6b"
    },
    {
      "constant": false,
      "inputs": [
        {
          "name": "_goal",
          "type": "uint256"
        }
      ],
      "name": "setRoundThreeGoal",
      "outputs": [],
      "payable": false,
      "stateMutability": "nonpayable",
      "type": "function",
      "signature": "0xfd87aad3"
    },
    {
      "constant": false,
      "inputs": [
        {
          "name": "_reward",
          "type": "uint256"
        }
      ],
      "name": "setRoundOneReward",
      "outputs": [],
      "payable": false,
      "stateMutability": "nonpayable",
      "type": "function",
      "signature": "0x0de96ebe"
    },
    {
      "constant": false,
      "inputs": [
        {
          "name": "_reward",
          "type": "uint256"
        }
      ],
      "name": "setRoundTwoReward",
      "outputs": [],
      "payable": false,
      "stateMutability": "nonpayable",
      "type": "function",
      "signature": "0x7bbac6e6"
    },
    {
      "constant": false,
      "inputs": [
        {
          "name": "_reward",
          "type": "uint256"
        }
      ],
      "name": "setRoundThreeReward",
      "outputs": [],
      "payable": false,
      "stateMutability": "nonpayable",
      "type": "function",
      "signature": "0x87d6fb0a"
    },
    {
      "constant": false,
      "inputs": [
        {
          "name": "_price",
          "type": "uint256"
        }
      ],
      "name": "setPriceToPlay",
      "outputs": [],
      "payable": false,
      "stateMutability": "nonpayable",
      "type": "function",
      "signature": "0xfac83957"
    },
    {
      "constant": false,
      "inputs": [],
      "name": "createPlayer",
      "outputs": [],
      "payable": false,
      "stateMutability": "nonpayable",
      "type": "function",
      "signature": "0x3fa9fcf8"
    }
  ],
  "bytecode": "0x6080604052600a600155600060085560fa600955610190600a556101f4600b55600a600c556014600d55600f600e556019600f60006101000a81548160ff021916908360ff1602179055506023600f60016101000a81548160ff021916908360ff1602179055506032600f60026101000a81548160ff021916908360ff160217905550604b600f60036101000a81548160ff021916908360ff1602179055506064600f60046101000a81548160ff021916908360ff1602179055506096600f60056101000a81548160ff021916908360ff16021790555060c8600f60066101000a81548160ff021916908360ff160217905550336000806101000a81548173ffffffffffffffffffffffffffffffffffffffff021916908373ffffffffffffffffffffffffffffffffffffffff1602179055506000809054906101000a900473ffffffffffffffffffffffffffffffffffffffff1673ffffffffffffffffffffffffffffffffffffffff16600073ffffffffffffffffffffffffffffffffffffffff167f8be0079c531659141344cd1fd0a4f28419497f9722a3daafe3b4186f6b6457e060405160405180910390a3612014806101bd6000396000f3fe6080604052600436106101ac576000357c0100000000000000000000000000000000000000000000000000000000900463ffffffff1680630de96ebe146101b157806315ecef92146101ec57806319748ed0146102035780633412a15c1461022e5780633e5edbd3146102595780633fa9fcf8146102635780634ca6ab6b1461027a5780634dafdfae146102b55780636465300e146102e05780636de7da781461031b578063715018a6146103465780637bbac6e61461035d5780637c1ebbb61461039857806387d6fb0a146103c35780638da5cb5b146103fe5780638f32d59b14610455578063a04a59cc14610484578063ac436660146104af578063b04c6425146104da578063b12decb014610505578063b439bd0314610554578063b642d46d1461057f578063b6b55f25146105ba578063d4e8b4d1146105e8578063d7ab821a14610613578063de3b887d14610662578063e4191ded1461069d578063f2fde38b146106d8578063f33b62b514610729578063f44c673614610754578063f71d96cb146107bd578063f80f27011461087b578063fac83957146108a6578063fd87aad3146108e1575b600080fd5b3480156101bd57600080fd5b506101ea600480360360208110156101d457600080fd5b810190808035906020019092919050505061091c565b005b3480156101f857600080fd5b50610201610939565b005b34801561020f57600080fd5b50610218610d47565b6040518082815260200191505060405180910390f35b34801561023a57600080fd5b50610243610db3565b6040518082815260200191505060405180910390f35b610261610dbc565b005b34801561026f57600080fd5b50610278610dce565b005b34801561028657600080fd5b506102b36004803603602081101561029d57600080fd5b81019080803590602001909291905050506110f3565b005b3480156102c157600080fd5b506102ca611110565b6040518082815260200191505060405180910390f35b3480156102ec57600080fd5b506103196004803603602081101561030357600080fd5b810190808035906020019092919050505061117c565b005b34801561032757600080fd5b50610330611356565b6040518082815260200191505060405180910390f35b34801561035257600080fd5b5061035b6113c2565b005b34801561036957600080fd5b506103966004803603602081101561038057600080fd5b8101908080359060200190929190505050611494565b005b3480156103a457600080fd5b506103ad6114b1565b6040518082815260200191505060405180910390f35b3480156103cf57600080fd5b506103fc600480360360208110156103e657600080fd5b81019080803590602001909291905050506114bb565b005b34801561040a57600080fd5b506104136114d8565b604051808273ffffffffffffffffffffffffffffffffffffffff1673ffffffffffffffffffffffffffffffffffffffff16815260200191505060405180910390f35b34801561046157600080fd5b5061046a611501565b604051808215151515815260200191505060405180910390f35b34801561049057600080fd5b50610499611558565b6040518082815260200191505060405180910390f35b3480156104bb57600080fd5b506104c46115f5565b6040518082815260200191505060405180910390f35b3480156104e657600080fd5b506104ef61163c565b6040518082815260200191505060405180910390f35b34801561051157600080fd5b5061053e6004803603602081101561052857600080fd5b81019080803590602001909291905050506116a8565b6040518082815260200191505060405180910390f35b34801561056057600080fd5b506105696116d2565b6040518082815260200191505060405180910390f35b34801561058b57600080fd5b506105b8600480360360208110156105a257600080fd5b810190808035906020019092919050505061173e565b005b6105e6600480360360208110156105d057600080fd5b8101908080359060200190929190505050611994565b005b3480156105f457600080fd5b506105fd6119a5565b6040518082815260200191505060405180910390f35b34801561061f57600080fd5b5061064c6004803603602081101561063657600080fd5b8101908080359060200190929190505050611a11565b6040518082815260200191505060405180910390f35b34801561066e57600080fd5b5061069b6004803603602081101561068557600080fd5b8101908080359060200190929190505050611b05565b005b3480156106a957600080fd5b506106d6600480360360208110156106c057600080fd5b8101908080359060200190929190505050611b22565b005b3480156106e457600080fd5b50610727600480360360208110156106fb57600080fd5b81019080803573ffffffffffffffffffffffffffffffffffffffff169060200190929190505050611cfc565b005b34801561073557600080fd5b5061073e611d1b565b6040518082815260200191505060405180910390f35b34801561076057600080fd5b506107a36004803603602081101561077757600080fd5b81019080803573ffffffffffffffffffffffffffffffffffffffff169060200190929190505050611d87565b604051808215151515815260200191505060405180910390f35b3480156107c957600080fd5b506107f6600480360360208110156107e057600080fd5b8101908080359060200190929190505050611ddd565b604051808b73ffffffffffffffffffffffffffffffffffffffff1673ffffffffffffffffffffffffffffffffffffffff1681526020018a8152602001898152602001888152602001878152602001868152602001858152602001848152602001838152602001821515151581526020019a505050505050505050505060405180910390f35b34801561088757600080fd5b50610890611e6d565b6040518082815260200191505060405180910390f35b3480156108b257600080fd5b506108df600480360360208110156108c957600080fd5b8101908080359060200190929190505050611eb4565b005b3480156108ed57600080fd5b5061091a6004803603602081101561090457600080fd5b8101908080359060200190929190505050611ed1565b005b610924611501565b151561092f57600080fd5b80600c8190555050565b6000600760003373ffffffffffffffffffffffffffffffffffffffff1673ffffffffffffffffffffffffffffffffffffffff168152602001908152602001600020541415151561098857600080fd5b6000600760003373ffffffffffffffffffffffffffffffffffffffff1673ffffffffffffffffffffffffffffffffffffffff16815260200190815260200160002054905060006109d6611558565b905060006109e382611a11565b9050806002848154811015156109f557fe5b90600052602060002090600a02016006015401600284815481101515610a1757fe5b90600052602060002090600a020160060181905550827ffd5e8607e296ebcd1abcd0081307997763b4dd2bd349f41afcced1dd0f55ecd982600286815481101515610a5e57fe5b90600052602060002090600a020160040154600287815481101515610a7f57fe5b90600052602060002090600a020160050154600288815481101515610aa057fe5b90600052602060002090600a020160060154600289815481101515610ac157fe5b90600052602060002090600a020160070154604051808681526020018581526020018481526020018381526020018281526020019550505050505060405180910390a26001600284815481101515610b1557fe5b90600052602060002090600a0201600401541415610ba35780600284815481101515610b3d57fe5b90600052602060002090600a0201600101819055506000600284815481101515610b6357fe5b90600052602060002090600a0201600201819055506000600284815481101515610b8957fe5b90600052602060002090600a020160030181905550610c46565b60028084815481101515610bb357fe5b90600052602060002090600a0201600401541415610bf55780600284815481101515610bdb57fe5b90600052602060002090600a020160020181905550610c45565b6003600284815481101515610c0657fe5b90600052602060002090600a0201600401541415610c445780600284815481101515610c2e57fe5b90600052602060002090600a0201600301819055505b5b5b600283815481101515610c5557fe5b90600052602060002090600a0201600401600081548092919060010191905055506004600284815481101515610c8757fe5b90600052602060002090600a0201600401541415610d42576001600284815481101515610cb057fe5b90600052602060002090600a0201600501541415610cd657610cd18361117c565b610d41565b60028084815481101515610ce657fe5b90600052602060002090600a0201600501541415610d0c57610d0783611b22565b610d40565b6003600284815481101515610d1d57fe5b90600052602060002090600a0201600501541415610d3f57610d3e8361173e565b5b5b5b5b505050565b600080600760003373ffffffffffffffffffffffffffffffffffffffff1673ffffffffffffffffffffffffffffffffffffffff168152602001908152602001600020549050600281815481101515610d9b57fe5b90600052602060002090600a02016006015491505090565b60006064905090565b60015434141515610dcc57600080fd5b565b60011515600560003373ffffffffffffffffffffffffffffffffffffffff1673ffffffffffffffffffffffffffffffffffffffff16815260200190815260200160002060009054906101000a900460ff16151514151515610e2e57600080fd5b600060016002610140604051908101604052803373ffffffffffffffffffffffffffffffffffffffff168152602001600081526020016000815260200160008152602001600181526020016001815260200160008152602001600954815260200160008152602001600015158152509080600181540180825580915050906001820390600052602060002090600a02016000909192909190915060008201518160000160006101000a81548173ffffffffffffffffffffffffffffffffffffffff021916908373ffffffffffffffffffffffffffffffffffffffff1602179055506020820151816001015560408201518160020155606082015181600301556080820151816004015560a0820151816005015560c0820151816006015560e0820151816007015561010082015181600801556101208201518160090160006101000a81548160ff02191690831515021790555050500390506001600560003373ffffffffffffffffffffffffffffffffffffffff1673ffffffffffffffffffffffffffffffffffffffff16815260200190815260200160002060006101000a81548160ff021916908315150217905550336006600083815260200190815260200160002060006101000a81548173ffffffffffffffffffffffffffffffffffffffff021916908373ffffffffffffffffffffffffffffffffffffffff1602179055506000600460003373ffffffffffffffffffffffffffffffffffffffff1673ffffffffffffffffffffffffffffffffffffffff1681526020019081526020016000208190555080600760003373ffffffffffffffffffffffffffffffffffffffff1673ffffffffffffffffffffffffffffffffffffffff168152602001908152602001600020819055507ff4dd1db653a1088522e9ca377c4d54a81fc4c56ca3183a81caf1303eda7e1a95816040518082815260200191505060405180910390a150565b6110fb611501565b151561110657600080fd5b80600a8190555050565b600080600760003373ffffffffffffffffffffffffffffffffffffffff1673ffffffffffffffffffffffffffffffffffffffff16815260200190815260200160002054905060028181548110151561116457fe5b90600052602060002090600a02016004015491505090565b60028181548110151561118b57fe5b90600052602060002090600a0201600701546002828154811015156111ac57fe5b90600052602060002090600a02016006015410156112885760006002828154811015156111d557fe5b90600052602060002090600a02016006018190555060006002828154811015156111fb57fe5b90600052602060002090600a020160080181905550600160028281548110151561122157fe5b90600052602060002090600a020160050181905550600160028281548110151561124757fe5b90600052602060002090600a02016004018190555060095460028281548110151561126e57fe5b90600052602060002090600a020160070181905550611353565b600060028281548110151561129957fe5b90600052602060002090600a020160060181905550600c546002828154811015156112c057fe5b90600052602060002090600a0201600801819055506002818154811015156112e457fe5b90600052602060002090600a020160050160008154809291906001019190505550600a5460028281548110151561131757fe5b90600052602060002090600a020160070181905550600160028281548110151561133d57fe5b90600052602060002090600a0201600401819055505b50565b600080600760003373ffffffffffffffffffffffffffffffffffffffff1673ffffffffffffffffffffffffffffffffffffffff1681526020019081526020016000205490506002818154811015156113aa57fe5b90600052602060002090600a02016005015491505090565b6113ca611501565b15156113d557600080fd5b600073ffffffffffffffffffffffffffffffffffffffff166000809054906101000a900473ffffffffffffffffffffffffffffffffffffffff1673ffffffffffffffffffffffffffffffffffffffff167f8be0079c531659141344cd1fd0a4f28419497f9722a3daafe3b4186f6b6457e060405160405180910390a360008060006101000a81548173ffffffffffffffffffffffffffffffffffffffff021916908373ffffffffffffffffffffffffffffffffffffffff160217905550565b61149c611501565b15156114a757600080fd5b80600d8190555050565b6000600154905090565b6114c3611501565b15156114ce57600080fd5b80600e8190555050565b60008060009054906101000a900473ffffffffffffffffffffffffffffffffffffffff16905090565b60008060009054906101000a900473ffffffffffffffffffffffffffffffffffffffff1673ffffffffffffffffffffffffffffffffffffffff163373ffffffffffffffffffffffffffffffffffffffff1614905090565b600060086000815480929190600101919050555060644260085433604051602001808481526020018381526020018273ffffffffffffffffffffffffffffffffffffffff1673ffffffffffffffffffffffffffffffffffffffff166c01000000000000000000000000028152601401935050505060405160208183030381529060405280519060200120600190048115156115ef57fe5b06905090565b6000600760003373ffffffffffffffffffffffffffffffffffffffff1673ffffffffffffffffffffffffffffffffffffffff16815260200190815260200160002054905090565b600080600760003373ffffffffffffffffffffffffffffffffffffffff1673ffffffffffffffffffffffffffffffffffffffff16815260200190815260200160002054905060028181548110151561169057fe5b90600052602060002090600a02016007015491505090565b60006002828154811015156116b957fe5b90600052602060002090600a0201600501549050919050565b600080600760003373ffffffffffffffffffffffffffffffffffffffff1673ffffffffffffffffffffffffffffffffffffffff16815260200190815260200160002054905060028181548110151561172657fe5b90600052602060002090600a02016003015491505090565b60028181548110151561174d57fe5b90600052602060002090600a02016007015460028281548110151561176e57fe5b90600052602060002090600a020160060154101561184a57600060028281548110151561179757fe5b90600052602060002090600a02016008018190555060016002828154811015156117bd57fe5b90600052602060002090600a02016005018190555060006002828154811015156117e357fe5b90600052602060002090600a020160060181905550600160028281548110151561180957fe5b90600052602060002090600a02016004018190555060095460028281548110151561183057fe5b90600052602060002090600a020160070181905550611991565b600060028281548110151561185b57fe5b90600052602060002090600a020160080181905550600160028281548110151561188157fe5b90600052602060002090600a0201600501819055506009546002828154811015156118a857fe5b90600052602060002090600a02016007018190555060016002828154811015156118ce57fe5b90600052602060002090600a02016004018190555060006002828154811015156118f457fe5b90600052602060002090600a020160060181905550600d54600460003373ffffffffffffffffffffffffffffffffffffffff1673ffffffffffffffffffffffffffffffffffffffff1681526020019081526020016000205401600460003373ffffffffffffffffffffffffffffffffffffffff1673ffffffffffffffffffffffffffffffffffffffff168152602001908152602001600020819055505b50565b80341415156119a257600080fd5b50565b600080600760003373ffffffffffffffffffffffffffffffffffffffff1673ffffffffffffffffffffffffffffffffffffffff1681526020019081526020016000205490506002818154811015156119f957fe5b90600052602060002090600a02016002015491505090565b6000600d821015611a255760199050611b00565b600d8210158015611a365750601982105b15611a445760239050611b00565b60198210158015611a555750602a82105b15611a635760329050611b00565b602a8210158015611a745750603b82105b15611a8257604b9050611b00565b603b8210158015611a935750604782105b15611aa15760649050611b00565b60478210158015611ab25750605382105b15611ac05760969050611b00565b60538210158015611ad15750605882105b15611adf5760fa9050611b00565b6058821115611aff57600a601e83811515611af657fe5b06029050611b00565b5b919050565b611b0d611501565b1515611b1857600080fd5b8060098190555050565b600281815481101515611b3157fe5b90600052602060002090600a020160070154600282815481101515611b5257fe5b90600052602060002090600a0201600601541015611c2e576000600282815481101515611b7b57fe5b90600052602060002090600a0201600801819055506001600282815481101515611ba157fe5b90600052602060002090600a0201600501819055506000600282815481101515611bc757fe5b90600052602060002090600a0201600601819055506001600282815481101515611bed57fe5b90600052602060002090600a020160040181905550600954600282815481101515611c1457fe5b90600052602060002090600a020160070181905550611cf9565b600d54600282815481101515611c4057fe5b90600052602060002090600a020160080181905550600281815481101515611c6457fe5b90600052602060002090600a020160050160008154809291906001019190505550600b54600282815481101515611c9757fe5b90600052602060002090600a0201600701819055506001600282815481101515611cbd57fe5b90600052602060002090600a0201600401819055506000600282815481101515611ce357fe5b90600052602060002090600a0201600601819055505b50565b611d04611501565b1515611d0f57600080fd5b611d1881611eee565b50565b600080600760003373ffffffffffffffffffffffffffffffffffffffff1673ffffffffffffffffffffffffffffffffffffffff168152602001908152602001600020549050600281815481101515611d6f57fe5b90600052602060002090600a02016001015491505090565b6000600560008373ffffffffffffffffffffffffffffffffffffffff1673ffffffffffffffffffffffffffffffffffffffff16815260200190815260200160002060009054906101000a900460ff169050919050565b600281815481101515611dec57fe5b90600052602060002090600a02016000915090508060000160009054906101000a900473ffffffffffffffffffffffffffffffffffffffff16908060010154908060020154908060030154908060040154908060050154908060060154908060070154908060080154908060090160009054906101000a900460ff1690508a565b6000600460003373ffffffffffffffffffffffffffffffffffffffff1673ffffffffffffffffffffffffffffffffffffffff16815260200190815260200160002054905090565b611ebc611501565b1515611ec757600080fd5b8060018190555050565b611ed9611501565b1515611ee457600080fd5b80600b8190555050565b600073ffffffffffffffffffffffffffffffffffffffff168173ffffffffffffffffffffffffffffffffffffffff1614151515611f2a57600080fd5b8073ffffffffffffffffffffffffffffffffffffffff166000809054906101000a900473ffffffffffffffffffffffffffffffffffffffff1673ffffffffffffffffffffffffffffffffffffffff167f8be0079c531659141344cd1fd0a4f28419497f9722a3daafe3b4186f6b6457e060405160405180910390a3806000806101000a81548173ffffffffffffffffffffffffffffffffffffffff021916908373ffffffffffffffffffffffffffffffffffffffff1602179055505056fea165627a7a72305820b22ba069af54abdbcfe7aa6b25f1fa23e1767d2d581b2085e0da3d725e212b3e0029",
  "source": "pragma solidity ^0.5.0;\n\nimport \"./EtherDrive.sol\";\n\ncontract  EtherWheel is EtherDrive {\n\nusing SafeMath for uint256;\n\nevent SpinResults(uint indexed userId, uint spinScore, uint spinCount, uint roundCount, uint roundScore, uint roundGoal);\nevent SpinLanding(uint spinresult);\nevent PlayerRewardPool(uint userId, uint rewardPool);\n\n  uint randNonce = 0;\n  uint roundOneGoal = 250;\n  uint roundTwoGoal = 400;\n  uint roundThreeGoal = 500;\n\n  uint roundOneReward = 10;\n  uint roundTwoReward = 20;\n  uint roundThreeReward = 15;\n\n  // Possible Spin Values\n  uint8 twentyFive = 25;\n  uint8 thirtyFive = 35;\n  uint8 fifty = 50;\n  uint8 seventyFive = 75;\n  uint8 oneHundred = 100;\n  uint8 oneFifty = 150;\n  uint8 twoHundred = 200;\n\n\n  function randMod() public returns(uint) {\n    randNonce++;\n    return uint(keccak256(abi.encodePacked(now, randNonce, msg.sender))) % 100;\n  }\n\n\n\n//   function spinWheel() public {\n//     uint _randNum = randMod(100);\n//     getRoundScore(_randNum);\n//     emit RoundResults(_userId, spinPoints);\n//   }\n\n    // if(_roundScore >= _scoreToWin){\n    //     if(roundNumber == 3){\n    //         players[_userId].roundCount = 0;\n    //     } else {\n    //         addressToCreditBalance[_userAccount] = _roundReward;\n    //     }\n    // } else {\n    //     players[_userId].roundCount = 0;\n    //     players[_userId].paid = false;\n    // }\n    //  uint rewardPool = addressToCreditBalance[_userAccount];\n    // emit PlayerRewardPool(_userId, rewardPool);\n\n    function spinWheel() public {\n        require(addressToId[msg.sender] != 0);\n        uint _userId = addressToId[msg.sender];\n        uint randomNumber = randMod();\n        uint spinScore = getRoundScore(randomNumber);\n        players[_userId].roundScore = players[_userId].roundScore + spinScore;\n        emit SpinResults(_userId, spinScore, players[_userId].spinCount, players[_userId].roundCount,players[_userId].roundScore, players[_userId].roundGoal);\n\n        if(players[_userId].spinCount == 1){\n            players[_userId].spinOne = spinScore;\n            players[_userId].spinTwo = 0;\n            players[_userId].spinThree = 0;\n        } else if(players[_userId].spinCount == 2){\n            players[_userId].spinTwo = spinScore;\n        } else if(players[_userId].spinCount == 3){\n            players[_userId].spinThree = spinScore;\n        }\n\n         players[_userId].spinCount++;\n\n        if(players[_userId].spinCount == 4) {\n            if(players[_userId].roundCount == 1){\n                evaluateRoundOne(_userId);\n            } else if(players[_userId].roundCount == 2) {\n                evaluateRoundTwo(_userId);\n            } else if(players[_userId].roundCount == 3){\n                evaluateRoundThree(_userId);\n            }\n        }\n    }\n\n    function evaluateRoundOne(uint _userId) public {\n        if(players[_userId].roundScore < players[_userId].roundGoal) {\n            players[_userId].roundScore = 0;\n            players[_userId].owed = 0;\n            players[_userId].roundCount = 1;\n            players[_userId].spinCount = 1;\n            players[_userId].roundGoal = roundOneGoal;\n        } else {\n            players[_userId].roundScore = 0;\n            players[_userId].owed = roundOneReward;\n            players[_userId].roundCount++;\n            players[_userId].roundGoal = roundTwoGoal;\n            players[_userId].spinCount = 1;\n        }\n    }\n\n     function evaluateRoundTwo(uint _userId) public {\n        if(players[_userId].roundScore < players[_userId].roundGoal) {\n            players[_userId].owed = 0;\n            players[_userId].roundCount = 1;\n            players[_userId].roundScore = 0;\n            players[_userId].spinCount = 1;\n            players[_userId].roundGoal = roundOneGoal;\n        } else {\n            players[_userId].owed = roundTwoReward;\n            players[_userId].roundCount++;\n            players[_userId].roundGoal = roundThreeGoal;\n            players[_userId].spinCount = 1;\n            players[_userId].roundScore = 0;\n        }\n    }\n\n    function evaluateRoundThree(uint _userId) public {\n        if(players[_userId].roundScore < players[_userId].roundGoal) {\n            players[_userId].owed = 0;\n            players[_userId].roundCount = 1;\n            players[_userId].roundScore = 0;\n            players[_userId].spinCount = 1;\n            players[_userId].roundGoal = roundOneGoal;\n        } else {\n            players[_userId].owed = 0;\n            players[_userId].roundCount = 1;\n            players[_userId].roundGoal = roundOneGoal;\n            players[_userId].spinCount = 1;\n            players[_userId].roundScore = 0;\n            addressToCreditBalance[msg.sender] = addressToCreditBalance[msg.sender] + roundTwoReward;\n        }\n    }\n\n    function getRoundScore(uint _spinNumber) public pure returns (uint){\n      if (_spinNumber < 13) {\n        return 25;\n      } else if (_spinNumber >= 13 && _spinNumber < 25){\n        return 35;\n      } else if (_spinNumber >= 25 && _spinNumber < 42){\n        return 50;\n      } else if (_spinNumber >= 42 && _spinNumber < 59){\n        return 75;\n      } else if (_spinNumber >= 59 && _spinNumber < 71){\n        return 100;\n      } else if (_spinNumber >= 71 && _spinNumber < 83){\n        return 150;\n      } else if (_spinNumber >= 83 && _spinNumber < 88){\n        return 250;\n      } else if (_spinNumber > 88) {\n        return (_spinNumber % 30) * 10;\n      }\n    }\n\n// Functions for owner to set round goal amounts\n    function setRoundOneGoal(uint _goal) external onlyOwner {\n    roundOneGoal = _goal;\n  }\n\n  function setRoundTwoGoal(uint _goal) external onlyOwner {\n    roundTwoGoal = _goal;\n  }\n\n  function setRoundThreeGoal(uint _goal) external onlyOwner {\n    roundThreeGoal = _goal;\n  }\n\n// Functions for owner to change round reward amounts\n  function setRoundOneReward(uint _reward) external onlyOwner {\n    roundOneReward = _reward;\n  }\n\n  function setRoundTwoReward(uint _reward) external onlyOwner {\n    roundTwoReward = _reward;\n  }\n\n  function setRoundThreeReward(uint _reward) external onlyOwner {\n    roundThreeReward = _reward;\n  }\n\n//   Function for owner to change the price to play\n    function setPriceToPlay(uint _price) external onlyOwner {\n     priceToPlay = _price;\n  }\n\n\n    function createPlayer() public {\n    require(activated[msg.sender]!= true);\n    uint userId = players.push(Player(msg.sender, 0, 0, 0, 1, 1, 0, roundOneGoal, 0, false)) - 1 ;\n    activated[msg.sender] = true;\n    idToPlayer[userId] = msg.sender;\n    addressToCreditBalance[msg.sender] = 0;\n    addressToId[msg.sender] = userId;\n    emit NewPlayer(userId);\n  }\n\n\n  }\n\n\n\n\n  /* function firstspinWheel(uint _userId) external onlyOwnerOf(_userId) {\n  Player storage currentPlayer = players[_userId];\n  uint rand = randMod(100) + randMod(.1);\n  if (rand <12.5) {\n    roundCreditBalance = myZombie.winCount.add(1);\n    myZombie.level = myZombie.level.add(1);\n    enemyZombie.lossCount = enemyZombie.lossCount.add(1);\n    feedAndMultiply(_zombieId, enemyZombie.dna, \"zombie\");\n  } else {\n    myZombie.lossCount = myZombie.lossCount.add(1);\n    enemyZombie.winCount = enemyZombie.winCount.add(1);\n    _triggerCooldown(myZombie);\n  }\n} */\n",
  "sourcePath": "/Users/connorpayne/code/EtherDrive/contracts/EtherWheel.sol",
  "compiler": {
    "name": "solc",
    "version": "0.5.0+commit.1d4f565a.Emscripten.clang"
  },
  "schemaVersion": "3.0.3",
  "updatedAt": "2019-03-23T19:40:56.616Z",
  "devdoc": {
    "methods": {
      "isOwner()": {
        "return": "true if `msg.sender` is the owner of the contract."
      },
      "owner()": {
        "return": "the address of the owner."
      },
      "renounceOwnership()": {
        "details": "Allows the current owner to relinquish control of the contract. It will not be possible to call the functions with the `onlyOwner` modifier anymore."
      },
      "transferOwnership(address)": {
        "details": "Allows the current owner to transfer control of the contract to a newOwner.",
        "params": {
          "newOwner": "The address to transfer ownership to."
        }
      }
    }
  },
  "userdoc": {
    "methods": {
      "renounceOwnership()": {
        "notice": "Renouncing ownership will leave the contract without an owner, thereby removing any functionality that is only available to the owner."
      }
    }
  }
}