{
  "contractName": "EtherDrive",
  "abi": [
    {
      "constant": false,
      "inputs": [],
      "name": "renounceOwnership",
      "outputs": [],
      "payable": false,
      "stateMutability": "nonpayable",
      "type": "function"
    },
    {
      "constant": true,
      "inputs": [],
      "name": "owner",
      "outputs": [
        {
          "name": "",
          "type": "address"
        }
      ],
      "payable": false,
      "stateMutability": "view",
      "type": "function"
    },
    {
      "constant": true,
      "inputs": [],
      "name": "isOwner",
      "outputs": [
        {
          "name": "",
          "type": "bool"
        }
      ],
      "payable": false,
      "stateMutability": "view",
      "type": "function"
    },
    {
      "constant": false,
      "inputs": [
        {
          "name": "newOwner",
          "type": "address"
        }
      ],
      "name": "transferOwnership",
      "outputs": [],
      "payable": false,
      "stateMutability": "nonpayable",
      "type": "function"
    },
    {
      "constant": true,
      "inputs": [
        {
          "name": "",
          "type": "uint256"
        }
      ],
      "name": "players",
      "outputs": [
        {
          "name": "account",
          "type": "address"
        },
        {
          "name": "roundCount",
          "type": "uint256"
        },
        {
          "name": "roundScore",
          "type": "uint256"
        },
        {
          "name": "paid",
          "type": "bool"
        }
      ],
      "payable": false,
      "stateMutability": "view",
      "type": "function"
    },
    {
      "anonymous": false,
      "inputs": [
        {
          "indexed": false,
          "name": "userId",
          "type": "uint256"
        }
      ],
      "name": "NewPlayer",
      "type": "event"
    },
    {
      "anonymous": false,
      "inputs": [
        {
          "indexed": true,
          "name": "previousOwner",
          "type": "address"
        },
        {
          "indexed": true,
          "name": "newOwner",
          "type": "address"
        }
      ],
      "name": "OwnershipTransferred",
      "type": "event"
    },
    {
      "constant": false,
      "inputs": [],
      "name": "createPlayer",
      "outputs": [],
      "payable": false,
      "stateMutability": "nonpayable",
      "type": "function"
    },
    {
      "constant": false,
      "inputs": [
        {
          "name": "_amount",
          "type": "uint256"
        }
      ],
      "name": "deposit",
      "outputs": [],
      "payable": true,
      "stateMutability": "payable",
      "type": "function"
    },
    {
      "constant": true,
      "inputs": [],
      "name": "testConnection",
      "outputs": [
        {
          "name": "",
          "type": "uint256"
        }
      ],
      "payable": false,
      "stateMutability": "pure",
      "type": "function"
    },
    {
      "constant": false,
      "inputs": [],
      "name": "payToPlay",
      "outputs": [],
      "payable": true,
      "stateMutability": "payable",
      "type": "function"
    },
    {
      "constant": true,
      "inputs": [],
      "name": "getCreditedAmount",
      "outputs": [
        {
          "name": "",
          "type": "uint256"
        }
      ],
      "payable": false,
      "stateMutability": "view",
      "type": "function"
    },
    {
      "constant": true,
      "inputs": [
        {
          "name": "_userId",
          "type": "uint256"
        }
      ],
      "name": "getRoundCount",
      "outputs": [
        {
          "name": "",
          "type": "uint256"
        }
      ],
      "payable": false,
      "stateMutability": "view",
      "type": "function"
    },
    {
      "constant": true,
      "inputs": [],
      "name": "isAccountActivated",
      "outputs": [
        {
          "name": "",
          "type": "bool"
        }
      ],
      "payable": false,
      "stateMutability": "view",
      "type": "function"
    },
    {
      "constant": true,
      "inputs": [],
      "name": "getPlayerId",
      "outputs": [
        {
          "name": "",
          "type": "uint256"
        }
      ],
      "payable": false,
      "stateMutability": "view",
      "type": "function"
    },
    {
      "constant": true,
      "inputs": [],
      "name": "getPriceToPlay",
      "outputs": [
        {
          "name": "",
          "type": "uint256"
        }
      ],
      "payable": false,
      "stateMutability": "view",
      "type": "function"
    }
  ],
  "bytecode": "0x6080604052600a600155336000806101000a81548173ffffffffffffffffffffffffffffffffffffffff021916908373ffffffffffffffffffffffffffffffffffffffff1602179055506000809054906101000a900473ffffffffffffffffffffffffffffffffffffffff1673ffffffffffffffffffffffffffffffffffffffff16600073ffffffffffffffffffffffffffffffffffffffff167f8be0079c531659141344cd1fd0a4f28419497f9722a3daafe3b4186f6b6457e060405160405180910390a3610ad6806100d46000396000f3fe6080604052600436106100d0576000357c0100000000000000000000000000000000000000000000000000000000900463ffffffff1680630e1930c3146100d55780633412a15c146101045780633e5edbd31461012f5780633fa9fcf814610139578063715018a6146101505780637c1ebbb6146101675780638da5cb5b146101925780638f32d59b146101e9578063ac43666014610218578063b12decb014610243578063b6b55f2514610292578063f2fde38b146102c0578063f71d96cb14610311578063f80f2701146103a5575b600080fd5b3480156100e157600080fd5b506100ea6103d0565b604051808215151515815260200191505060405180910390f35b34801561011057600080fd5b50610119610424565b6040518082815260200191505060405180910390f35b61013761042d565b005b34801561014557600080fd5b5061014e61043f565b005b34801561015c57600080fd5b50610165610700565b005b34801561017357600080fd5b5061017c6107d2565b6040518082815260200191505060405180910390f35b34801561019e57600080fd5b506101a76107dc565b604051808273ffffffffffffffffffffffffffffffffffffffff1673ffffffffffffffffffffffffffffffffffffffff16815260200191505060405180910390f35b3480156101f557600080fd5b506101fe610805565b604051808215151515815260200191505060405180910390f35b34801561022457600080fd5b5061022d61085c565b6040518082815260200191505060405180910390f35b34801561024f57600080fd5b5061027c6004803603602081101561026657600080fd5b81019080803590602001909291905050506108a3565b6040518082815260200191505060405180910390f35b6102be600480360360208110156102a857600080fd5b81019080803590602001909291905050506108cd565b005b3480156102cc57600080fd5b5061030f600480360360208110156102e357600080fd5b81019080803573ffffffffffffffffffffffffffffffffffffffff1690602001909291905050506108de565b005b34801561031d57600080fd5b5061034a6004803603602081101561033457600080fd5b81019080803590602001909291905050506108fd565b604051808573ffffffffffffffffffffffffffffffffffffffff1673ffffffffffffffffffffffffffffffffffffffff1681526020018481526020018381526020018215151515815260200194505050505060405180910390f35b3480156103b157600080fd5b506103ba610969565b6040518082815260200191505060405180910390f35b6000600560003373ffffffffffffffffffffffffffffffffffffffff1673ffffffffffffffffffffffffffffffffffffffff16815260200190815260200160002060009054906101000a900460ff16905090565b60006064905090565b6001543414151561043d57600080fd5b565b60011515600560003373ffffffffffffffffffffffffffffffffffffffff1673ffffffffffffffffffffffffffffffffffffffff16815260200190815260200160002060009054906101000a900460ff1615151415151561049f57600080fd5b60003390506000600160026080604051908101604052808573ffffffffffffffffffffffffffffffffffffffff1681526020016000815260200160008152602001600015158152509080600181540180825580915050906001820390600052602060002090600402016000909192909190915060008201518160000160006101000a81548173ffffffffffffffffffffffffffffffffffffffff021916908373ffffffffffffffffffffffffffffffffffffffff160217905550602082015181600101556040820151816002015560608201518160030160006101000a81548160ff02191690831515021790555050500390506001600560008473ffffffffffffffffffffffffffffffffffffffff1673ffffffffffffffffffffffffffffffffffffffff16815260200190815260200160002060006101000a81548160ff021916908315150217905550816006600083815260200190815260200160002060006101000a81548173ffffffffffffffffffffffffffffffffffffffff021916908373ffffffffffffffffffffffffffffffffffffffff1602179055506000600460008473ffffffffffffffffffffffffffffffffffffffff1673ffffffffffffffffffffffffffffffffffffffff1681526020019081526020016000208190555080600760008473ffffffffffffffffffffffffffffffffffffffff1673ffffffffffffffffffffffffffffffffffffffff168152602001908152602001600020819055507ff4dd1db653a1088522e9ca377c4d54a81fc4c56ca3183a81caf1303eda7e1a95816040518082815260200191505060405180910390a15050565b610708610805565b151561071357600080fd5b600073ffffffffffffffffffffffffffffffffffffffff166000809054906101000a900473ffffffffffffffffffffffffffffffffffffffff1673ffffffffffffffffffffffffffffffffffffffff167f8be0079c531659141344cd1fd0a4f28419497f9722a3daafe3b4186f6b6457e060405160405180910390a360008060006101000a81548173ffffffffffffffffffffffffffffffffffffffff021916908373ffffffffffffffffffffffffffffffffffffffff160217905550565b6000600154905090565b60008060009054906101000a900473ffffffffffffffffffffffffffffffffffffffff16905090565b60008060009054906101000a900473ffffffffffffffffffffffffffffffffffffffff1673ffffffffffffffffffffffffffffffffffffffff163373ffffffffffffffffffffffffffffffffffffffff1614905090565b6000600760003373ffffffffffffffffffffffffffffffffffffffff1673ffffffffffffffffffffffffffffffffffffffff16815260200190815260200160002054905090565b60006002828154811015156108b457fe5b9060005260206000209060040201600101549050919050565b80341415156108db57600080fd5b50565b6108e6610805565b15156108f157600080fd5b6108fa816109b0565b50565b60028181548110151561090c57fe5b90600052602060002090600402016000915090508060000160009054906101000a900473ffffffffffffffffffffffffffffffffffffffff16908060010154908060020154908060030160009054906101000a900460ff16905084565b6000600460003373ffffffffffffffffffffffffffffffffffffffff1673ffffffffffffffffffffffffffffffffffffffff16815260200190815260200160002054905090565b600073ffffffffffffffffffffffffffffffffffffffff168173ffffffffffffffffffffffffffffffffffffffff16141515156109ec57600080fd5b8073ffffffffffffffffffffffffffffffffffffffff166000809054906101000a900473ffffffffffffffffffffffffffffffffffffffff1673ffffffffffffffffffffffffffffffffffffffff167f8be0079c531659141344cd1fd0a4f28419497f9722a3daafe3b4186f6b6457e060405160405180910390a3806000806101000a81548173ffffffffffffffffffffffffffffffffffffffff021916908373ffffffffffffffffffffffffffffffffffffffff1602179055505056fea165627a7a723058200d7b07fc3db0a4648f26cc7151cfdfa5f9ef3b9e0fc4309a38bec0a35414a07d0029",
  "source": "pragma solidity ^0.5.0;\n\nimport \"./Ownable.sol\";\nimport \"./SafeMath.sol\";\n\ncontract EtherDrive is Ownable{\n\n  event NewPlayer(uint userId);\n\n  struct Player {\n    address account;\n    uint roundCount;\n    uint roundScore;\n    bool paid;\n  }\n\n\n    uint priceToPlay = 10;\n\n\n  Player[] public players;\n\n   mapping(address => uint) balanceOf;\n   mapping(address => uint) addressToCreditBalance;\n   mapping(address => bool) activated;\n   mapping(uint => address) idToPlayer;\n   mapping(address => uint) addressToId;\n\n\n   modifier onlyPlayer(uint _userId) {\n    require(msg.sender == idToPlayer[_userId]);\n    _;\n  }\n\n  function createPlayer() public {\n    require(activated[msg.sender] != true);\n    address _userAccount = msg.sender;\n    uint userId = players.push(Player(_userAccount,  0, 0, false)) - 1 ;\n    activated[_userAccount] = true;\n    idToPlayer[userId] = _userAccount;\n    addressToCreditBalance[_userAccount] = 0;\n    addressToId[_userAccount] = userId;\n    emit NewPlayer(userId);\n  }\n\n//   function testCreatePlayer(address _userAccount) public {\n//     uint userId = players.push(Player(_userAccount,  0, 0, false)) ;\n//     emit NewPlayer(userId);\n//   }\n\n    function deposit(uint256 _amount) payable public {\n        require(msg.value == _amount);\n    }\n// /* Only owner of contract can withdraw */\n//     function withdraw() external onlyOwner {\n//     address _owner = owner();\n//     _owner.transfer(address(this).balance);\n//   }\n\n/* Need to customize this to changing priceToPlay, roundGoals and roundRewards */\n  /* function setLevelUpFee(uint _fee) external onlyOwner {\n      levelUpFee = _fee;\n    } */\n\n     function testConnection () public pure returns (uint){\n        return 100;\n         }\n\n    function payToPlay () public payable {\n        require (msg.value == priceToPlay);\n         }\n\n    function getCreditedAmount() public view returns (uint){\n        return addressToCreditBalance[msg.sender];\n    }\n\n    function getRoundCount(uint _userId) public view returns (uint) {\n        return players[_userId].roundCount;\n    }\n\n    function isAccountActivated() public view returns (bool){\n        return (activated[msg.sender]);\n    }\n\n    function getPlayerId() public view returns (uint) {\n        return addressToId[msg.sender];\n    }\n\n    function getPriceToPlay() public view returns (uint) {\n        return priceToPlay;\n    }\n\n}\n",
  "sourcePath": "/Users/connorpayne/code/EtherDrive/contracts/EtherDrive.sol",
  "compiler": {
    "name": "solc",
    "version": "0.5.0+commit.1d4f565a.Emscripten.clang"
  },
  "schemaVersion": "3.0.3",
  "updatedAt": "2019-03-21T10:53:14.867Z",
  "devdoc": {
    "methods": {
      "isOwner()": {
        "return": "true if `msg.sender` is the owner of the contract."
      },
      "owner()": {
        "return": "the address of the owner."
      },
      "renounceOwnership()": {
        "details": "Allows the current owner to relinquish control of the contract. It will not be possible to call the functions with the `onlyOwner` modifier anymore."
      },
      "transferOwnership(address)": {
        "details": "Allows the current owner to transfer control of the contract to a newOwner.",
        "params": {
          "newOwner": "The address to transfer ownership to."
        }
      }
    }
  },
  "userdoc": {
    "methods": {
      "renounceOwnership()": {
        "notice": "Renouncing ownership will leave the contract without an owner, thereby removing any functionality that is only available to the owner."
      }
    }
  }
}