{
  "contractName": "EtherWheel",
  "abi": [
    {
      "constant": true,
      "inputs": [
        {
          "name": "_userId",
          "type": "uint256"
        }
      ],
      "name": "getCreditedAmount",
      "outputs": [
        {
          "name": "",
          "type": "uint256"
        }
      ],
      "payable": false,
      "stateMutability": "view",
      "type": "function",
      "signature": "0x0ade3982"
    },
    {
      "constant": true,
      "inputs": [],
      "name": "isAccountActivated",
      "outputs": [
        {
          "name": "",
          "type": "bool"
        }
      ],
      "payable": false,
      "stateMutability": "view",
      "type": "function",
      "signature": "0x0e1930c3"
    },
    {
      "constant": false,
      "inputs": [],
      "name": "payToPlay",
      "outputs": [],
      "payable": true,
      "stateMutability": "payable",
      "type": "function",
      "signature": "0x3e5edbd3"
    },
    {
      "constant": false,
      "inputs": [],
      "name": "renounceOwnership",
      "outputs": [],
      "payable": false,
      "stateMutability": "nonpayable",
      "type": "function",
      "signature": "0x715018a6"
    },
    {
      "constant": true,
      "inputs": [],
      "name": "owner",
      "outputs": [
        {
          "name": "",
          "type": "address"
        }
      ],
      "payable": false,
      "stateMutability": "view",
      "type": "function",
      "signature": "0x8da5cb5b"
    },
    {
      "constant": true,
      "inputs": [],
      "name": "isOwner",
      "outputs": [
        {
          "name": "",
          "type": "bool"
        }
      ],
      "payable": false,
      "stateMutability": "view",
      "type": "function",
      "signature": "0x8f32d59b"
    },
    {
      "constant": true,
      "inputs": [
        {
          "name": "_userId",
          "type": "uint256"
        }
      ],
      "name": "getRoundCount",
      "outputs": [
        {
          "name": "",
          "type": "uint256"
        }
      ],
      "payable": false,
      "stateMutability": "view",
      "type": "function",
      "signature": "0xb12decb0"
    },
    {
      "constant": false,
      "inputs": [
        {
          "name": "_amount",
          "type": "uint256"
        }
      ],
      "name": "deposit",
      "outputs": [],
      "payable": true,
      "stateMutability": "payable",
      "type": "function",
      "signature": "0xb6b55f25"
    },
    {
      "constant": true,
      "inputs": [
        {
          "name": "_userAccount",
          "type": "address"
        }
      ],
      "name": "getPlayerId",
      "outputs": [
        {
          "name": "",
          "type": "uint256"
        }
      ],
      "payable": false,
      "stateMutability": "view",
      "type": "function",
      "signature": "0xc4ae16a8"
    },
    {
      "constant": false,
      "inputs": [],
      "name": "_createPlayer",
      "outputs": [],
      "payable": false,
      "stateMutability": "nonpayable",
      "type": "function",
      "signature": "0xf02b1e8b"
    },
    {
      "constant": false,
      "inputs": [
        {
          "name": "newOwner",
          "type": "address"
        }
      ],
      "name": "transferOwnership",
      "outputs": [],
      "payable": false,
      "stateMutability": "nonpayable",
      "type": "function",
      "signature": "0xf2fde38b"
    },
    {
      "constant": true,
      "inputs": [
        {
          "name": "",
          "type": "uint256"
        }
      ],
      "name": "players",
      "outputs": [
        {
          "name": "account",
          "type": "address"
        },
        {
          "name": "roundCount",
          "type": "uint256"
        },
        {
          "name": "roundScore",
          "type": "uint256"
        },
        {
          "name": "paid",
          "type": "bool"
        }
      ],
      "payable": false,
      "stateMutability": "view",
      "type": "function",
      "signature": "0xf71d96cb"
    },
    {
      "anonymous": false,
      "inputs": [
        {
          "indexed": false,
          "name": "userId",
          "type": "uint256"
        },
        {
          "indexed": false,
          "name": "roundNumber",
          "type": "uint256"
        },
        {
          "indexed": false,
          "name": "spinOne",
          "type": "uint256"
        },
        {
          "indexed": false,
          "name": "spinTwo",
          "type": "uint256"
        },
        {
          "indexed": false,
          "name": "spinThree",
          "type": "uint256"
        },
        {
          "indexed": false,
          "name": "roundScore",
          "type": "uint256"
        }
      ],
      "name": "RoundResults",
      "type": "event",
      "signature": "0xe0b567f256a5601a57602f8a6dab7faba423582f0959e5f429bcdf3b09909483"
    },
    {
      "anonymous": false,
      "inputs": [
        {
          "indexed": false,
          "name": "spinresult",
          "type": "uint256"
        }
      ],
      "name": "SpinLanding",
      "type": "event",
      "signature": "0x6f412c727e1597d6c3ae2306971f44bdbf2360b1e377440659b855b6ad834968"
    },
    {
      "anonymous": false,
      "inputs": [
        {
          "indexed": false,
          "name": "userId",
          "type": "uint256"
        },
        {
          "indexed": false,
          "name": "rewardPool",
          "type": "uint256"
        }
      ],
      "name": "PlayerRewardPool",
      "type": "event",
      "signature": "0x8d16b627c8546020a8745380f773c8f6e7253fe0ddfe40b8b2c6b0fa2b21c9f1"
    },
    {
      "anonymous": false,
      "inputs": [
        {
          "indexed": false,
          "name": "userId",
          "type": "uint256"
        }
      ],
      "name": "NewPlayer",
      "type": "event",
      "signature": "0xf4dd1db653a1088522e9ca377c4d54a81fc4c56ca3183a81caf1303eda7e1a95"
    },
    {
      "anonymous": false,
      "inputs": [
        {
          "indexed": true,
          "name": "previousOwner",
          "type": "address"
        },
        {
          "indexed": true,
          "name": "newOwner",
          "type": "address"
        }
      ],
      "name": "OwnershipTransferred",
      "type": "event",
      "signature": "0x8be0079c531659141344cd1fd0a4f28419497f9722a3daafe3b4186f6b6457e0"
    },
    {
      "constant": false,
      "inputs": [
        {
          "name": "_userId",
          "type": "uint256"
        }
      ],
      "name": "checkRound",
      "outputs": [],
      "payable": false,
      "stateMutability": "nonpayable",
      "type": "function",
      "signature": "0xf4b19eff"
    },
    {
      "constant": false,
      "inputs": [
        {
          "name": "_goal",
          "type": "uint256"
        }
      ],
      "name": "setRoundOneGoal",
      "outputs": [],
      "payable": false,
      "stateMutability": "nonpayable",
      "type": "function",
      "signature": "0xde3b887d"
    },
    {
      "constant": false,
      "inputs": [
        {
          "name": "_goal",
          "type": "uint256"
        }
      ],
      "name": "setRoundTwoGoal",
      "outputs": [],
      "payable": false,
      "stateMutability": "nonpayable",
      "type": "function",
      "signature": "0x4ca6ab6b"
    },
    {
      "constant": false,
      "inputs": [
        {
          "name": "_goal",
          "type": "uint256"
        }
      ],
      "name": "setRoundThreeGoal",
      "outputs": [],
      "payable": false,
      "stateMutability": "nonpayable",
      "type": "function",
      "signature": "0xfd87aad3"
    },
    {
      "constant": false,
      "inputs": [
        {
          "name": "_reward",
          "type": "uint256"
        }
      ],
      "name": "setRoundOneReward",
      "outputs": [],
      "payable": false,
      "stateMutability": "nonpayable",
      "type": "function",
      "signature": "0x0de96ebe"
    },
    {
      "constant": false,
      "inputs": [
        {
          "name": "_reward",
          "type": "uint256"
        }
      ],
      "name": "setRoundTwoReward",
      "outputs": [],
      "payable": false,
      "stateMutability": "nonpayable",
      "type": "function",
      "signature": "0x7bbac6e6"
    },
    {
      "constant": false,
      "inputs": [
        {
          "name": "_reward",
          "type": "uint256"
        }
      ],
      "name": "setRoundThreeReward",
      "outputs": [],
      "payable": false,
      "stateMutability": "nonpayable",
      "type": "function",
      "signature": "0x87d6fb0a"
    },
    {
      "constant": false,
      "inputs": [
        {
          "name": "_price",
          "type": "uint256"
        }
      ],
      "name": "setPriceToPlay",
      "outputs": [],
      "payable": false,
      "stateMutability": "nonpayable",
      "type": "function",
      "signature": "0xfac83957"
    }
  ],
  "bytecode": "0x6080604052600a600155600060085560fa600955610190600a556101f4600b55600a600c556014600d55600f600e556019600f60006101000a81548160ff021916908360ff1602179055506023600f60016101000a81548160ff021916908360ff1602179055506032600f60026101000a81548160ff021916908360ff160217905550604b600f60036101000a81548160ff021916908360ff1602179055506064600f60046101000a81548160ff021916908360ff1602179055506096600f60056101000a81548160ff021916908360ff16021790555060c8600f60066101000a81548160ff021916908360ff160217905550336000806101000a81548173ffffffffffffffffffffffffffffffffffffffff021916908373ffffffffffffffffffffffffffffffffffffffff1602179055506000809054906101000a900473ffffffffffffffffffffffffffffffffffffffff1673ffffffffffffffffffffffffffffffffffffffff16600073ffffffffffffffffffffffffffffffffffffffff167f8be0079c531659141344cd1fd0a4f28419497f9722a3daafe3b4186f6b6457e060405160405180910390a36112b5806101bd6000396000f3fe608060405260043610610112576000357c0100000000000000000000000000000000000000000000000000000000900463ffffffff1680630ade3982146101175780630de96ebe146101665780630e1930c3146101a15780633e5edbd3146101d05780634ca6ab6b146101da578063715018a6146102155780637bbac6e61461022c57806387d6fb0a146102675780638da5cb5b146102a25780638f32d59b146102f9578063b12decb014610328578063b6b55f2514610377578063c4ae16a8146103a5578063de3b887d1461040a578063f02b1e8b14610445578063f2fde38b1461045c578063f4b19eff146104ad578063f71d96cb146104e8578063fac839571461057c578063fd87aad3146105b7575b600080fd5b34801561012357600080fd5b506101506004803603602081101561013a57600080fd5b81019080803590602001909291905050506105f2565b6040518082815260200191505060405180910390f35b34801561017257600080fd5b5061019f6004803603602081101561018957600080fd5b810190808035906020019092919050505061060f565b005b3480156101ad57600080fd5b506101b661062c565b604051808215151515815260200191505060405180910390f35b6101d8610680565b005b3480156101e657600080fd5b50610213600480360360208110156101fd57600080fd5b8101908080359060200190929190505050610692565b005b34801561022157600080fd5b5061022a6106af565b005b34801561023857600080fd5b506102656004803603602081101561024f57600080fd5b8101908080359060200190929190505050610781565b005b34801561027357600080fd5b506102a06004803603602081101561028a57600080fd5b810190808035906020019092919050505061079e565b005b3480156102ae57600080fd5b506102b76107bb565b604051808273ffffffffffffffffffffffffffffffffffffffff1673ffffffffffffffffffffffffffffffffffffffff16815260200191505060405180910390f35b34801561030557600080fd5b5061030e6107e4565b604051808215151515815260200191505060405180910390f35b34801561033457600080fd5b506103616004803603602081101561034b57600080fd5b810190808035906020019092919050505061083b565b6040518082815260200191505060405180910390f35b6103a36004803603602081101561038d57600080fd5b8101908080359060200190929190505050610865565b005b3480156103b157600080fd5b506103f4600480360360208110156103c857600080fd5b81019080803573ffffffffffffffffffffffffffffffffffffffff169060200190929190505050610876565b6040518082815260200191505060405180910390f35b34801561041657600080fd5b506104436004803603602081101561042d57600080fd5b81019080803590602001909291905050506108f9565b005b34801561045157600080fd5b5061045a610916565b005b34801561046857600080fd5b506104ab6004803603602081101561047f57600080fd5b81019080803573ffffffffffffffffffffffffffffffffffffffff169060200190929190505050610baa565b005b3480156104b957600080fd5b506104e6600480360360208110156104d057600080fd5b8101908080359060200190929190505050610bc9565b005b3480156104f457600080fd5b506105216004803603602081101561050b57600080fd5b8101908080359060200190929190505050610cbe565b604051808573ffffffffffffffffffffffffffffffffffffffff1673ffffffffffffffffffffffffffffffffffffffff1681526020018481526020018381526020018215151515815260200194505050505060405180910390f35b34801561058857600080fd5b506105b56004803603602081101561059f57600080fd5b8101908080359060200190929190505050610d2a565b005b3480156105c357600080fd5b506105f0600480360360208110156105da57600080fd5b8101908080359060200190929190505050610d47565b005b600060046000838152602001908152602001600020549050919050565b6106176107e4565b151561062257600080fd5b80600c8190555050565b6000600560003373ffffffffffffffffffffffffffffffffffffffff1673ffffffffffffffffffffffffffffffffffffffff16815260200190815260200160002060009054906101000a900460ff16905090565b6001543414151561069057600080fd5b565b61069a6107e4565b15156106a557600080fd5b80600a8190555050565b6106b76107e4565b15156106c257600080fd5b600073ffffffffffffffffffffffffffffffffffffffff166000809054906101000a900473ffffffffffffffffffffffffffffffffffffffff1673ffffffffffffffffffffffffffffffffffffffff167f8be0079c531659141344cd1fd0a4f28419497f9722a3daafe3b4186f6b6457e060405160405180910390a360008060006101000a81548173ffffffffffffffffffffffffffffffffffffffff021916908373ffffffffffffffffffffffffffffffffffffffff160217905550565b6107896107e4565b151561079457600080fd5b80600d8190555050565b6107a66107e4565b15156107b157600080fd5b80600e8190555050565b60008060009054906101000a900473ffffffffffffffffffffffffffffffffffffffff16905090565b60008060009054906101000a900473ffffffffffffffffffffffffffffffffffffffff1673ffffffffffffffffffffffffffffffffffffffff163373ffffffffffffffffffffffffffffffffffffffff1614905090565b600060028281548110151561084c57fe5b9060005260206000209060040201600101549050919050565b803414151561087357600080fd5b50565b60003373ffffffffffffffffffffffffffffffffffffffff168273ffffffffffffffffffffffffffffffffffffffff161415156108b257600080fd5b600760008373ffffffffffffffffffffffffffffffffffffffff1673ffffffffffffffffffffffffffffffffffffffff168152602001908152602001600020549050919050565b6109016107e4565b151561090c57600080fd5b8060098190555050565b60001515600560003373ffffffffffffffffffffffffffffffffffffffff1673ffffffffffffffffffffffffffffffffffffffff16815260200190815260200160002060009054906101000a900460ff16151514151561097557600080fd5b60003390506000600160026080604051908101604052808573ffffffffffffffffffffffffffffffffffffffff1681526020016000815260200160008152602001600015158152509080600181540180825580915050906001820390600052602060002090600402016000909192909190915060008201518160000160006101000a81548173ffffffffffffffffffffffffffffffffffffffff021916908373ffffffffffffffffffffffffffffffffffffffff160217905550602082015181600101556040820151816002015560608201518160030160006101000a81548160ff02191690831515021790555050500390506001600560003373ffffffffffffffffffffffffffffffffffffffff1673ffffffffffffffffffffffffffffffffffffffff16815260200190815260200160002060006101000a81548160ff021916908315150217905550336006600083815260200190815260200160002060006101000a81548173ffffffffffffffffffffffffffffffffffffffff021916908373ffffffffffffffffffffffffffffffffffffffff1602179055506000600460008381526020019081526020016000208190555080600760003373ffffffffffffffffffffffffffffffffffffffff1673ffffffffffffffffffffffffffffffffffffffff168152602001908152602001600020819055507ff4dd1db653a1088522e9ca377c4d54a81fc4c56ca3183a81caf1303eda7e1a95816040518082815260200191505060405180910390a15050565b610bb26107e4565b1515610bbd57600080fd5b610bc681610d64565b50565b806006600082815260200190815260200160002060009054906101000a900473ffffffffffffffffffffffffffffffffffffffff1673ffffffffffffffffffffffffffffffffffffffff163373ffffffffffffffffffffffffffffffffffffffff16141515610c3757600080fd5b6000600283815481101515610c4857fe5b90600052602060002090600402019050600081600101541415610c7957610c7483600954600c54610e5e565b610cb9565b600181600101541415610c9a57610c9583600a54600d54610e5e565b610cb8565b600281600101541415610cb757610cb683600b54600e54610e5e565b5b5b5b505050565b600281815481101515610ccd57fe5b90600052602060002090600402016000915090508060000160009054906101000a900473ffffffffffffffffffffffffffffffffffffffff16908060010154908060020154908060030160009054906101000a900460ff16905084565b610d326107e4565b1515610d3d57600080fd5b8060018190555050565b610d4f6107e4565b1515610d5a57600080fd5b80600b8190555050565b600073ffffffffffffffffffffffffffffffffffffffff168173ffffffffffffffffffffffffffffffffffffffff1614151515610da057600080fd5b8073ffffffffffffffffffffffffffffffffffffffff166000809054906101000a900473ffffffffffffffffffffffffffffffffffffffff1673ffffffffffffffffffffffffffffffffffffffff167f8be0079c531659141344cd1fd0a4f28419497f9722a3daafe3b4186f6b6457e060405160405180910390a3806000806101000a81548173ffffffffffffffffffffffffffffffffffffffff021916908373ffffffffffffffffffffffffffffffffffffffff16021790555050565b6000600284815481101515610e6f57fe5b9060005260206000209060040201905060006004600086815260200190815260200160002081905550610eb06001826001015461105890919063ffffffff16565b816001018190555060008160010154905060008390506000610eda610ed56064611079565b611121565b90506000610ef0610eeb6064611079565b611121565b90506000610f06610f016064611079565b611121565b90506000818385010190507fe0b567f256a5601a57602f8a6dab7faba423582f0959e5f429bcdf3b099094838a878686868660405180878152602001868152602001858152602001848152602001838152602001828152602001965050505050505060405180910390a18881101515610fcc576003861415610fae576000876001018190555060008760030160006101000a81548160ff021916908315150217905550610fc7565b84600460008c8152602001908152602001600020819055505b610ff4565b6000876001018190555060008760030160006101000a81548160ff0219169083151502179055505b6000600460008c81526020019081526020016000205490507f8d16b627c8546020a8745380f773c8f6e7253fe0ddfe40b8b2c6b0fa2b21c9f18b82604051808381526020018281526020019250505060405180910390a15050505050505050505050565b600080828401905083811015151561106f57600080fd5b8091505092915050565b6000611091600160085461105890919063ffffffff16565b600881905550814233600854604051602001808481526020018373ffffffffffffffffffffffffffffffffffffffff1673ffffffffffffffffffffffffffffffffffffffff166c010000000000000000000000000281526014018281526020019350505050604051602081830303815290604052805190602001206001900481151561111957fe5b069050919050565b60007f6f412c727e1597d6c3ae2306971f44bdbf2360b1e377440659b855b6ad834968826040518082815260200191505060405180910390a1600d82101561116c5760199050611246565b600d821015801561117d5750601982105b1561118b5760239050611246565b6019821015801561119c5750602a82105b156111aa5760329050611246565b602a82101580156111bb5750603b82105b156111c957604b9050611246565b603b82101580156111da5750604782105b156111e85760649050611246565b604782101580156111f95750605382105b156112075760969050611246565b605382101580156112185750605882105b156112265760fa9050611246565b611243600a611235601e611079565b61124b90919063ffffffff16565b90505b919050565b60008083141561125e5760009050611283565b6000828402905082848281151561127157fe5b0414151561127e57600080fd5b809150505b9291505056fea165627a7a72305820e16c386806014bca1e4f066f0ebaf882ca66fb6986f5116517a42014e8e871b40029",
  "source": "pragma solidity ^0.5.0;\n\nimport \"./EtherDrive.sol\";\n\ncontract  EtherWheel is EtherDrive {\n\nusing SafeMath for uint256;\n\nevent RoundResults(uint userId, uint roundNumber, uint spinOne, uint spinTwo, uint spinThree, uint roundScore);\nevent SpinLanding(uint spinresult);\nevent PlayerRewardPool(uint userId, uint rewardPool);\n\n  uint randNonce = 0;\n  uint roundOneGoal = 250;\n  uint roundTwoGoal = 400;\n  uint roundThreeGoal = 500;\n\n  uint roundOneReward = 10;\n  uint roundTwoReward = 20;\n  uint roundThreeReward = 15;\n\n  // Possible Spin Values\n  uint8 twentyFive = 25;\n  uint8 thirtyFive = 35;\n  uint8 fifty = 50;\n  uint8 seventyFive = 75;\n  uint8 oneHundred = 100;\n  uint8 oneFifty = 150;\n  uint8 twoHundred = 200;\n\n\n  function randMod(uint _modulus) internal returns(uint) {\n    randNonce = randNonce.add(1);\n    return uint(keccak256(abi.encodePacked(now, msg.sender, randNonce))) % _modulus;\n  }\n\n\n  function spinWheel(uint _userId, uint _scoreToWin, uint _roundReward) internal {\n    Player storage currentPlayer = players[_userId];\n    idToCreditBalance[_userId] = 0;\n    currentPlayer.roundCount = currentPlayer.roundCount.add(1);\n    uint roundNumber = currentPlayer.roundCount;\n    uint roundReward = _roundReward;\n    uint spinOnePoints = getRoundScore(randMod(100));\n    uint spinTwoPoints = getRoundScore(randMod(100));\n    uint spinThreePoints = getRoundScore(randMod(100));\n    uint _roundScore = spinOnePoints + spinTwoPoints + spinThreePoints;\n\n    emit RoundResults(_userId, roundNumber, spinOnePoints, spinTwoPoints, spinThreePoints, _roundScore);\n    if(_roundScore >= _scoreToWin){\n        if(roundNumber == 3){\n            currentPlayer.roundCount = 0;\n            currentPlayer.paid = false;\n\n        } else {\n            idToCreditBalance[_userId] = roundReward;\n        }\n    } else {\n        currentPlayer.roundCount = 0;\n        currentPlayer.paid = false;\n    }\n    uint rewardPool = idToCreditBalance[_userId];\n    emit PlayerRewardPool(_userId, rewardPool);\n    }\n\n\n    function checkRound(uint _userId) public onlyPlayer(_userId){\n      Player storage currentPlayer = players[_userId];\n      if(currentPlayer.roundCount ==  0) {\n        spinWheel(_userId, roundOneGoal, roundOneReward);\n      } else if(currentPlayer.roundCount ==  1) {\n        spinWheel(_userId, roundTwoGoal, roundTwoReward);\n      } else if(currentPlayer.roundCount ==  2) {\n        spinWheel(_userId, roundThreeGoal, roundThreeReward);\n      }\n    }\n\n    function getRoundScore(uint _spinNumber) private returns (uint){\n        emit SpinLanding(_spinNumber);\n      if (_spinNumber < 13) {\n        return 25;\n      } else if (_spinNumber >= 13 && _spinNumber < 25){\n        return 35;\n      } else if (_spinNumber >= 25 && _spinNumber < 42){\n        return 50;\n      } else if (_spinNumber >= 42 && _spinNumber < 59){\n        return 75;\n      } else if (_spinNumber >= 59 && _spinNumber < 71){\n        return 100;\n      } else if (_spinNumber >= 71 && _spinNumber < 83){\n        return 150;\n      } else if (_spinNumber >= 83 && _spinNumber < 88){\n        return 250;\n      } else {\n        return randMod(30).mul(10);\n      }\n    }\n\n// Functions for owner to set round goal amounts\n    function setRoundOneGoal(uint _goal) external onlyOwner {\n    roundOneGoal = _goal;\n  }\n\n  function setRoundTwoGoal(uint _goal) external onlyOwner {\n    roundTwoGoal = _goal;\n  }\n\n  function setRoundThreeGoal(uint _goal) external onlyOwner {\n    roundThreeGoal = _goal;\n  }\n\n// Functions for owner to change round reward amounts\n  function setRoundOneReward(uint _reward) external onlyOwner {\n    roundOneReward = _reward;\n  }\n\n   function setRoundTwoReward(uint _reward) external onlyOwner {\n    roundTwoReward = _reward;\n  }\n\n   function setRoundThreeReward(uint _reward) external onlyOwner {\n    roundThreeReward = _reward;\n  }\n\n//   Function for owner to change the price to play\n    function setPriceToPlay(uint _price) external onlyOwner {\n     priceToPlay = _price;\n  }\n\n\n  }\n\n\n\n\n  /* function firstspinWheel(uint _userId) external onlyOwnerOf(_userId) {\n  Player storage currentPlayer = players[_userId];\n  uint rand = randMod(100) + randMod(.1);\n  if (rand <12.5) {\n    roundCreditBalance = myZombie.winCount.add(1);\n    myZombie.level = myZombie.level.add(1);\n    enemyZombie.lossCount = enemyZombie.lossCount.add(1);\n    feedAndMultiply(_zombieId, enemyZombie.dna, \"zombie\");\n  } else {\n    myZombie.lossCount = myZombie.lossCount.add(1);\n    enemyZombie.winCount = enemyZombie.winCount.add(1);\n    _triggerCooldown(myZombie);\n  }\n} */\n",
  "sourcePath": "/Users/connorpayne/code/EtherDrive/contracts/EtherWheel.sol",
  "compiler": {
    "name": "solc",
    "version": "0.5.0+commit.1d4f565a.Emscripten.clang"
  },
  "schemaVersion": "3.0.3",
  "updatedAt": "2019-03-19T22:19:46.992Z",
  "devdoc": {
    "methods": {
      "isOwner()": {
        "return": "true if `msg.sender` is the owner of the contract."
      },
      "owner()": {
        "return": "the address of the owner."
      },
      "renounceOwnership()": {
        "details": "Allows the current owner to relinquish control of the contract. It will not be possible to call the functions with the `onlyOwner` modifier anymore."
      },
      "transferOwnership(address)": {
        "details": "Allows the current owner to transfer control of the contract to a newOwner.",
        "params": {
          "newOwner": "The address to transfer ownership to."
        }
      }
    }
  },
  "userdoc": {
    "methods": {
      "renounceOwnership()": {
        "notice": "Renouncing ownership will leave the contract without an owner, thereby removing any functionality that is only available to the owner."
      }
    }
  }
}