{
  "contractName": "EtherWheel",
  "abi": [
    {
      "constant": true,
      "inputs": [],
      "name": "isAccountActivated",
      "outputs": [
        {
          "name": "",
          "type": "bool"
        }
      ],
      "payable": false,
      "stateMutability": "view",
      "type": "function",
      "signature": "0x0e1930c3"
    },
    {
      "constant": true,
      "inputs": [],
      "name": "testConnection",
      "outputs": [
        {
          "name": "",
          "type": "uint256"
        }
      ],
      "payable": false,
      "stateMutability": "pure",
      "type": "function",
      "signature": "0x3412a15c"
    },
    {
      "constant": false,
      "inputs": [],
      "name": "payToPlay",
      "outputs": [],
      "payable": true,
      "stateMutability": "payable",
      "type": "function",
      "signature": "0x3e5edbd3"
    },
    {
      "constant": false,
      "inputs": [],
      "name": "createPlayer",
      "outputs": [],
      "payable": false,
      "stateMutability": "nonpayable",
      "type": "function",
      "signature": "0x3fa9fcf8"
    },
    {
      "constant": false,
      "inputs": [],
      "name": "renounceOwnership",
      "outputs": [],
      "payable": false,
      "stateMutability": "nonpayable",
      "type": "function",
      "signature": "0x715018a6"
    },
    {
      "constant": true,
      "inputs": [],
      "name": "getPriceToPlay",
      "outputs": [
        {
          "name": "",
          "type": "uint256"
        }
      ],
      "payable": false,
      "stateMutability": "view",
      "type": "function",
      "signature": "0x7c1ebbb6"
    },
    {
      "constant": true,
      "inputs": [],
      "name": "owner",
      "outputs": [
        {
          "name": "",
          "type": "address"
        }
      ],
      "payable": false,
      "stateMutability": "view",
      "type": "function",
      "signature": "0x8da5cb5b"
    },
    {
      "constant": true,
      "inputs": [],
      "name": "isOwner",
      "outputs": [
        {
          "name": "",
          "type": "bool"
        }
      ],
      "payable": false,
      "stateMutability": "view",
      "type": "function",
      "signature": "0x8f32d59b"
    },
    {
      "constant": true,
      "inputs": [],
      "name": "getPlayerId",
      "outputs": [
        {
          "name": "",
          "type": "uint256"
        }
      ],
      "payable": false,
      "stateMutability": "view",
      "type": "function",
      "signature": "0xac436660"
    },
    {
      "constant": true,
      "inputs": [
        {
          "name": "_userId",
          "type": "uint256"
        }
      ],
      "name": "getRoundCount",
      "outputs": [
        {
          "name": "",
          "type": "uint256"
        }
      ],
      "payable": false,
      "stateMutability": "view",
      "type": "function",
      "signature": "0xb12decb0"
    },
    {
      "constant": false,
      "inputs": [
        {
          "name": "_amount",
          "type": "uint256"
        }
      ],
      "name": "deposit",
      "outputs": [],
      "payable": true,
      "stateMutability": "payable",
      "type": "function",
      "signature": "0xb6b55f25"
    },
    {
      "constant": false,
      "inputs": [
        {
          "name": "newOwner",
          "type": "address"
        }
      ],
      "name": "transferOwnership",
      "outputs": [],
      "payable": false,
      "stateMutability": "nonpayable",
      "type": "function",
      "signature": "0xf2fde38b"
    },
    {
      "constant": true,
      "inputs": [
        {
          "name": "",
          "type": "uint256"
        }
      ],
      "name": "players",
      "outputs": [
        {
          "name": "account",
          "type": "address"
        },
        {
          "name": "roundCount",
          "type": "uint256"
        },
        {
          "name": "roundScore",
          "type": "uint256"
        },
        {
          "name": "paid",
          "type": "bool"
        }
      ],
      "payable": false,
      "stateMutability": "view",
      "type": "function",
      "signature": "0xf71d96cb"
    },
    {
      "constant": true,
      "inputs": [],
      "name": "getCreditedAmount",
      "outputs": [
        {
          "name": "",
          "type": "uint256"
        }
      ],
      "payable": false,
      "stateMutability": "view",
      "type": "function",
      "signature": "0xf80f2701"
    },
    {
      "anonymous": false,
      "inputs": [
        {
          "indexed": false,
          "name": "userId",
          "type": "uint256"
        },
        {
          "indexed": false,
          "name": "roundNumber",
          "type": "uint256"
        },
        {
          "indexed": false,
          "name": "spinOne",
          "type": "uint256"
        },
        {
          "indexed": false,
          "name": "spinTwo",
          "type": "uint256"
        },
        {
          "indexed": false,
          "name": "spinThree",
          "type": "uint256"
        },
        {
          "indexed": false,
          "name": "roundScore",
          "type": "uint256"
        }
      ],
      "name": "RoundResults",
      "type": "event",
      "signature": "0xe0b567f256a5601a57602f8a6dab7faba423582f0959e5f429bcdf3b09909483"
    },
    {
      "anonymous": false,
      "inputs": [
        {
          "indexed": false,
          "name": "spinresult",
          "type": "uint256"
        }
      ],
      "name": "SpinLanding",
      "type": "event",
      "signature": "0x6f412c727e1597d6c3ae2306971f44bdbf2360b1e377440659b855b6ad834968"
    },
    {
      "anonymous": false,
      "inputs": [
        {
          "indexed": false,
          "name": "userId",
          "type": "uint256"
        },
        {
          "indexed": false,
          "name": "rewardPool",
          "type": "uint256"
        }
      ],
      "name": "PlayerRewardPool",
      "type": "event",
      "signature": "0x8d16b627c8546020a8745380f773c8f6e7253fe0ddfe40b8b2c6b0fa2b21c9f1"
    },
    {
      "anonymous": false,
      "inputs": [
        {
          "indexed": false,
          "name": "userId",
          "type": "uint256"
        }
      ],
      "name": "NewPlayer",
      "type": "event",
      "signature": "0xf4dd1db653a1088522e9ca377c4d54a81fc4c56ca3183a81caf1303eda7e1a95"
    },
    {
      "anonymous": false,
      "inputs": [
        {
          "indexed": true,
          "name": "previousOwner",
          "type": "address"
        },
        {
          "indexed": true,
          "name": "newOwner",
          "type": "address"
        }
      ],
      "name": "OwnershipTransferred",
      "type": "event",
      "signature": "0x8be0079c531659141344cd1fd0a4f28419497f9722a3daafe3b4186f6b6457e0"
    },
    {
      "constant": false,
      "inputs": [
        {
          "name": "_goal",
          "type": "uint256"
        }
      ],
      "name": "setRoundOneGoal",
      "outputs": [],
      "payable": false,
      "stateMutability": "nonpayable",
      "type": "function",
      "signature": "0xde3b887d"
    },
    {
      "constant": false,
      "inputs": [
        {
          "name": "_goal",
          "type": "uint256"
        }
      ],
      "name": "setRoundTwoGoal",
      "outputs": [],
      "payable": false,
      "stateMutability": "nonpayable",
      "type": "function",
      "signature": "0x4ca6ab6b"
    },
    {
      "constant": false,
      "inputs": [
        {
          "name": "_goal",
          "type": "uint256"
        }
      ],
      "name": "setRoundThreeGoal",
      "outputs": [],
      "payable": false,
      "stateMutability": "nonpayable",
      "type": "function",
      "signature": "0xfd87aad3"
    },
    {
      "constant": false,
      "inputs": [
        {
          "name": "_reward",
          "type": "uint256"
        }
      ],
      "name": "setRoundOneReward",
      "outputs": [],
      "payable": false,
      "stateMutability": "nonpayable",
      "type": "function",
      "signature": "0x0de96ebe"
    },
    {
      "constant": false,
      "inputs": [
        {
          "name": "_reward",
          "type": "uint256"
        }
      ],
      "name": "setRoundTwoReward",
      "outputs": [],
      "payable": false,
      "stateMutability": "nonpayable",
      "type": "function",
      "signature": "0x7bbac6e6"
    },
    {
      "constant": false,
      "inputs": [
        {
          "name": "_reward",
          "type": "uint256"
        }
      ],
      "name": "setRoundThreeReward",
      "outputs": [],
      "payable": false,
      "stateMutability": "nonpayable",
      "type": "function",
      "signature": "0x87d6fb0a"
    },
    {
      "constant": false,
      "inputs": [
        {
          "name": "_price",
          "type": "uint256"
        }
      ],
      "name": "setPriceToPlay",
      "outputs": [],
      "payable": false,
      "stateMutability": "nonpayable",
      "type": "function",
      "signature": "0xfac83957"
    }
  ],
  "bytecode": "0x6080604052600a600155600060085560fa600955610190600a556101f4600b55600a600c556014600d55600f600e556019600f60006101000a81548160ff021916908360ff1602179055506023600f60016101000a81548160ff021916908360ff1602179055506032600f60026101000a81548160ff021916908360ff160217905550604b600f60036101000a81548160ff021916908360ff1602179055506064600f60046101000a81548160ff021916908360ff1602179055506096600f60056101000a81548160ff021916908360ff16021790555060c8600f60066101000a81548160ff021916908360ff160217905550336000806101000a81548173ffffffffffffffffffffffffffffffffffffffff021916908373ffffffffffffffffffffffffffffffffffffffff1602179055506000809054906101000a900473ffffffffffffffffffffffffffffffffffffffff1673ffffffffffffffffffffffffffffffffffffffff16600073ffffffffffffffffffffffffffffffffffffffff167f8be0079c531659141344cd1fd0a4f28419497f9722a3daafe3b4186f6b6457e060405160405180910390a3610d8b806101bd6000396000f3fe60806040526004361061011d576000357c0100000000000000000000000000000000000000000000000000000000900463ffffffff1680630de96ebe146101225780630e1930c31461015d5780633412a15c1461018c5780633e5edbd3146101b75780633fa9fcf8146101c15780634ca6ab6b146101d8578063715018a6146102135780637bbac6e61461022a5780637c1ebbb61461026557806387d6fb0a146102905780638da5cb5b146102cb5780638f32d59b14610322578063ac43666014610351578063b12decb01461037c578063b6b55f25146103cb578063de3b887d146103f9578063f2fde38b14610434578063f71d96cb14610485578063f80f270114610519578063fac8395714610544578063fd87aad31461057f575b600080fd5b34801561012e57600080fd5b5061015b6004803603602081101561014557600080fd5b81019080803590602001909291905050506105ba565b005b34801561016957600080fd5b506101726105d7565b604051808215151515815260200191505060405180910390f35b34801561019857600080fd5b506101a161062b565b6040518082815260200191505060405180910390f35b6101bf610634565b005b3480156101cd57600080fd5b506101d6610646565b005b3480156101e457600080fd5b50610211600480360360208110156101fb57600080fd5b8101908080359060200190929190505050610907565b005b34801561021f57600080fd5b50610228610924565b005b34801561023657600080fd5b506102636004803603602081101561024d57600080fd5b81019080803590602001909291905050506109f6565b005b34801561027157600080fd5b5061027a610a13565b6040518082815260200191505060405180910390f35b34801561029c57600080fd5b506102c9600480360360208110156102b357600080fd5b8101908080359060200190929190505050610a1d565b005b3480156102d757600080fd5b506102e0610a3a565b604051808273ffffffffffffffffffffffffffffffffffffffff1673ffffffffffffffffffffffffffffffffffffffff16815260200191505060405180910390f35b34801561032e57600080fd5b50610337610a63565b604051808215151515815260200191505060405180910390f35b34801561035d57600080fd5b50610366610aba565b6040518082815260200191505060405180910390f35b34801561038857600080fd5b506103b56004803603602081101561039f57600080fd5b8101908080359060200190929190505050610b01565b6040518082815260200191505060405180910390f35b6103f7600480360360208110156103e157600080fd5b8101908080359060200190929190505050610b2b565b005b34801561040557600080fd5b506104326004803603602081101561041c57600080fd5b8101908080359060200190929190505050610b3c565b005b34801561044057600080fd5b506104836004803603602081101561045757600080fd5b81019080803573ffffffffffffffffffffffffffffffffffffffff169060200190929190505050610b59565b005b34801561049157600080fd5b506104be600480360360208110156104a857600080fd5b8101908080359060200190929190505050610b78565b604051808573ffffffffffffffffffffffffffffffffffffffff1673ffffffffffffffffffffffffffffffffffffffff1681526020018481526020018381526020018215151515815260200194505050505060405180910390f35b34801561052557600080fd5b5061052e610be4565b6040518082815260200191505060405180910390f35b34801561055057600080fd5b5061057d6004803603602081101561056757600080fd5b8101908080359060200190929190505050610c2b565b005b34801561058b57600080fd5b506105b8600480360360208110156105a257600080fd5b8101908080359060200190929190505050610c48565b005b6105c2610a63565b15156105cd57600080fd5b80600c8190555050565b6000600560003373ffffffffffffffffffffffffffffffffffffffff1673ffffffffffffffffffffffffffffffffffffffff16815260200190815260200160002060009054906101000a900460ff16905090565b60006064905090565b6001543414151561064457600080fd5b565b60011515600560003373ffffffffffffffffffffffffffffffffffffffff1673ffffffffffffffffffffffffffffffffffffffff16815260200190815260200160002060009054906101000a900460ff161515141515156106a657600080fd5b60003390506000600160026080604051908101604052808573ffffffffffffffffffffffffffffffffffffffff1681526020016000815260200160008152602001600015158152509080600181540180825580915050906001820390600052602060002090600402016000909192909190915060008201518160000160006101000a81548173ffffffffffffffffffffffffffffffffffffffff021916908373ffffffffffffffffffffffffffffffffffffffff160217905550602082015181600101556040820151816002015560608201518160030160006101000a81548160ff02191690831515021790555050500390506001600560008473ffffffffffffffffffffffffffffffffffffffff1673ffffffffffffffffffffffffffffffffffffffff16815260200190815260200160002060006101000a81548160ff021916908315150217905550816006600083815260200190815260200160002060006101000a81548173ffffffffffffffffffffffffffffffffffffffff021916908373ffffffffffffffffffffffffffffffffffffffff1602179055506000600460008473ffffffffffffffffffffffffffffffffffffffff1673ffffffffffffffffffffffffffffffffffffffff1681526020019081526020016000208190555080600760008473ffffffffffffffffffffffffffffffffffffffff1673ffffffffffffffffffffffffffffffffffffffff168152602001908152602001600020819055507ff4dd1db653a1088522e9ca377c4d54a81fc4c56ca3183a81caf1303eda7e1a95816040518082815260200191505060405180910390a15050565b61090f610a63565b151561091a57600080fd5b80600a8190555050565b61092c610a63565b151561093757600080fd5b600073ffffffffffffffffffffffffffffffffffffffff166000809054906101000a900473ffffffffffffffffffffffffffffffffffffffff1673ffffffffffffffffffffffffffffffffffffffff167f8be0079c531659141344cd1fd0a4f28419497f9722a3daafe3b4186f6b6457e060405160405180910390a360008060006101000a81548173ffffffffffffffffffffffffffffffffffffffff021916908373ffffffffffffffffffffffffffffffffffffffff160217905550565b6109fe610a63565b1515610a0957600080fd5b80600d8190555050565b6000600154905090565b610a25610a63565b1515610a3057600080fd5b80600e8190555050565b60008060009054906101000a900473ffffffffffffffffffffffffffffffffffffffff16905090565b60008060009054906101000a900473ffffffffffffffffffffffffffffffffffffffff1673ffffffffffffffffffffffffffffffffffffffff163373ffffffffffffffffffffffffffffffffffffffff1614905090565b6000600760003373ffffffffffffffffffffffffffffffffffffffff1673ffffffffffffffffffffffffffffffffffffffff16815260200190815260200160002054905090565b6000600282815481101515610b1257fe5b9060005260206000209060040201600101549050919050565b8034141515610b3957600080fd5b50565b610b44610a63565b1515610b4f57600080fd5b8060098190555050565b610b61610a63565b1515610b6c57600080fd5b610b7581610c65565b50565b600281815481101515610b8757fe5b90600052602060002090600402016000915090508060000160009054906101000a900473ffffffffffffffffffffffffffffffffffffffff16908060010154908060020154908060030160009054906101000a900460ff16905084565b6000600460003373ffffffffffffffffffffffffffffffffffffffff1673ffffffffffffffffffffffffffffffffffffffff16815260200190815260200160002054905090565b610c33610a63565b1515610c3e57600080fd5b8060018190555050565b610c50610a63565b1515610c5b57600080fd5b80600b8190555050565b600073ffffffffffffffffffffffffffffffffffffffff168173ffffffffffffffffffffffffffffffffffffffff1614151515610ca157600080fd5b8073ffffffffffffffffffffffffffffffffffffffff166000809054906101000a900473ffffffffffffffffffffffffffffffffffffffff1673ffffffffffffffffffffffffffffffffffffffff167f8be0079c531659141344cd1fd0a4f28419497f9722a3daafe3b4186f6b6457e060405160405180910390a3806000806101000a81548173ffffffffffffffffffffffffffffffffffffffff021916908373ffffffffffffffffffffffffffffffffffffffff1602179055505056fea165627a7a72305820af438a1f6e7ba79d296c8904d090b2b245dee616b674b941c7df6fe17affb3af0029",
  "source": "pragma solidity ^0.5.0;\n\nimport \"./EtherDrive.sol\";\n\ncontract  EtherWheel is EtherDrive {\n\nusing SafeMath for uint256;\n\nevent RoundResults(uint userId, uint roundNumber, uint spinOne, uint spinTwo, uint spinThree, uint roundScore);\nevent SpinLanding(uint spinresult);\nevent PlayerRewardPool(uint userId, uint rewardPool);\n\n  uint randNonce = 0;\n  uint roundOneGoal = 250;\n  uint roundTwoGoal = 400;\n  uint roundThreeGoal = 500;\n\n  uint roundOneReward = 10;\n  uint roundTwoReward = 20;\n  uint roundThreeReward = 15;\n\n  // Possible Spin Values\n  uint8 twentyFive = 25;\n  uint8 thirtyFive = 35;\n  uint8 fifty = 50;\n  uint8 seventyFive = 75;\n  uint8 oneHundred = 100;\n  uint8 oneFifty = 150;\n  uint8 twoHundred = 200;\n\n\n  function randMod(uint _modulus) internal returns(uint) {\n    randNonce = randNonce.add(1);\n    return uint(keccak256(abi.encodePacked(now, msg.sender, randNonce))) % _modulus;\n  }\n\n\n//   function spinWheel(uint _userId, uint _scoreToWin, uint _roundReward) internal {\n//     Player storage currentPlayer = players[_userId];\n//     idToCreditBalance[_userId] = 0;\n//     currentPlayer.roundCount = currentPlayer.roundCount.add(1);\n//     uint roundNumber = currentPlayer.roundCount;\n//     uint roundReward = _roundReward;\n//     uint spinOnePoints = getRoundScore(randMod(100));\n//     uint spinTwoPoints = getRoundScore(randMod(100));\n//     uint spinThreePoints = getRoundScore(randMod(100));\n//     uint _roundScore = spinOnePoints + spinTwoPoints + spinThreePoints;\n\n//     emit RoundResults(_userId, roundNumber, spinOnePoints, spinTwoPoints, spinThreePoints, _roundScore);\n//     if(_roundScore >= _scoreToWin){\n//         if(roundNumber == 3){\n//             currentPlayer.roundCount = 0;\n//             currentPlayer.paid = false;\n\n//         } else {\n//             idToCreditBalance[_userId] = roundReward;\n//         }\n//     } else {\n//         currentPlayer.roundCount = 0;\n//         currentPlayer.paid = false;\n//     }\n//     uint rewardPool = idToCreditBalance[_userId];\n//     emit PlayerRewardPool(_userId, rewardPool);\n//     }\n\n\n//     function checkRound() public {\n//         uint _userId = addressToId[msg.sender];\n//          Player storage currentPlayer = players[_userId];\n//         if(currentPlayer.roundCount ==  0) {\n//         spinWheel(_userId, roundOneGoal, roundOneReward);\n//       } else if(currentPlayer.roundCount ==  1) {\n//         spinWheel(_userId, roundTwoGoal, roundTwoReward);\n//       } else if(currentPlayer.roundCount ==  2) {\n//         spinWheel(_userId, roundThreeGoal, roundThreeReward);\n//       }\n//     }\n\n    function getRoundScore(uint _spinNumber) private returns (uint){\n        emit SpinLanding(_spinNumber);\n      if (_spinNumber < 13) {\n        return 25;\n      } else if (_spinNumber >= 13 && _spinNumber < 25){\n        return 35;\n      } else if (_spinNumber >= 25 && _spinNumber < 42){\n        return 50;\n      } else if (_spinNumber >= 42 && _spinNumber < 59){\n        return 75;\n      } else if (_spinNumber >= 59 && _spinNumber < 71){\n        return 100;\n      } else if (_spinNumber >= 71 && _spinNumber < 83){\n        return 150;\n      } else if (_spinNumber >= 83 && _spinNumber < 88){\n        return 250;\n      } else {\n        return randMod(30).mul(10);\n      }\n    }\n\n// Functions for owner to set round goal amounts\n    function setRoundOneGoal(uint _goal) external onlyOwner {\n    roundOneGoal = _goal;\n  }\n\n  function setRoundTwoGoal(uint _goal) external onlyOwner {\n    roundTwoGoal = _goal;\n  }\n\n  function setRoundThreeGoal(uint _goal) external onlyOwner {\n    roundThreeGoal = _goal;\n  }\n\n// Functions for owner to change round reward amounts\n  function setRoundOneReward(uint _reward) external onlyOwner {\n    roundOneReward = _reward;\n  }\n\n  function setRoundTwoReward(uint _reward) external onlyOwner {\n    roundTwoReward = _reward;\n  }\n\n  function setRoundThreeReward(uint _reward) external onlyOwner {\n    roundThreeReward = _reward;\n  }\n\n//   Function for owner to change the price to play\n    function setPriceToPlay(uint _price) external onlyOwner {\n     priceToPlay = _price;\n  }\n\n\n  }\n\n\n\n\n  /* function firstspinWheel(uint _userId) external onlyOwnerOf(_userId) {\n  Player storage currentPlayer = players[_userId];\n  uint rand = randMod(100) + randMod(.1);\n  if (rand <12.5) {\n    roundCreditBalance = myZombie.winCount.add(1);\n    myZombie.level = myZombie.level.add(1);\n    enemyZombie.lossCount = enemyZombie.lossCount.add(1);\n    feedAndMultiply(_zombieId, enemyZombie.dna, \"zombie\");\n  } else {\n    myZombie.lossCount = myZombie.lossCount.add(1);\n    enemyZombie.winCount = enemyZombie.winCount.add(1);\n    _triggerCooldown(myZombie);\n  }\n} */\n",
  "sourcePath": "/Users/connorpayne/code/EtherDrive/contracts/EtherWheel.sol",
  "compiler": {
    "name": "solc",
    "version": "0.5.0+commit.1d4f565a.Emscripten.clang"
  },
  "schemaVersion": "3.0.3",
  "updatedAt": "2019-03-21T10:53:16.137Z",
  "devdoc": {
    "methods": {
      "isOwner()": {
        "return": "true if `msg.sender` is the owner of the contract."
      },
      "owner()": {
        "return": "the address of the owner."
      },
      "renounceOwnership()": {
        "details": "Allows the current owner to relinquish control of the contract. It will not be possible to call the functions with the `onlyOwner` modifier anymore."
      },
      "transferOwnership(address)": {
        "details": "Allows the current owner to transfer control of the contract to a newOwner.",
        "params": {
          "newOwner": "The address to transfer ownership to."
        }
      }
    }
  },
  "userdoc": {
    "methods": {
      "renounceOwnership()": {
        "notice": "Renouncing ownership will leave the contract without an owner, thereby removing any functionality that is only available to the owner."
      }
    }
  }
}